{
  "contractName": "GGbet",
  "abi": [
    {
      "inputs": [],
      "stateMutability": "nonpayable",
      "type": "constructor"
    },
    {
      "anonymous": false,
      "inputs": [
        {
          "indexed": true,
          "internalType": "address",
          "name": "_address",
          "type": "address"
        },
        {
          "indexed": false,
          "internalType": "uint256",
          "name": "_amount",
          "type": "uint256"
        },
        {
          "indexed": false,
          "internalType": "string",
          "name": "_outcome",
          "type": "string"
        }
      ],
      "name": "BetAccepted",
      "type": "event"
    },
    {
      "anonymous": false,
      "inputs": [],
      "name": "SportsEventClosed",
      "type": "event"
    },
    {
      "inputs": [],
      "name": "current_sports_event",
      "outputs": [
        {
          "internalType": "uint8",
          "name": "id",
          "type": "uint8"
        },
        {
          "internalType": "string",
          "name": "team_1_name",
          "type": "string"
        },
        {
          "internalType": "string",
          "name": "team_2_name",
          "type": "string"
        },
        {
          "internalType": "string",
          "name": "team_1_logo",
          "type": "string"
        },
        {
          "internalType": "string",
          "name": "team_2_logo",
          "type": "string"
        },
        {
          "internalType": "uint8",
          "name": "team_1_win_percent",
          "type": "uint8"
        },
        {
          "internalType": "uint8",
          "name": "team_2_win_percent",
          "type": "uint8"
        }
      ],
      "stateMutability": "view",
      "type": "function",
      "constant": true
    },
    {
      "inputs": [],
      "name": "min_bet",
      "outputs": [
        {
          "internalType": "uint256",
          "name": "",
          "type": "uint256"
        }
      ],
      "stateMutability": "view",
      "type": "function",
      "constant": true
    },
    {
      "inputs": [],
      "name": "owner",
      "outputs": [
        {
          "internalType": "address",
          "name": "",
          "type": "address"
        }
      ],
      "stateMutability": "view",
      "type": "function",
      "constant": true
    },
    {
      "inputs": [],
      "name": "sports_event_in_progress",
      "outputs": [
        {
          "internalType": "bool",
          "name": "",
          "type": "bool"
        }
      ],
      "stateMutability": "view",
      "type": "function",
      "constant": true
    },
    {
      "inputs": [
        {
          "internalType": "uint256",
          "name": "value",
          "type": "uint256"
        }
      ],
      "name": "withdraw",
      "outputs": [],
      "stateMutability": "nonpayable",
      "type": "function"
    },
    {
      "inputs": [
        {
          "internalType": "uint8",
          "name": "_id",
          "type": "uint8"
        }
      ],
      "name": "setCurrentSportsEventById",
      "outputs": [],
      "stateMutability": "nonpayable",
      "type": "function"
    },
    {
      "inputs": [],
      "name": "getSportsEventsCount",
      "outputs": [
        {
          "internalType": "uint256",
          "name": "",
          "type": "uint256"
        }
      ],
      "stateMutability": "view",
      "type": "function",
      "constant": true
    },
    {
      "inputs": [
        {
          "internalType": "uint8",
          "name": "_id",
          "type": "uint8"
        }
      ],
      "name": "getSportsEventById",
      "outputs": [
        {
          "internalType": "uint8",
          "name": "id",
          "type": "uint8"
        },
        {
          "internalType": "string",
          "name": "team_1_name",
          "type": "string"
        },
        {
          "internalType": "string",
          "name": "team_2_name",
          "type": "string"
        },
        {
          "internalType": "string",
          "name": "team_1_logo",
          "type": "string"
        },
        {
          "internalType": "string",
          "name": "team_2_logo",
          "type": "string"
        },
        {
          "internalType": "uint8",
          "name": "team_1_win_percent",
          "type": "uint8"
        },
        {
          "internalType": "uint8",
          "name": "team_2_win_percent",
          "type": "uint8"
        }
      ],
      "stateMutability": "view",
      "type": "function",
      "constant": true
    },
    {
      "inputs": [],
      "name": "betOnTeam1",
      "outputs": [],
      "stateMutability": "payable",
      "type": "function",
      "payable": true
    },
    {
      "inputs": [],
      "name": "betOnDraw",
      "outputs": [],
      "stateMutability": "payable",
      "type": "function",
      "payable": true
    },
    {
      "inputs": [],
      "name": "betOnTeam2",
      "outputs": [],
      "stateMutability": "payable",
      "type": "function",
      "payable": true
    },
    {
      "inputs": [],
      "name": "getUserBet",
      "outputs": [
        {
          "internalType": "uint256",
          "name": "bet",
          "type": "uint256"
        },
        {
          "internalType": "string",
          "name": "outcome",
          "type": "string"
        }
      ],
      "stateMutability": "view",
      "type": "function",
      "constant": true
    },
    {
      "inputs": [
        {
          "internalType": "string",
          "name": "_outcome",
          "type": "string"
        },
        {
          "internalType": "uint8",
          "name": "coef_int_part",
          "type": "uint8"
        },
        {
          "internalType": "uint8",
          "name": "coef_decimal_part",
          "type": "uint8"
        }
      ],
      "name": "endCurrentSportsEvent",
      "outputs": [],
      "stateMutability": "nonpayable",
      "type": "function"
    }
  ],
  "bytecode": "0x6080604052336000806101000a81548173ffffffffffffffffffffffffffffffffffffffff021916908373ffffffffffffffffffffffffffffffffffffffff1602179055506000600860006101000a81548160ff021916908315150217905550660110d9316ec0006009553480156200007757600080fd5b50620000886200008e60201b60201c565b620005f7565b6001620000a0620002c860201b60201c565b908060018154018082558091505060019003906000526020600020906006020160009091909190915060008201518160000160006101000a81548160ff021916908360ff1602179055506020820151816001019080519060200190620001089291906200049c565b506040820151816002019080519060200190620001279291906200049c565b506060820151816003019080519060200190620001469291906200049c565b506080820151816004019080519060200190620001659291906200049c565b5060a08201518160050160006101000a81548160ff021916908360ff16021790555060c08201518160050160016101000a81548160ff021916908360ff16021790555050506001620001bc620003b260201b60201c565b908060018154018082558091505060019003906000526020600020906006020160009091909190915060008201518160000160006101000a81548160ff021916908360ff1602179055506020820151816001019080519060200190620002249291906200049c565b506040820151816002019080519060200190620002439291906200049c565b506060820151816003019080519060200190620002629291906200049c565b506080820151816004019080519060200190620002819291906200049c565b5060a08201518160050160006101000a81548160ff021916908360ff16021790555060c08201518160050160016101000a81548160ff021916908360ff1602179055505050565b620002d26200052d565b6040518060e00160405280600060ff1681526020016040518060400160405280600c81526020017f4643204c69766572706f6f6c000000000000000000000000000000000000000081525081526020016040518060400160405280600c81526020017f46432042617263656c6f6e61000000000000000000000000000000000000000081525081526020016040518060800160405280604d8152602001620033cd604d913981526020016040518060800160405280604d8152602001620032e6604d91398152602001604160ff168152602001600a60ff16815250905090565b620003bc6200052d565b6040518060e00160405280600160ff1681526020016040518060400160405280600981526020017f46432042617965726e000000000000000000000000000000000000000000000081525081526020016040518060400160405280601281526020017f4643204d616e636865737465722043697479000000000000000000000000000081525081526020016040518060800160405280604d815260200162003333604d913981526020016040518060800160405280604d815260200162003380604d91398152602001601960ff168152602001602360ff16815250905090565b828054620004aa9062000592565b90600052602060002090601f016020900481019282620004ce57600085556200051a565b82601f10620004e957805160ff19168380011785556200051a565b828001600101855582156200051a579182015b8281111562000519578251825591602001919060010190620004fc565b5b50905062000529919062000573565b5090565b6040518060e00160405280600060ff16815260200160608152602001606081526020016060815260200160608152602001600060ff168152602001600060ff1681525090565b5b808211156200058e57600081600090555060010162000574565b5090565b60006002820490506001821680620005ab57607f821691505b60208210811415620005c257620005c1620005c8565b5b50919050565b7f4e487b7100000000000000000000000000000000000000000000000000000000600052602260045260246000fd5b612cdf80620006076000396000f3fe6080604052600436106100c25760003560e01c80638da5cb5b1161007f578063ca53135a11610059578063ca53135a14610225578063d3f082e714610250578063e268703d1461025a578063e723431d14610283576100c2565b80638da5cb5b146101ad578063ac0cbc7e146101d8578063bf2358581461021b576100c2565b80630ed3c55d146100c757806329ddcac0146100d15780632e1a7d4d146100fc57806377dcd0641461012557806379adae7a1461015057806381a2824f14610181575b600080fd5b6100cf6102ac565b005b3480156100dd57600080fd5b506100e661047c565b6040516100f3919061262b565b60405180910390f35b34801561010857600080fd5b50610123600480360381019061011e9190612248565b610518565b005b34801561013157600080fd5b5061013a610653565b60405161014791906124d0565b60405180910390f35b34801561015c57600080fd5b50610165610666565b6040516101789796959493929190612676565b60405180910390f35b34801561018d57600080fd5b506101966108dd565b6040516101a4929190612646565b60405180910390f35b3480156101b957600080fd5b506101c2610ae8565b6040516101cf91906124b5565b60405180910390f35b3480156101e457600080fd5b506101ff60048036038101906101fa9190612271565b610b0c565b6040516102129796959493929190612676565b60405180910390f35b610223610f4c565b005b34801561023157600080fd5b5061023a61111c565b604051610247919061262b565b60405180910390f35b610258611122565b005b34801561026657600080fd5b50610281600480360381019061027c91906121e1565b6112f2565b005b34801561028f57600080fd5b506102aa60048036038101906102a59190612271565b611437565b005b600860009054906101000a900460ff166102fb576040517f08c379a00000000000000000000000000000000000000000000000000000000081526004016102f29061258b565b60405180910390fd5b600954341015610340576040517f08c379a0000000000000000000000000000000000000000000000000000000008152600401610337906125ab565b60405180910390fd5b610348611624565b34600c60003373ffffffffffffffffffffffffffffffffffffffff1673ffffffffffffffffffffffffffffffffffffffff16815260200190815260200160002081905550600e339080600181540180825580915050600190039060005260206000200160009091909190916101000a81548173ffffffffffffffffffffffffffffffffffffffff021916908373ffffffffffffffffffffffffffffffffffffffff16021790555060006040518060400160405280600681526020017f7465616d5f32000000000000000000000000000000000000000000000000000081525090503373ffffffffffffffffffffffffffffffffffffffff167f5d8f70e9152d0ef26d34521cebb7cb7355e74f248853d2ea29bd870fff35f5223483604051610471929190612646565b60405180910390a250565b60008060009054906101000a900473ffffffffffffffffffffffffffffffffffffffff1673ffffffffffffffffffffffffffffffffffffffff163373ffffffffffffffffffffffffffffffffffffffff161461050d576040517f08c379a00000000000000000000000000000000000000000000000000000000081526004016105049061260b565b60405180910390fd5b600180549050905090565b60008054906101000a900473ffffffffffffffffffffffffffffffffffffffff1673ffffffffffffffffffffffffffffffffffffffff163373ffffffffffffffffffffffffffffffffffffffff16146105a6576040517f08c379a000000000000000000000000000000000000000000000000000000000815260040161059d9061260b565b60405180910390fd5b804710156105e9576040517f08c379a00000000000000000000000000000000000000000000000000000000081526004016105e0906124eb565b60405180910390fd5b60008054906101000a900473ffffffffffffffffffffffffffffffffffffffff1673ffffffffffffffffffffffffffffffffffffffff166108fc829081150290604051600060405180830381858888f1935050505015801561064f573d6000803e3d6000fd5b5050565b600860009054906101000a900460ff1681565b60028060000160009054906101000a900460ff169080600101805461068a906128f6565b80601f01602080910402602001604051908101604052809291908181526020018280546106b6906128f6565b80156107035780601f106106d857610100808354040283529160200191610703565b820191906000526020600020905b8154815290600101906020018083116106e657829003601f168201915b505050505090806002018054610718906128f6565b80601f0160208091040260200160405190810160405280929190818152602001828054610744906128f6565b80156107915780601f1061076657610100808354040283529160200191610791565b820191906000526020600020905b81548152906001019060200180831161077457829003601f168201915b5050505050908060030180546107a6906128f6565b80601f01602080910402602001604051908101604052809291908181526020018280546107d2906128f6565b801561081f5780601f106107f45761010080835404028352916020019161081f565b820191906000526020600020905b81548152906001019060200180831161080257829003601f168201915b505050505090806004018054610834906128f6565b80601f0160208091040260200160405190810160405280929190818152602001828054610860906128f6565b80156108ad5780601f10610882576101008083540402835291602001916108ad565b820191906000526020600020905b81548152906001019060200180831161089057829003601f168201915b5050505050908060050160009054906101000a900460ff16908060050160019054906101000a900460ff16905087565b60006060600860009054906101000a900460ff16610930576040517f08c379a00000000000000000000000000000000000000000000000000000000081526004016109279061258b565b60405180910390fd5b6000600a60003373ffffffffffffffffffffffffffffffffffffffff1673ffffffffffffffffffffffffffffffffffffffff1681526020019081526020016000205490506000600b60003373ffffffffffffffffffffffffffffffffffffffff1673ffffffffffffffffffffffffffffffffffffffff1681526020019081526020016000205490506000600c60003373ffffffffffffffffffffffffffffffffffffffff1673ffffffffffffffffffffffffffffffffffffffff168152602001908152602001600020549050600060606009548510610a49578491506040518060400160405280600681526020017f7465616d5f3100000000000000000000000000000000000000000000000000008152509050610ad9565b6009548410610a92578391506040518060400160405280600481526020017f64726177000000000000000000000000000000000000000000000000000000008152509050610ad8565b6009548310610ad7578291506040518060400160405280600681526020017f7465616d5f32000000000000000000000000000000000000000000000000000081525090505b5b5b81819650965050505050509091565b60008054906101000a900473ffffffffffffffffffffffffffffffffffffffff1681565b600060608060608060008060008054906101000a900473ffffffffffffffffffffffffffffffffffffffff1673ffffffffffffffffffffffffffffffffffffffff163373ffffffffffffffffffffffffffffffffffffffff1614610ba5576040517f08c379a0000000000000000000000000000000000000000000000000000000008152600401610b9c9061260b565b60405180910390fd5b60005b600180549050811015610f055760018181548110610bef577f4e487b7100000000000000000000000000000000000000000000000000000000600052603260045260246000fd5b906000526020600020906006020160000160009054906101000a900460ff1660ff168960ff161415610ef257600060018281548110610c57577f4e487b7100000000000000000000000000000000000000000000000000000000600052603260045260246000fd5b906000526020600020906006020190508060000160009054906101000a900460ff16816001018260020183600301846004018560050160009054906101000a900460ff168660050160019054906101000a900460ff16858054610cb9906128f6565b80601f0160208091040260200160405190810160405280929190818152602001828054610ce5906128f6565b8015610d325780601f10610d0757610100808354040283529160200191610d32565b820191906000526020600020905b815481529060010190602001808311610d1557829003601f168201915b50505050509550848054610d45906128f6565b80601f0160208091040260200160405190810160405280929190818152602001828054610d71906128f6565b8015610dbe5780601f10610d9357610100808354040283529160200191610dbe565b820191906000526020600020905b815481529060010190602001808311610da157829003601f168201915b50505050509450838054610dd1906128f6565b80601f0160208091040260200160405190810160405280929190818152602001828054610dfd906128f6565b8015610e4a5780601f10610e1f57610100808354040283529160200191610e4a565b820191906000526020600020905b815481529060010190602001808311610e2d57829003601f168201915b50505050509350828054610e5d906128f6565b80601f0160208091040260200160405190810160405280929190818152602001828054610e89906128f6565b8015610ed65780601f10610eab57610100808354040283529160200191610ed6565b820191906000526020600020905b815481529060010190602001808311610eb957829003601f168201915b5050505050925098509850985098509850985098505050610f41565b8080610efd90612959565b915050610ba8565b506040517f08c379a0000000000000000000000000000000000000000000000000000000008152600401610f389061256b565b60405180910390fd5b919395979092949650565b600860009054906101000a900460ff16610f9b576040517f08c379a0000000000000000000000000000000000000000000000000000000008152600401610f929061258b565b60405180910390fd5b600954341015610fe0576040517f08c379a0000000000000000000000000000000000000000000000000000000008152600401610fd7906125ab565b60405180910390fd5b610fe8611624565b34600b60003373ffffffffffffffffffffffffffffffffffffffff1673ffffffffffffffffffffffffffffffffffffffff16815260200190815260200160002081905550600f339080600181540180825580915050600190039060005260206000200160009091909190916101000a81548173ffffffffffffffffffffffffffffffffffffffff021916908373ffffffffffffffffffffffffffffffffffffffff16021790555060006040518060400160405280600481526020017f647261770000000000000000000000000000000000000000000000000000000081525090503373ffffffffffffffffffffffffffffffffffffffff167f5d8f70e9152d0ef26d34521cebb7cb7355e74f248853d2ea29bd870fff35f5223483604051611111929190612646565b60405180910390a250565b60095481565b600860009054906101000a900460ff16611171576040517f08c379a00000000000000000000000000000000000000000000000000000000081526004016111689061258b565b60405180910390fd5b6009543410156111b6576040517f08c379a00000000000000000000000000000000000000000000000000000000081526004016111ad906125ab565b60405180910390fd5b6111be611624565b34600a60003373ffffffffffffffffffffffffffffffffffffffff1673ffffffffffffffffffffffffffffffffffffffff16815260200190815260200160002081905550600d339080600181540180825580915050600190039060005260206000200160009091909190916101000a81548173ffffffffffffffffffffffffffffffffffffffff021916908373ffffffffffffffffffffffffffffffffffffffff16021790555060006040518060400160405280600681526020017f7465616d5f31000000000000000000000000000000000000000000000000000081525090503373ffffffffffffffffffffffffffffffffffffffff167f5d8f70e9152d0ef26d34521cebb7cb7355e74f248853d2ea29bd870fff35f52234836040516112e7929190612646565b60405180910390a250565b60008054906101000a900473ffffffffffffffffffffffffffffffffffffffff1673ffffffffffffffffffffffffffffffffffffffff163373ffffffffffffffffffffffffffffffffffffffff1614611380576040517f08c379a00000000000000000000000000000000000000000000000000000000081526004016113779061260b565b60405180910390fd5b600860009054906101000a900460ff166113cf576040517f08c379a00000000000000000000000000000000000000000000000000000000081526004016113c69061250b565b60405180910390fd5b6113d883611677565b6000600860006101000a81548160ff0219169083151502179055506113fe838383611784565b611406611880565b7fbbde21cc46478a8e2fd9c6b5ce17e627f0d9a6ed30292d956c36031361576e8e60405160405180910390a1505050565b60008054906101000a900473ffffffffffffffffffffffffffffffffffffffff1673ffffffffffffffffffffffffffffffffffffffff163373ffffffffffffffffffffffffffffffffffffffff16146114c5576040517f08c379a00000000000000000000000000000000000000000000000000000000081526004016114bc9061260b565b60405180910390fd5b60008060008060008060006114d988610b0c565b96509650965096509650965096506040518060e001604052808860ff1681526020018781526020018681526020018581526020018481526020018360ff1681526020018260ff16815250600260008201518160000160006101000a81548160ff021916908360ff160217905550602082015181600101908051906020019061156292919061208b565b50604082015181600201908051906020019061157f92919061208b565b50606082015181600301908051906020019061159c92919061208b565b5060808201518160040190805190602001906115b992919061208b565b5060a08201518160050160006101000a81548160ff021916908360ff16021790555060c08201518160050160016101000a81548160ff021916908360ff1602179055509050506001600860006101000a81548160ff0219169083151502179055505050505050505050565b600061162e6108dd565b50905060008114611674576040517f08c379a000000000000000000000000000000000000000000000000000000000815260040161166b9061252b565b60405180910390fd5b50565b6116b6816040518060400160405280600681526020017f7465616d5f3100000000000000000000000000000000000000000000000000008152506118c4565b806116fc57506116fb816040518060400160405280600681526020017f7465616d5f3200000000000000000000000000000000000000000000000000008152506118c4565b5b806117425750611741816040518060400160405280600481526020017f64726177000000000000000000000000000000000000000000000000000000008152506118c4565b5b611781576040517f08c379a00000000000000000000000000000000000000000000000000000000081526004016117789061254b565b60405180910390fd5b50565b6117c3836040518060400160405280600681526020017f7465616d5f3100000000000000000000000000000000000000000000000000008152506118c4565b156117d7576117d2828261191d565b61187b565b611816836040518060400160405280600681526020017f7465616d5f3200000000000000000000000000000000000000000000000000008152506118c4565b1561182a576118258282611a8e565b61187a565b611869836040518060400160405280600481526020017f64726177000000000000000000000000000000000000000000000000000000008152506118c4565b15611879576118788282611bff565b5b5b5b505050565b611888611d70565b611890611e43565b611898611f16565b600d60006118a69190612111565b600e60006118b49190612111565b600f60006118c29190612111565b565b6000816040516020016118d7919061249e565b60405160208183030381529060405280519060200120836040516020016118fe919061249e565b6040516020818303038152906040528051906020012014905092915050565b60005b600d80549050811015611a89576000600d8281548110611969577f4e487b7100000000000000000000000000000000000000000000000000000000600052603260045260246000fd5b9060005260206000200160009054906101000a900473ffffffffffffffffffffffffffffffffffffffff1690506000600a60008373ffffffffffffffffffffffffffffffffffffffff1673ffffffffffffffffffffffffffffffffffffffff16815260200190815260200160002054905060006119e7828787611fe9565b905047811115611a2c576040517f08c379a0000000000000000000000000000000000000000000000000000000008152600401611a23906125cb565b60405180910390fd5b8273ffffffffffffffffffffffffffffffffffffffff166108fc829081150290604051600060405180830381858888f19350505050158015611a72573d6000803e3d6000fd5b505050508080611a8190612959565b915050611920565b505050565b60005b600e80549050811015611bfa576000600e8281548110611ada577f4e487b7100000000000000000000000000000000000000000000000000000000600052603260045260246000fd5b9060005260206000200160009054906101000a900473ffffffffffffffffffffffffffffffffffffffff1690506000600c60008373ffffffffffffffffffffffffffffffffffffffff1673ffffffffffffffffffffffffffffffffffffffff1681526020019081526020016000205490506000611b58828787611fe9565b905047811115611b9d576040517f08c379a0000000000000000000000000000000000000000000000000000000008152600401611b94906125cb565b60405180910390fd5b8273ffffffffffffffffffffffffffffffffffffffff166108fc829081150290604051600060405180830381858888f19350505050158015611be3573d6000803e3d6000fd5b505050508080611bf290612959565b915050611a91565b505050565b60005b600f80549050811015611d6b576000600f8281548110611c4b577f4e487b7100000000000000000000000000000000000000000000000000000000600052603260045260246000fd5b9060005260206000200160009054906101000a900473ffffffffffffffffffffffffffffffffffffffff1690506000600b60008373ffffffffffffffffffffffffffffffffffffffff1673ffffffffffffffffffffffffffffffffffffffff1681526020019081526020016000205490506000611cc9828787611fe9565b905047811115611d0e576040517f08c379a0000000000000000000000000000000000000000000000000000000008152600401611d05906125cb565b60405180910390fd5b8273ffffffffffffffffffffffffffffffffffffffff166108fc829081150290604051600060405180830381858888f19350505050158015611d54573d6000803e3d6000fd5b505050508080611d6390612959565b915050611c02565b505050565b60005b600d80549050811015611e40576000600d8281548110611dbc577f4e487b7100000000000000000000000000000000000000000000000000000000600052603260045260246000fd5b9060005260206000200160009054906101000a900473ffffffffffffffffffffffffffffffffffffffff169050600a60008273ffffffffffffffffffffffffffffffffffffffff1673ffffffffffffffffffffffffffffffffffffffff16815260200190815260200160002060009055508080611e3890612959565b915050611d73565b50565b60005b600e80549050811015611f13576000600e8281548110611e8f577f4e487b7100000000000000000000000000000000000000000000000000000000600052603260045260246000fd5b9060005260206000200160009054906101000a900473ffffffffffffffffffffffffffffffffffffffff169050600c60008273ffffffffffffffffffffffffffffffffffffffff1673ffffffffffffffffffffffffffffffffffffffff16815260200190815260200160002060009055508080611f0b90612959565b915050611e46565b50565b60005b600f80549050811015611fe6576000600f8281548110611f62577f4e487b7100000000000000000000000000000000000000000000000000000000600052603260045260246000fd5b9060005260206000200160009054906101000a900473ffffffffffffffffffffffffffffffffffffffff169050600b60008273ffffffffffffffffffffffffffffffffffffffff1673ffffffffffffffffffffffffffffffffffffffff16815260200190815260200160002060009055508080611fde90612959565b915050611f19565b50565b6000611ff482612031565b8160ff1660648561200591906127d4565b61200f9190612805565b8360ff168561201e9190612805565b612028919061277e565b90509392505050565b60008160ff1610158015612049575060638160ff1611155b612088576040517f08c379a000000000000000000000000000000000000000000000000000000000815260040161207f906125eb565b60405180910390fd5b50565b828054612097906128f6565b90600052602060002090601f0160209004810192826120b95760008555612100565b82601f106120d257805160ff1916838001178555612100565b82800160010185558215612100579182015b828111156120ff5782518255916020019190600101906120e4565b5b50905061210d9190612132565b5090565b508054600082559060005260206000209081019061212f9190612132565b50565b5b8082111561214b576000816000905550600101612133565b5090565b600061216261215d84612726565b612701565b90508281526020810184848401111561217a57600080fd5b6121858482856128b4565b509392505050565b600082601f83011261219e57600080fd5b81356121ae84826020860161214f565b91505092915050565b6000813590506121c681612c7b565b92915050565b6000813590506121db81612c92565b92915050565b6000806000606084860312156121f657600080fd5b600084013567ffffffffffffffff81111561221057600080fd5b61221c8682870161218d565b935050602061222d868287016121cc565b925050604061223e868287016121cc565b9150509250925092565b60006020828403121561225a57600080fd5b6000612268848285016121b7565b91505092915050565b60006020828403121561228357600080fd5b6000612291848285016121cc565b91505092915050565b6122a38161285f565b82525050565b6122b281612871565b82525050565b60006122c382612757565b6122cd8185612762565b93506122dd8185602086016128c3565b6122e681612a5e565b840191505092915050565b60006122fc82612757565b6123068185612773565b93506123168185602086016128c3565b80840191505092915050565b600061232f601083612762565b915061233a82612a6f565b602082019050919050565b6000612352602483612762565b915061235d82612a98565b604082019050919050565b6000612375602083612762565b915061238082612ae7565b602082019050919050565b6000612398601183612762565b91506123a382612b10565b602082019050919050565b60006123bb601e83612762565b91506123c682612b39565b602082019050919050565b60006123de601c83612762565b91506123e982612b62565b602082019050919050565b6000612401601983612762565b915061240c82612b8b565b602082019050919050565b6000612424602083612762565b915061242f82612bb4565b602082019050919050565b6000612447602d83612762565b915061245282612bdd565b604082019050919050565b600061246a603383612762565b915061247582612c2c565b604082019050919050565b6124898161289d565b82525050565b612498816128a7565b82525050565b60006124aa82846122f1565b915081905092915050565b60006020820190506124ca600083018461229a565b92915050565b60006020820190506124e560008301846122a9565b92915050565b6000602082019050818103600083015261250481612322565b9050919050565b6000602082019050818103600083015261252481612345565b9050919050565b6000602082019050818103600083015261254481612368565b9050919050565b600060208201905081810360008301526125648161238b565b9050919050565b60006020820190508181036000830152612584816123ae565b9050919050565b600060208201905081810360008301526125a4816123d1565b9050919050565b600060208201905081810360008301526125c4816123f4565b9050919050565b600060208201905081810360008301526125e481612417565b9050919050565b600060208201905081810360008301526126048161243a565b9050919050565b600060208201905081810360008301526126248161245d565b9050919050565b60006020820190506126406000830184612480565b92915050565b600060408201905061265b6000830185612480565b818103602083015261266d81846122b8565b90509392505050565b600060e08201905061268b600083018a61248f565b818103602083015261269d81896122b8565b905081810360408301526126b181886122b8565b905081810360608301526126c581876122b8565b905081810360808301526126d981866122b8565b90506126e860a083018561248f565b6126f560c083018461248f565b98975050505050505050565b600061270b61271c565b90506127178282612928565b919050565b6000604051905090565b600067ffffffffffffffff82111561274157612740612a2f565b5b61274a82612a5e565b9050602081019050919050565b600081519050919050565b600082825260208201905092915050565b600081905092915050565b60006127898261289d565b91506127948361289d565b9250827fffffffffffffffffffffffffffffffffffffffffffffffffffffffffffffffff038211156127c9576127c86129a2565b5b828201905092915050565b60006127df8261289d565b91506127ea8361289d565b9250826127fa576127f96129d1565b5b828204905092915050565b60006128108261289d565b915061281b8361289d565b9250817fffffffffffffffffffffffffffffffffffffffffffffffffffffffffffffffff0483118215151615612854576128536129a2565b5b828202905092915050565b600061286a8261287d565b9050919050565b60008115159050919050565b600073ffffffffffffffffffffffffffffffffffffffff82169050919050565b6000819050919050565b600060ff82169050919050565b82818337600083830152505050565b60005b838110156128e15780820151818401526020810190506128c6565b838111156128f0576000848401525b50505050565b6000600282049050600182168061290e57607f821691505b6020821081141561292257612921612a00565b5b50919050565b61293182612a5e565b810181811067ffffffffffffffff821117156129505761294f612a2f565b5b80604052505050565b60006129648261289d565b91507fffffffffffffffffffffffffffffffffffffffffffffffffffffffffffffffff821415612997576129966129a2565b5b600182019050919050565b7f4e487b7100000000000000000000000000000000000000000000000000000000600052601160045260246000fd5b7f4e487b7100000000000000000000000000000000000000000000000000000000600052601260045260246000fd5b7f4e487b7100000000000000000000000000000000000000000000000000000000600052602260045260246000fd5b7f4e487b7100000000000000000000000000000000000000000000000000000000600052604160045260246000fd5b6000601f19601f8301169050919050565b7f4e6f7420656e6f75676820657468657200000000000000000000000000000000600082015250565b7f43757272656e742073706f727473206576656e7420697320616c72656164792060008201527f646f6e6500000000000000000000000000000000000000000000000000000000602082015250565b7f5468697320757365722068617320616c7265616479206d616465206120626574600082015250565b7f496e636f7272656374206f7574636f6d65000000000000000000000000000000600082015250565b7f5468657265206973206e6f206576656e74207769746820746869732069640000600082015250565b7f43757272656e742073706f727473206576656e74206973206f76657200000000600082015250565b7f4d696e696d616c2062657420697320302e303030332045544800000000000000600082015250565b7f4e6f7420656e6f75676820657468657220746f20726566756e64206120626574600082015250565b7f446563696d616c2070617274206d75737420626520696e746567657220696e2060008201527f72616e6765205b302c2039395d00000000000000000000000000000000000000602082015250565b7f546869732066756e6374696f6e206973207265737472696374656420746f207460008201527f686520636f6e74726163742773206f776e657200000000000000000000000000602082015250565b612c848161289d565b8114612c8f57600080fd5b50565b612c9b816128a7565b8114612ca657600080fd5b5056fea2646970667358221220d3b26cd1d9f155e60f756263930a041e557da6abc911babbe90cd2188ea7e32064736f6c634300080400332f2f73746f726167652e6d64732e79616e6465782e6e65742f6765742d73706f72742f36393630332f39323838633936303439386632353365313536313065343064373331653731662e706e672f2f73746f726167652e6d64732e79616e6465782e6e65742f6765742d73706f72742f36373338392f64616264323836333133353531393836653466396537393466353031623732652e706e672f2f73746f726167652e6d64732e79616e6465782e6e65742f6765742d73706f72742f36373338392f36366539336365346431656231363634333836346633663331316433656638332e706e672f2f73746f726167652e6d64732e79616e6465782e6e65742f6765742d73706f72742f31303439332f61316637326432353937613231383430353236373666376138636263643538632e706e67",
  "immutableReferences": {},
  "source": "// SPDX-License-Identifier: MIT\npragma solidity >=0.8.0 <0.9.0;\n\n\nstruct SportsEvent {\n  uint8 id;\n  string team_1_name;\n  string team_2_name;\n  string team_1_logo;\n  string team_2_logo;\n  uint8 team_1_win_percent;\n  uint8 team_2_win_percent;\n}\n\ncontract GGbet {\n  address public owner = msg.sender;\n\n  SportsEvent[] private sports_events_set;\n  SportsEvent public current_sports_event;\n  bool public sports_event_in_progress = false;\n\n  uint public min_bet = 300000000000000; // 0.0003 eth;\n  mapping(address => uint) private team_1_bets;\n  mapping(address => uint) private draw_bets;\n  mapping(address => uint) private team_2_bets;\n  address[] private team_1_bets_addresses;\n  address[] private team_2_bets_addresses;\n  address[] private draw_bets_addresses;\n\n  /*\n    add a WITHDRAW function\n  */\n\n  constructor() {\n    initializeSportsEvents();\n  }\n\n  modifier restricted() {\n    require(\n      msg.sender == owner,\n      \"This function is restricted to the contract's owner\"\n    );\n    _;\n  }\n\n  event BetAccepted(address indexed _address, uint _amount, string _outcome);\n  event SportsEventClosed();\n\n  /*\n    PUBLIC functions\n  */\n\n  function withdraw(uint value) public restricted {\n    require(address(this).balance >= value, 'Not enough ether');\n    payable(owner).transfer(value);\n  }\n\n  function setCurrentSportsEventById(uint8 _id) public restricted {\n    (\n      uint8 id,\n      string memory team_1_name,\n      string memory team_2_name,\n      string memory team_1_logo,\n      string memory team_2_logo,\n      uint8 team_1_win_percent,\n      uint8 team_2_win_percent\n    ) = getSportsEventById(_id);\n\n    current_sports_event = SportsEvent({\n      id: id,\n      team_1_name: team_1_name,\n      team_2_name: team_2_name,\n      team_1_logo: team_1_logo,\n      team_2_logo: team_2_logo,\n      team_1_win_percent: team_1_win_percent,\n      team_2_win_percent: team_2_win_percent\n    });\n    sports_event_in_progress = true;\n  }\n\n  function getSportsEventsCount() public view restricted returns (uint) {\n    return sports_events_set.length;\n  }\n\n  function getSportsEventById(uint8 _id)\n    public\n    view\n    restricted\n    returns (\n      uint8 id,\n      string memory team_1_name,\n      string memory team_2_name,\n      string memory team_1_logo,\n      string memory team_2_logo,\n      uint8 team_1_win_percent,\n      uint8 team_2_win_percent\n    )\n  {\n    for(uint i = 0; i < sports_events_set.length; i++) {\n      if (_id == sports_events_set[i].id) {\n        SportsEvent storage temp = sports_events_set[i]; // reference, no copy. just for brevity\n\n        return (\n          temp.id,\n          temp.team_1_name,\n          temp.team_2_name,\n          temp.team_1_logo,\n          temp.team_2_logo,\n          temp.team_1_win_percent,\n          temp.team_2_win_percent\n        );\n      }\n    }\n\n    revert(\"There is no event with this id\");\n  }\n\n  function betOnTeam1() public payable {\n    require(sports_event_in_progress, 'Current sports event is over');\n    require(msg.value >= min_bet, 'Minimal bet is 0.0003 ETH');\n    requireUserHasNoActiveBets();\n\n    team_1_bets[msg.sender] = msg.value;\n    team_1_bets_addresses.push(msg.sender);\n    string memory _outcome = 'team_1';\n    emit BetAccepted(msg.sender, msg.value, _outcome);\n  }\n\n  function betOnDraw() public payable {\n    require(sports_event_in_progress, 'Current sports event is over');\n    require(msg.value >= min_bet, 'Minimal bet is 0.0003 ETH');\n    requireUserHasNoActiveBets();\n\n    draw_bets[msg.sender] = msg.value;\n    draw_bets_addresses.push(msg.sender);\n    string memory _outcome = 'draw';\n    emit BetAccepted(msg.sender, msg.value, _outcome);\n  }\n\n  function betOnTeam2() public payable {\n    require(sports_event_in_progress, 'Current sports event is over');\n    require(msg.value >= min_bet, 'Minimal bet is 0.0003 ETH');\n    requireUserHasNoActiveBets();\n\n    team_2_bets[msg.sender] = msg.value;\n    team_2_bets_addresses.push(msg.sender);\n    string memory _outcome = 'team_2';\n    emit BetAccepted(msg.sender, msg.value, _outcome);\n  }\n\n  function getUserBet() public view returns(uint bet, string memory outcome) {\n    require(sports_event_in_progress, 'Current sports event is over');\n    uint team_1_bet = team_1_bets[msg.sender];\n    uint draw_bet = draw_bets[msg.sender];\n    uint team_2_bet = team_2_bets[msg.sender];\n    uint _bet = 0;\n    string memory _outcome;\n\n    if (team_1_bet >= min_bet) {\n      _bet = team_1_bet;\n      _outcome = 'team_1';\n    }\n    else if (draw_bet >= min_bet) {\n      _bet = draw_bet;\n      _outcome = 'draw';\n    }\n    else if (team_2_bet >= min_bet) {\n      _bet = team_2_bet;\n      _outcome = 'team_2';\n    }\n\n    return (_bet, _outcome);\n  }\n\n  function endCurrentSportsEvent(\n    string memory _outcome,\n    uint8 coef_int_part,\n    uint8 coef_decimal_part\n  )\n    public restricted\n  {\n    require(sports_event_in_progress, 'Current sports event is already done');\n    requireCorrectOutcome(_outcome);\n\n    sports_event_in_progress = false;\n    refundBets(_outcome, coef_int_part, coef_decimal_part);\n    deleteBetsData();\n\n    emit SportsEventClosed();\n  }\n\n  /*\n    PRIVATE functions\n  */\n\n  function refundBets(\n    string memory _outcome,\n    uint8 coef_int_part,\n    uint8 coef_decimal_part\n  )\n    private\n  {\n    if (stringsEqual(_outcome, 'team_1')) {\n      refundBetsOnTeam1(coef_int_part, coef_decimal_part);\n    }\n    else if (stringsEqual(_outcome, 'team_2')) {\n      refundBetsOnTeam2(coef_int_part, coef_decimal_part);\n    }\n    else if (stringsEqual(_outcome, 'draw')) {\n      refundBetsOnDraw(coef_int_part, coef_decimal_part);\n    }\n\n\n  }\n\n  function refundBetsOnTeam1(uint8 coef_int_part, uint8 coef_decimal_part) private {\n    for (uint i = 0; i < team_1_bets_addresses.length; i++) {\n      address payable user_address = payable(team_1_bets_addresses[i]);\n      uint bet_amount = team_1_bets[user_address];\n      uint refund_amount = calculateBetRefund(bet_amount, coef_int_part, coef_decimal_part);\n\n      require(refund_amount <= address(this).balance, 'Not enough ether to refund a bet');\n      user_address.transfer(refund_amount);\n    }\n  }\n\n  function refundBetsOnTeam2(uint8 coef_int_part, uint8 coef_decimal_part) private {\n    for (uint i = 0; i < team_2_bets_addresses.length; i++) {\n      address payable user_address = payable(team_2_bets_addresses[i]);\n      uint bet_amount = team_2_bets[user_address];\n      uint refund_amount = calculateBetRefund(bet_amount, coef_int_part, coef_decimal_part);\n\n      require(refund_amount <= address(this).balance, 'Not enough ether to refund a bet');\n      user_address.transfer(refund_amount);\n    }\n  }\n\n  function refundBetsOnDraw(uint8 coef_int_part, uint8 coef_decimal_part) private {\n    for (uint i = 0; i < draw_bets_addresses.length; i++) {\n      address payable user_address = payable(draw_bets_addresses[i]);\n      uint bet_amount = draw_bets[user_address];\n      uint refund_amount = calculateBetRefund(bet_amount, coef_int_part, coef_decimal_part);\n\n      require(refund_amount <= address(this).balance, 'Not enough ether to refund a bet');\n      user_address.transfer(refund_amount);\n    }\n  }\n\n  function calculateBetRefund(\n    uint bet_amount,\n    uint8 coef_int_part,\n    uint8 coef_decimal_part\n  )\n    private pure returns (uint refund_amount)\n  {\n    requireDecimalIsNormalized(coef_decimal_part);\n\n    return bet_amount * coef_int_part + bet_amount / 100 * coef_decimal_part;\n  }\n\n  function deleteBetsData() private {\n    deleteUserBetsOnTeam1();\n    deleteUserBetsOnTeam2();\n    deleteUserBetsOnDraw();\n\n    delete team_1_bets_addresses;\n    delete team_2_bets_addresses;\n    delete draw_bets_addresses;\n  }\n\n  function deleteUserBetsOnTeam1() private {\n    for (uint i = 0; i < team_1_bets_addresses.length; i++) {\n      address user = team_1_bets_addresses[i];\n      delete team_1_bets[user];\n    }\n  }\n\n  function deleteUserBetsOnTeam2() private {\n    for (uint i = 0; i < team_2_bets_addresses.length; i++) {\n      address user = team_2_bets_addresses[i];\n      delete team_2_bets[user];\n    }\n  }\n\n  function deleteUserBetsOnDraw() private {\n    for (uint i = 0; i < draw_bets_addresses.length; i++) {\n      address user = draw_bets_addresses[i];\n      delete draw_bets[user];\n    }\n  }\n\n  function initializeSportsEvents() private {\n    sports_events_set.push(getLfcVsBarcaEvent());\n    sports_events_set.push(getBayernVsMancityEvent());\n  }\n\n  function getLfcVsBarcaEvent() private pure returns (SportsEvent memory) {\n    return SportsEvent({\n      id: 0,\n      team_1_name : 'FC Liverpool',\n      team_2_name : 'FC Barcelona',\n      team_1_logo: '//storage.mds.yandex.net/get-sport/10493/a1f72d2597a2184052676f7a8cbcd58c.png',\n      team_2_logo: '//storage.mds.yandex.net/get-sport/69603/9288c960498f253e15610e40d731e71f.png',\n      team_1_win_percent: 65,\n      team_2_win_percent: 10\n    });\n  }\n\n  function getBayernVsMancityEvent() private pure returns (SportsEvent memory) {\n    return SportsEvent({\n      id: 1,\n      team_1_name : 'FC Bayern',\n      team_2_name : 'FC Manchester City',\n      team_1_logo: '//storage.mds.yandex.net/get-sport/67389/dabd286313551986e4f9e794f501b72e.png',\n      team_2_logo: '//storage.mds.yandex.net/get-sport/67389/66e93ce4d1eb16643864f3f311d3ef83.png',\n      team_1_win_percent: 25,\n      team_2_win_percent: 35\n    });\n  }\n\n  function requireUserHasNoActiveBets() private view {\n    (uint bet,) = getUserBet();\n\n    require(bet == 0, 'This user has already made a bet');\n  }\n\n  function requireDecimalIsNormalized(uint8 decimal) private pure {\n    require(decimal >= 0 && decimal <= 99, 'Decimal part must be integer in range [0, 99]');\n  }\n\n  function requireCorrectOutcome(string memory _outcome) private pure {\n    require(\n      stringsEqual(_outcome, 'team_1') ||\n      stringsEqual(_outcome, 'team_2') ||\n      stringsEqual(_outcome, 'draw'),\n      \"Incorrect outcome\"\n    );\n  }\n\n  function stringsEqual(string memory a, string memory b) private pure returns (bool) {\n    return keccak256(abi.encodePacked(a)) == keccak256(abi.encodePacked(b));\n  }\n}\n",
  "sourcePath": "/home/ivannn/Projects/BookmakerDAPP/bookmaker-dapp/contracts/GGbet.sol",
  "compiler": {
    "name": "solc",
    "version": "0.8.4+commit.c7e474f2.Emscripten.clang"
  },
  "schemaVersion": "3.2.3",
  "updatedAt": "2022-02-24T15:53:59.860Z",
  "networkType": "ethereum",
  "devdoc": {
    "kind": "dev",
    "methods": {},
    "version": 1
  },
  "userdoc": {
    "kind": "user",
    "methods": {},
    "version": 1
  }
}