{
  "contractName": "GGbet",
  "abi": [
    {
      "inputs": [],
      "name": "current_sports_event",
      "outputs": [
        {
          "internalType": "uint8",
          "name": "id",
          "type": "uint8"
        },
        {
          "internalType": "string",
          "name": "team_1_name",
          "type": "string"
        },
        {
          "internalType": "string",
          "name": "team_2_name",
          "type": "string"
        },
        {
          "internalType": "uint8",
          "name": "team_1_win_percent",
          "type": "uint8"
        },
        {
          "internalType": "uint8",
          "name": "team_2_win_percent",
          "type": "uint8"
        }
      ],
      "stateMutability": "view",
      "type": "function",
      "constant": true
    },
    {
      "inputs": [],
      "name": "owner",
      "outputs": [
        {
          "internalType": "address",
          "name": "",
          "type": "address"
        }
      ],
      "stateMutability": "view",
      "type": "function",
      "constant": true
    },
    {
      "inputs": [],
      "name": "sports_event_in_progress",
      "outputs": [
        {
          "internalType": "bool",
          "name": "",
          "type": "bool"
        }
      ],
      "stateMutability": "view",
      "type": "function",
      "constant": true
    },
    {
      "inputs": [],
      "name": "sports_events_set_initialized",
      "outputs": [
        {
          "internalType": "bool",
          "name": "",
          "type": "bool"
        }
      ],
      "stateMutability": "view",
      "type": "function",
      "constant": true
    },
    {
      "inputs": [
        {
          "internalType": "uint8",
          "name": "_id",
          "type": "uint8"
        }
      ],
      "name": "setCurrentSportsEventById",
      "outputs": [],
      "stateMutability": "nonpayable",
      "type": "function"
    },
    {
      "inputs": [],
      "name": "initializeSportsEvents",
      "outputs": [],
      "stateMutability": "nonpayable",
      "type": "function"
    },
    {
      "inputs": [],
      "name": "getSportsEventsCount",
      "outputs": [
        {
          "internalType": "uint256",
          "name": "",
          "type": "uint256"
        }
      ],
      "stateMutability": "view",
      "type": "function",
      "constant": true
    },
    {
      "inputs": [
        {
          "internalType": "uint8",
          "name": "_id",
          "type": "uint8"
        }
      ],
      "name": "getSportsEventById",
      "outputs": [
        {
          "internalType": "uint8",
          "name": "id",
          "type": "uint8"
        },
        {
          "internalType": "string",
          "name": "team_1_name",
          "type": "string"
        },
        {
          "internalType": "string",
          "name": "team_2_name",
          "type": "string"
        },
        {
          "internalType": "uint8",
          "name": "team_1_win_percent",
          "type": "uint8"
        },
        {
          "internalType": "uint8",
          "name": "team_2_win_percent",
          "type": "uint8"
        }
      ],
      "stateMutability": "view",
      "type": "function",
      "constant": true
    }
  ],
  "bytecode": "0x6080604052336000806101000a81548173ffffffffffffffffffffffffffffffffffffffff021916908373ffffffffffffffffffffffffffffffffffffffff1602179055506000600260006101000a81548160ff0219169083151502179055506000600760006101000a81548160ff02191690831515021790555034801561008657600080fd5b50611133806100966000396000f3fe608060405234801561001057600080fd5b50600436106100885760003560e01c8063ac0cbc7e1161005b578063ac0cbc7e14610109578063c918edb21461013d578063ca4eef371461015b578063e723431d1461016557610088565b806329ddcac01461008d57806377dcd064146100ab57806379adae7a146100c95780638da5cb5b146100eb575b600080fd5b610095610181565b6040516100a29190610e64565b60405180910390f35b6100b361021d565b6040516100c09190610e09565b60405180910390f35b6100d1610230565b6040516100e2959493929190610e7f565b60405180910390f35b6100f361038b565b6040516101009190610dee565b60405180910390f35b610123600480360381019061011e9190610d0a565b6103af565b604051610134959493929190610e7f565b60405180910390f35b6101456106c6565b6040516101529190610e09565b60405180910390f35b6101636106d9565b005b61017f600480360381019061017a9190610d0a565b610928565b005b60008060009054906101000a900473ffffffffffffffffffffffffffffffffffffffff1673ffffffffffffffffffffffffffffffffffffffff163373ffffffffffffffffffffffffffffffffffffffff1614610212576040517f08c379a000000000000000000000000000000000000000000000000000000000815260040161020990610e44565b60405180910390fd5b600180549050905090565b600760009054906101000a900460ff1681565b60038060000160009054906101000a900460ff169080600101805461025490610f84565b80601f016020809104026020016040519081016040528092919081815260200182805461028090610f84565b80156102cd5780601f106102a2576101008083540402835291602001916102cd565b820191906000526020600020905b8154815290600101906020018083116102b057829003601f168201915b5050505050908060020180546102e290610f84565b80601f016020809104026020016040519081016040528092919081815260200182805461030e90610f84565b801561035b5780601f106103305761010080835404028352916020019161035b565b820191906000526020600020905b81548152906001019060200180831161033e57829003601f168201915b5050505050908060030160009054906101000a900460ff16908060030160019054906101000a900460ff16905085565b60008054906101000a900473ffffffffffffffffffffffffffffffffffffffff1681565b600060608060008060008054906101000a900473ffffffffffffffffffffffffffffffffffffffff1673ffffffffffffffffffffffffffffffffffffffff163373ffffffffffffffffffffffffffffffffffffffff1614610445576040517f08c379a000000000000000000000000000000000000000000000000000000000815260040161043c90610e44565b60405180910390fd5b60005b600180549050811015610681576001818154811061048f577f4e487b7100000000000000000000000000000000000000000000000000000000600052603260045260246000fd5b906000526020600020906004020160000160009054906101000a900460ff1660ff168760ff16141561066e576000600182815481106104f7577f4e487b7100000000000000000000000000000000000000000000000000000000600052603260045260246000fd5b906000526020600020906004020190508060000160009054906101000a900460ff1681600101826002018360030160009054906101000a900460ff168460030160019054906101000a900460ff1683805461055190610f84565b80601f016020809104026020016040519081016040528092919081815260200182805461057d90610f84565b80156105ca5780601f1061059f576101008083540402835291602001916105ca565b820191906000526020600020905b8154815290600101906020018083116105ad57829003601f168201915b505050505093508280546105dd90610f84565b80601f016020809104026020016040519081016040528092919081815260200182805461060990610f84565b80156106565780601f1061062b57610100808354040283529160200191610656565b820191906000526020600020905b81548152906001019060200180831161063957829003601f168201915b505050505092509650965096509650965050506106bd565b808061067990610fb6565b915050610448565b506040517f08c379a00000000000000000000000000000000000000000000000000000000081526004016106b490610e24565b60405180910390fd5b91939590929450565b600260009054906101000a900460ff1681565b60008054906101000a900473ffffffffffffffffffffffffffffffffffffffff1673ffffffffffffffffffffffffffffffffffffffff163373ffffffffffffffffffffffffffffffffffffffff1614610767576040517f08c379a000000000000000000000000000000000000000000000000000000000815260040161075e90610e44565b60405180910390fd5b6001610771610ac6565b908060018154018082558091505060019003906000526020600020906004020160009091909190915060008201518160000160006101000a81548160ff021916908360ff16021790555060208201518160010190805190602001906107d7929190610c1a565b5060408201518160020190805190602001906107f4929190610c1a565b5060608201518160030160006101000a81548160ff021916908360ff16021790555060808201518160030160016101000a81548160ff021916908360ff16021790555050506001610843610b70565b908060018154018082558091505060019003906000526020600020906004020160009091909190915060008201518160000160006101000a81548160ff021916908360ff16021790555060208201518160010190805190602001906108a9929190610c1a565b5060408201518160020190805190602001906108c6929190610c1a565b5060608201518160030160006101000a81548160ff021916908360ff16021790555060808201518160030160016101000a81548160ff021916908360ff16021790555050506001600260006101000a81548160ff021916908315150217905550565b60008054906101000a900473ffffffffffffffffffffffffffffffffffffffff1673ffffffffffffffffffffffffffffffffffffffff163373ffffffffffffffffffffffffffffffffffffffff16146109b6576040517f08c379a00000000000000000000000000000000000000000000000000000000081526004016109ad90610e44565b60405180910390fd5b60008060008060006109c7866103af565b945094509450945094506040518060a001604052808660ff1681526020018581526020018481526020018360ff1681526020018260ff16815250600360008201518160000160006101000a81548160ff021916908360ff1602179055506020820151816001019080519060200190610a40929190610c1a565b506040820151816002019080519060200190610a5d929190610c1a565b5060608201518160030160006101000a81548160ff021916908360ff16021790555060808201518160030160016101000a81548160ff021916908360ff1602179055509050506001600760006101000a81548160ff021916908315150217905550505050505050565b610ace610ca0565b6040518060a00160405280600060ff1681526020016040518060400160405280600c81526020017f4643204c69766572706f6f6c000000000000000000000000000000000000000081525081526020016040518060400160405280600c81526020017f46432042617263656c6f6e6100000000000000000000000000000000000000008152508152602001604160ff168152602001600a60ff16815250905090565b610b78610ca0565b6040518060a00160405280600160ff1681526020016040518060400160405280600981526020017f46432042617965726e000000000000000000000000000000000000000000000081525081526020016040518060400160405280601281526020017f4643204d616e63686573746572204369747900000000000000000000000000008152508152602001601960ff168152602001602360ff16815250905090565b828054610c2690610f84565b90600052602060002090601f016020900481019282610c485760008555610c8f565b82601f10610c6157805160ff1916838001178555610c8f565b82800160010185558215610c8f579182015b82811115610c8e578251825591602001919060010190610c73565b5b509050610c9c9190610cd8565b5090565b6040518060a00160405280600060ff1681526020016060815260200160608152602001600060ff168152602001600060ff1681525090565b5b80821115610cf1576000816000905550600101610cd9565b5090565b600081359050610d04816110e6565b92915050565b600060208284031215610d1c57600080fd5b6000610d2a84828501610cf5565b91505092915050565b610d3c81610efc565b82525050565b610d4b81610f0e565b82525050565b6000610d5c82610ee0565b610d668185610eeb565b9350610d76818560208601610f51565b610d7f8161105d565b840191505092915050565b6000610d97601e83610eeb565b9150610da28261106e565b602082019050919050565b6000610dba603383610eeb565b9150610dc582611097565b604082019050919050565b610dd981610f3a565b82525050565b610de881610f44565b82525050565b6000602082019050610e036000830184610d33565b92915050565b6000602082019050610e1e6000830184610d42565b92915050565b60006020820190508181036000830152610e3d81610d8a565b9050919050565b60006020820190508181036000830152610e5d81610dad565b9050919050565b6000602082019050610e796000830184610dd0565b92915050565b600060a082019050610e946000830188610ddf565b8181036020830152610ea68187610d51565b90508181036040830152610eba8186610d51565b9050610ec96060830185610ddf565b610ed66080830184610ddf565b9695505050505050565b600081519050919050565b600082825260208201905092915050565b6000610f0782610f1a565b9050919050565b60008115159050919050565b600073ffffffffffffffffffffffffffffffffffffffff82169050919050565b6000819050919050565b600060ff82169050919050565b60005b83811015610f6f578082015181840152602081019050610f54565b83811115610f7e576000848401525b50505050565b60006002820490506001821680610f9c57607f821691505b60208210811415610fb057610faf61102e565b5b50919050565b6000610fc182610f3a565b91507fffffffffffffffffffffffffffffffffffffffffffffffffffffffffffffffff821415610ff457610ff3610fff565b5b600182019050919050565b7f4e487b7100000000000000000000000000000000000000000000000000000000600052601160045260246000fd5b7f4e487b7100000000000000000000000000000000000000000000000000000000600052602260045260246000fd5b6000601f19601f8301169050919050565b7f5468657265206973206e6f206576656e74207769746820746869732069640000600082015250565b7f546869732066756e6374696f6e206973207265737472696374656420746f207460008201527f686520636f6e74726163742773206f776e657200000000000000000000000000602082015250565b6110ef81610f44565b81146110fa57600080fd5b5056fea2646970667358221220bd39aa7fde05dfe49ee0caeaf7e9c15e966885eb54f3b6445358e7fc90144dc064736f6c63430008040033",
  "immutableReferences": {},
  "source": "pragma solidity >=0.4.22 <0.9.0;\n\n\nstruct SportsEvent {\n  uint8 id;\n  string team_1_name;\n  string team_2_name;\n  uint8 team_1_win_percent;\n  uint8 team_2_win_percent;\n}\n\n\ncontract GGbet {\n  address public owner = msg.sender;\n\n  SportsEvent[] private sports_events_set;\n  bool public sports_events_set_initialized = false;\n\n  SportsEvent public current_sports_event;\n  bool public sports_event_in_progress = false;\n\n  modifier restricted() {\n    require(\n      msg.sender == owner,\n      \"This function is restricted to the contract's owner\"\n    );\n    _;\n  }\n\n  /*\n    PUBLIC functions\n  */\n\n  function setCurrentSportsEventById(uint8 _id) public restricted {\n    (\n      uint8 id,\n      string memory team_1_name,\n      string memory team_2_name,\n      uint8 team_1_win_percent,\n      uint8 team_2_win_percent\n    ) = getSportsEventById(_id);\n\n    current_sports_event = SportsEvent({\n      id: id,\n      team_1_name: team_1_name,\n      team_2_name: team_2_name,\n      team_1_win_percent: team_1_win_percent,\n      team_2_win_percent: team_2_win_percent\n    });\n    sports_event_in_progress = true;\n  }\n\n  function initializeSportsEvents() public restricted {\n    sports_events_set.push(getLfcVsBarcaEvent());\n    sports_events_set.push(getBayernVsMancityEvent());\n\n    sports_events_set_initialized = true;\n  }\n\n  function getSportsEventsCount() public view restricted returns (uint) {\n    return sports_events_set.length;\n  }\n\n  function getSportsEventById(uint8 _id)\n    public\n    view\n    restricted\n    returns (\n      uint8 id,\n      string memory team_1_name,\n      string memory team_2_name,\n      uint8 team_1_win_percent,\n      uint8 team_2_win_percent\n    )\n  {\n    for(uint i = 0; i < sports_events_set.length; i++) {\n      if (_id == sports_events_set[i].id) {\n        SportsEvent storage temp = sports_events_set[i]; // reference, no copy. just for brevity\n\n        return (\n          temp.id,\n          temp.team_1_name,\n          temp.team_2_name,\n          temp.team_1_win_percent,\n          temp.team_2_win_percent\n        );\n      }\n    }\n\n    revert(\"There is no event with this id\");\n  }\n\n  /*\n    PRIVATE functions\n  */\n\n  function getLfcVsBarcaEvent() private pure returns (SportsEvent memory) {\n    return SportsEvent({\n      id: 0,\n      team_1_name : 'FC Liverpool',\n      team_2_name : 'FC Barcelona',\n      team_1_win_percent: 65,\n      team_2_win_percent: 10\n    });\n  }\n\n  function getBayernVsMancityEvent() private pure returns (SportsEvent memory) {\n    return SportsEvent({\n      id: 1,\n      team_1_name : 'FC Bayern',\n      team_2_name : 'FC Manchester City',\n      team_1_win_percent: 25,\n      team_2_win_percent: 35\n    });\n  }\n}\n",
  "sourcePath": "/home/ivannn/Projects/BookmakerDAPP/bookmaker-dapp/contracts/GGbet.sol",
  "compiler": {
    "name": "solc",
    "version": "0.8.4+commit.c7e474f2.Emscripten.clang"
  },
  "schemaVersion": "3.4.3",
  "updatedAt": "2022-01-11T09:41:50.452Z",
  "networkType": "ethereum",
  "devdoc": {
    "kind": "dev",
    "methods": {},
    "version": 1
  },
  "userdoc": {
    "kind": "user",
    "methods": {},
    "version": 1
  }
}