{
  "contractName": "GGbet",
  "abi": [
    {
      "inputs": [],
      "stateMutability": "nonpayable",
      "type": "constructor"
    },
    {
      "anonymous": false,
      "inputs": [
        {
          "indexed": false,
          "internalType": "address",
          "name": "",
          "type": "address"
        },
        {
          "indexed": false,
          "internalType": "uint256",
          "name": "",
          "type": "uint256"
        }
      ],
      "name": "Received",
      "type": "event"
    },
    {
      "inputs": [],
      "name": "current_sports_event",
      "outputs": [
        {
          "internalType": "uint8",
          "name": "id",
          "type": "uint8"
        },
        {
          "internalType": "string",
          "name": "team_1_name",
          "type": "string"
        },
        {
          "internalType": "string",
          "name": "team_2_name",
          "type": "string"
        },
        {
          "internalType": "string",
          "name": "team_1_logo",
          "type": "string"
        },
        {
          "internalType": "string",
          "name": "team_2_logo",
          "type": "string"
        },
        {
          "internalType": "uint8",
          "name": "team_1_win_percent",
          "type": "uint8"
        },
        {
          "internalType": "uint8",
          "name": "team_2_win_percent",
          "type": "uint8"
        }
      ],
      "stateMutability": "view",
      "type": "function"
    },
    {
      "inputs": [],
      "name": "min_bet",
      "outputs": [
        {
          "internalType": "uint256",
          "name": "",
          "type": "uint256"
        }
      ],
      "stateMutability": "view",
      "type": "function"
    },
    {
      "inputs": [],
      "name": "owner",
      "outputs": [
        {
          "internalType": "address",
          "name": "",
          "type": "address"
        }
      ],
      "stateMutability": "view",
      "type": "function"
    },
    {
      "inputs": [],
      "name": "sports_event_in_progress",
      "outputs": [
        {
          "internalType": "bool",
          "name": "",
          "type": "bool"
        }
      ],
      "stateMutability": "view",
      "type": "function"
    },
    {
      "stateMutability": "payable",
      "type": "receive"
    },
    {
      "inputs": [
        {
          "internalType": "uint8",
          "name": "_id",
          "type": "uint8"
        }
      ],
      "name": "setCurrentSportsEventById",
      "outputs": [],
      "stateMutability": "nonpayable",
      "type": "function"
    },
    {
      "inputs": [],
      "name": "getSportsEventsCount",
      "outputs": [
        {
          "internalType": "uint256",
          "name": "",
          "type": "uint256"
        }
      ],
      "stateMutability": "view",
      "type": "function"
    },
    {
      "inputs": [
        {
          "internalType": "uint8",
          "name": "_id",
          "type": "uint8"
        }
      ],
      "name": "getSportsEventById",
      "outputs": [
        {
          "internalType": "uint8",
          "name": "id",
          "type": "uint8"
        },
        {
          "internalType": "string",
          "name": "team_1_name",
          "type": "string"
        },
        {
          "internalType": "string",
          "name": "team_2_name",
          "type": "string"
        },
        {
          "internalType": "string",
          "name": "team_1_logo",
          "type": "string"
        },
        {
          "internalType": "string",
          "name": "team_2_logo",
          "type": "string"
        },
        {
          "internalType": "uint8",
          "name": "team_1_win_percent",
          "type": "uint8"
        },
        {
          "internalType": "uint8",
          "name": "team_2_win_percent",
          "type": "uint8"
        }
      ],
      "stateMutability": "view",
      "type": "function"
    },
    {
      "inputs": [],
      "name": "betOnTeam1",
      "outputs": [],
      "stateMutability": "payable",
      "type": "function"
    },
    {
      "inputs": [],
      "name": "betOnDraw",
      "outputs": [],
      "stateMutability": "payable",
      "type": "function"
    },
    {
      "inputs": [],
      "name": "betOnTeam2",
      "outputs": [],
      "stateMutability": "payable",
      "type": "function"
    },
    {
      "inputs": [],
      "name": "getUserBet",
      "outputs": [
        {
          "internalType": "uint256",
          "name": "bet",
          "type": "uint256"
        },
        {
          "internalType": "string",
          "name": "outcome",
          "type": "string"
        }
      ],
      "stateMutability": "view",
      "type": "function"
    }
  ],
  "bytecode": "0x6080604052336000806101000a81548173ffffffffffffffffffffffffffffffffffffffff021916908373ffffffffffffffffffffffffffffffffffffffff1602179055506000600860006101000a81548160ff021916908315150217905550660110d9316ec0006009553480156200007757600080fd5b50620000886200008e60201b60201c565b620005f7565b6001620000a0620002c860201b60201c565b908060018154018082558091505060019003906000526020600020906006020160009091909190915060008201518160000160006101000a81548160ff021916908360ff1602179055506020820151816001019080519060200190620001089291906200049c565b506040820151816002019080519060200190620001279291906200049c565b506060820151816003019080519060200190620001469291906200049c565b506080820151816004019080519060200190620001659291906200049c565b5060a08201518160050160006101000a81548160ff021916908360ff16021790555060c08201518160050160016101000a81548160ff021916908360ff16021790555050506001620001bc620003b260201b60201c565b908060018154018082558091505060019003906000526020600020906006020160009091909190915060008201518160000160006101000a81548160ff021916908360ff1602179055506020820151816001019080519060200190620002249291906200049c565b506040820151816002019080519060200190620002439291906200049c565b506060820151816003019080519060200190620002629291906200049c565b506080820151816004019080519060200190620002819291906200049c565b5060a08201518160050160006101000a81548160ff021916908360ff16021790555060c08201518160050160016101000a81548160ff021916908360ff1602179055505050565b620002d26200052d565b6040518060e00160405280600060ff1681526020016040518060400160405280600c81526020017f4643204c69766572706f6f6c000000000000000000000000000000000000000081525081526020016040518060400160405280600c81526020017f46432042617263656c6f6e61000000000000000000000000000000000000000081525081526020016040518060800160405280604d815260200162001e8f604d913981526020016040518060800160405280604d815260200162001da8604d91398152602001604160ff168152602001600a60ff16815250905090565b620003bc6200052d565b6040518060e00160405280600160ff1681526020016040518060400160405280600981526020017f46432042617965726e000000000000000000000000000000000000000000000081525081526020016040518060400160405280601281526020017f4643204d616e636865737465722043697479000000000000000000000000000081525081526020016040518060800160405280604d815260200162001df5604d913981526020016040518060800160405280604d815260200162001e42604d91398152602001601960ff168152602001602360ff16815250905090565b828054620004aa9062000592565b90600052602060002090601f016020900481019282620004ce57600085556200051a565b82601f10620004e957805160ff19168380011785556200051a565b828001600101855582156200051a579182015b8281111562000519578251825591602001919060010190620004fc565b5b50905062000529919062000573565b5090565b6040518060e00160405280600060ff16815260200160608152602001606081526020016060815260200160608152602001600060ff168152602001600060ff1681525090565b5b808211156200058e57600081600090555060010162000574565b5090565b60006002820490506001821680620005ab57607f821691505b60208210811415620005c257620005c1620005c8565b5b50919050565b7f4e487b7100000000000000000000000000000000000000000000000000000000600052602260045260246000fd5b6117a180620006076000396000f3fe6080604052600436106100a05760003560e01c80638da5cb5b116100645780638da5cb5b146101a2578063ac0cbc7e146101cd578063bf23585814610210578063ca53135a1461021a578063d3f082e714610245578063e723431d1461024f576100e0565b80630ed3c55d146100e557806329ddcac0146100ef57806377dcd0641461011a57806379adae7a1461014557806381a2824f14610176576100e0565b366100e0577f88a5966d370b9919b20f3e2c13ff65706f196a4e32cc2c12bf57088f8852587433346040516100d6929190611319565b60405180910390a1005b600080fd5b6100ed610278565b005b3480156100fb57600080fd5b5061010461035a565b60405161011191906113fd565b60405180910390f35b34801561012657600080fd5b5061012f6103f6565b60405161013c9190611342565b60405180910390f35b34801561015157600080fd5b5061015a610409565b60405161016d9796959493929190611448565b60405180910390f35b34801561018257600080fd5b5061018b610680565b604051610199929190611418565b60405180910390f35b3480156101ae57600080fd5b506101b761088b565b6040516101c491906112fe565b60405180910390f35b3480156101d957600080fd5b506101f460048036038101906101ef91906111b1565b6108af565b6040516102079796959493929190611448565b60405180910390f35b610218610cef565b005b34801561022657600080fd5b5061022f610dd1565b60405161023c91906113fd565b60405180910390f35b61024d610dd7565b005b34801561025b57600080fd5b50610276600480360381019061027191906111b1565b610eb9565b005b600860009054906101000a900460ff166102c7576040517f08c379a00000000000000000000000000000000000000000000000000000000081526004016102be9061137d565b60405180910390fd5b60095434101561030c576040517f08c379a00000000000000000000000000000000000000000000000000000000081526004016103039061139d565b60405180910390fd5b6103146110a6565b34600c60003373ffffffffffffffffffffffffffffffffffffffff1673ffffffffffffffffffffffffffffffffffffffff16815260200190815260200160002081905550565b60008060009054906101000a900473ffffffffffffffffffffffffffffffffffffffff1673ffffffffffffffffffffffffffffffffffffffff163373ffffffffffffffffffffffffffffffffffffffff16146103eb576040517f08c379a00000000000000000000000000000000000000000000000000000000081526004016103e2906113dd565b60405180910390fd5b600180549050905090565b600860009054906101000a900460ff1681565b60028060000160009054906101000a900460ff169080600101805461042d90611577565b80601f016020809104026020016040519081016040528092919081815260200182805461045990611577565b80156104a65780601f1061047b576101008083540402835291602001916104a6565b820191906000526020600020905b81548152906001019060200180831161048957829003601f168201915b5050505050908060020180546104bb90611577565b80601f01602080910402602001604051908101604052809291908181526020018280546104e790611577565b80156105345780601f1061050957610100808354040283529160200191610534565b820191906000526020600020905b81548152906001019060200180831161051757829003601f168201915b50505050509080600301805461054990611577565b80601f016020809104026020016040519081016040528092919081815260200182805461057590611577565b80156105c25780601f10610597576101008083540402835291602001916105c2565b820191906000526020600020905b8154815290600101906020018083116105a557829003601f168201915b5050505050908060040180546105d790611577565b80601f016020809104026020016040519081016040528092919081815260200182805461060390611577565b80156106505780601f1061062557610100808354040283529160200191610650565b820191906000526020600020905b81548152906001019060200180831161063357829003601f168201915b5050505050908060050160009054906101000a900460ff16908060050160019054906101000a900460ff16905087565b60006060600860009054906101000a900460ff166106d3576040517f08c379a00000000000000000000000000000000000000000000000000000000081526004016106ca9061137d565b60405180910390fd5b6000600a60003373ffffffffffffffffffffffffffffffffffffffff1673ffffffffffffffffffffffffffffffffffffffff1681526020019081526020016000205490506000600b60003373ffffffffffffffffffffffffffffffffffffffff1673ffffffffffffffffffffffffffffffffffffffff1681526020019081526020016000205490506000600c60003373ffffffffffffffffffffffffffffffffffffffff1673ffffffffffffffffffffffffffffffffffffffff1681526020019081526020016000205490506000606060095485106107ec578491506040518060400160405280600681526020017f7465616d5f310000000000000000000000000000000000000000000000000000815250905061087c565b6009548410610835578391506040518060400160405280600481526020017f6472617700000000000000000000000000000000000000000000000000000000815250905061087b565b600954831061087a578291506040518060400160405280600681526020017f7465616d5f32000000000000000000000000000000000000000000000000000081525090505b5b5b81819650965050505050509091565b60008054906101000a900473ffffffffffffffffffffffffffffffffffffffff1681565b600060608060608060008060008054906101000a900473ffffffffffffffffffffffffffffffffffffffff1673ffffffffffffffffffffffffffffffffffffffff163373ffffffffffffffffffffffffffffffffffffffff1614610948576040517f08c379a000000000000000000000000000000000000000000000000000000000815260040161093f906113dd565b60405180910390fd5b60005b600180549050811015610ca85760018181548110610992577f4e487b7100000000000000000000000000000000000000000000000000000000600052603260045260246000fd5b906000526020600020906006020160000160009054906101000a900460ff1660ff168960ff161415610c95576000600182815481106109fa577f4e487b7100000000000000000000000000000000000000000000000000000000600052603260045260246000fd5b906000526020600020906006020190508060000160009054906101000a900460ff16816001018260020183600301846004018560050160009054906101000a900460ff168660050160019054906101000a900460ff16858054610a5c90611577565b80601f0160208091040260200160405190810160405280929190818152602001828054610a8890611577565b8015610ad55780601f10610aaa57610100808354040283529160200191610ad5565b820191906000526020600020905b815481529060010190602001808311610ab857829003601f168201915b50505050509550848054610ae890611577565b80601f0160208091040260200160405190810160405280929190818152602001828054610b1490611577565b8015610b615780601f10610b3657610100808354040283529160200191610b61565b820191906000526020600020905b815481529060010190602001808311610b4457829003601f168201915b50505050509450838054610b7490611577565b80601f0160208091040260200160405190810160405280929190818152602001828054610ba090611577565b8015610bed5780601f10610bc257610100808354040283529160200191610bed565b820191906000526020600020905b815481529060010190602001808311610bd057829003601f168201915b50505050509350828054610c0090611577565b80601f0160208091040260200160405190810160405280929190818152602001828054610c2c90611577565b8015610c795780601f10610c4e57610100808354040283529160200191610c79565b820191906000526020600020905b815481529060010190602001808311610c5c57829003601f168201915b5050505050925098509850985098509850985098505050610ce4565b8080610ca0906115a9565b91505061094b565b506040517f08c379a0000000000000000000000000000000000000000000000000000000008152600401610cdb9061135d565b60405180910390fd5b919395979092949650565b600860009054906101000a900460ff16610d3e576040517f08c379a0000000000000000000000000000000000000000000000000000000008152600401610d359061137d565b60405180910390fd5b600954341015610d83576040517f08c379a0000000000000000000000000000000000000000000000000000000008152600401610d7a9061139d565b60405180910390fd5b610d8b6110a6565b34600b60003373ffffffffffffffffffffffffffffffffffffffff1673ffffffffffffffffffffffffffffffffffffffff16815260200190815260200160002081905550565b60095481565b600860009054906101000a900460ff16610e26576040517f08c379a0000000000000000000000000000000000000000000000000000000008152600401610e1d9061137d565b60405180910390fd5b600954341015610e6b576040517f08c379a0000000000000000000000000000000000000000000000000000000008152600401610e629061139d565b60405180910390fd5b610e736110a6565b34600a60003373ffffffffffffffffffffffffffffffffffffffff1673ffffffffffffffffffffffffffffffffffffffff16815260200190815260200160002081905550565b60008054906101000a900473ffffffffffffffffffffffffffffffffffffffff1673ffffffffffffffffffffffffffffffffffffffff163373ffffffffffffffffffffffffffffffffffffffff1614610f47576040517f08c379a0000000000000000000000000000000000000000000000000000000008152600401610f3e906113dd565b60405180910390fd5b6000806000806000806000610f5b886108af565b96509650965096509650965096506040518060e001604052808860ff1681526020018781526020018681526020018581526020018481526020018360ff1681526020018260ff16815250600260008201518160000160006101000a81548160ff021916908360ff1602179055506020820151816001019080519060200190610fe49291906110f9565b5060408201518160020190805190602001906110019291906110f9565b50606082015181600301908051906020019061101e9291906110f9565b50608082015181600401908051906020019061103b9291906110f9565b5060a08201518160050160006101000a81548160ff021916908360ff16021790555060c08201518160050160016101000a81548160ff021916908360ff1602179055509050506001600860006101000a81548160ff0219169083151502179055505050505050505050565b60006110b0610680565b509050600081146110f6576040517f08c379a00000000000000000000000000000000000000000000000000000000081526004016110ed906113bd565b60405180910390fd5b50565b82805461110590611577565b90600052602060002090601f016020900481019282611127576000855561116e565b82601f1061114057805160ff191683800117855561116e565b8280016001018555821561116e579182015b8281111561116d578251825591602001919060010190611152565b5b50905061117b919061117f565b5090565b5b80821115611198576000816000905550600101611180565b5090565b6000813590506111ab81611754565b92915050565b6000602082840312156111c357600080fd5b60006111d18482850161119c565b91505092915050565b6111e3816114ef565b82525050565b6111f281611501565b82525050565b6000611203826114d3565b61120d81856114de565b935061121d818560208601611544565b61122681611650565b840191505092915050565b600061123e601e836114de565b915061124982611661565b602082019050919050565b6000611261601c836114de565b915061126c8261168a565b602082019050919050565b60006112846019836114de565b915061128f826116b3565b602082019050919050565b60006112a76020836114de565b91506112b2826116dc565b602082019050919050565b60006112ca6033836114de565b91506112d582611705565b604082019050919050565b6112e98161152d565b82525050565b6112f881611537565b82525050565b600060208201905061131360008301846111da565b92915050565b600060408201905061132e60008301856111da565b61133b60208301846112e0565b9392505050565b600060208201905061135760008301846111e9565b92915050565b6000602082019050818103600083015261137681611231565b9050919050565b6000602082019050818103600083015261139681611254565b9050919050565b600060208201905081810360008301526113b681611277565b9050919050565b600060208201905081810360008301526113d68161129a565b9050919050565b600060208201905081810360008301526113f6816112bd565b9050919050565b600060208201905061141260008301846112e0565b92915050565b600060408201905061142d60008301856112e0565b818103602083015261143f81846111f8565b90509392505050565b600060e08201905061145d600083018a6112ef565b818103602083015261146f81896111f8565b9050818103604083015261148381886111f8565b9050818103606083015261149781876111f8565b905081810360808301526114ab81866111f8565b90506114ba60a08301856112ef565b6114c760c08301846112ef565b98975050505050505050565b600081519050919050565b600082825260208201905092915050565b60006114fa8261150d565b9050919050565b60008115159050919050565b600073ffffffffffffffffffffffffffffffffffffffff82169050919050565b6000819050919050565b600060ff82169050919050565b60005b83811015611562578082015181840152602081019050611547565b83811115611571576000848401525b50505050565b6000600282049050600182168061158f57607f821691505b602082108114156115a3576115a2611621565b5b50919050565b60006115b48261152d565b91507fffffffffffffffffffffffffffffffffffffffffffffffffffffffffffffffff8214156115e7576115e66115f2565b5b600182019050919050565b7f4e487b7100000000000000000000000000000000000000000000000000000000600052601160045260246000fd5b7f4e487b7100000000000000000000000000000000000000000000000000000000600052602260045260246000fd5b6000601f19601f8301169050919050565b7f5468657265206973206e6f206576656e74207769746820746869732069640000600082015250565b7f43757272656e742073706f727473206576656e74206973206f76657200000000600082015250565b7f4d696e696d616c2062657420697320302e303030332045544800000000000000600082015250565b7f5468697320757365722068617320616c7265616479206d616b65206120626574600082015250565b7f546869732066756e6374696f6e206973207265737472696374656420746f207460008201527f686520636f6e74726163742773206f776e657200000000000000000000000000602082015250565b61175d81611537565b811461176857600080fd5b5056fea2646970667358221220574d4353b6cc1de2237e5b61c3d91fb73ee31b2dea48c034601b224c2abd404f64736f6c634300080400332f2f73746f726167652e6d64732e79616e6465782e6e65742f6765742d73706f72742f36393630332f39323838633936303439386632353365313536313065343064373331653731662e706e672f2f73746f726167652e6d64732e79616e6465782e6e65742f6765742d73706f72742f36373338392f64616264323836333133353531393836653466396537393466353031623732652e706e672f2f73746f726167652e6d64732e79616e6465782e6e65742f6765742d73706f72742f36373338392f36366539336365346431656231363634333836346633663331316433656638332e706e672f2f73746f726167652e6d64732e79616e6465782e6e65742f6765742d73706f72742f31303439332f61316637326432353937613231383430353236373666376138636263643538632e706e67",
  "immutableReferences": {},
  "source": "pragma solidity >=0.8.0 <0.9.0;\n\n\nstruct SportsEvent {\n  uint8 id;\n  string team_1_name;\n  string team_2_name;\n  string team_1_logo;\n  string team_2_logo;\n  uint8 team_1_win_percent;\n  uint8 team_2_win_percent;\n}\n\n\ncontract GGbet {\n  address public owner = msg.sender;\n\n  SportsEvent[] private sports_events_set;\n  SportsEvent public current_sports_event;\n  bool public sports_event_in_progress = false;\n\n  uint public min_bet = 300000000000000; // 0.0003 eth;\n  mapping(address => uint) private team_1_bets;\n  mapping(address => uint) private draw_bets;\n  mapping(address => uint) private team_2_bets;\n\n  constructor() {\n    initializeSportsEvents();\n  }\n\n  modifier restricted() {\n    require(\n      msg.sender == owner,\n      \"This function is restricted to the contract's owner\"\n    );\n    _;\n  }\n\n  event Received(address, uint);\n\n  receive() external payable {\n    emit Received(msg.sender, msg.value);\n  }\n\n  /*\n    PUBLIC functions\n  */\n\n  function setCurrentSportsEventById(uint8 _id) public restricted {\n    (\n      uint8 id,\n      string memory team_1_name,\n      string memory team_2_name,\n      string memory team_1_logo,\n      string memory team_2_logo,\n      uint8 team_1_win_percent,\n      uint8 team_2_win_percent\n    ) = getSportsEventById(_id);\n\n    current_sports_event = SportsEvent({\n      id: id,\n      team_1_name: team_1_name,\n      team_2_name: team_2_name,\n      team_1_logo: team_1_logo,\n      team_2_logo: team_2_logo,\n      team_1_win_percent: team_1_win_percent,\n      team_2_win_percent: team_2_win_percent\n    });\n    sports_event_in_progress = true;\n  }\n\n  function initializeSportsEvents() private {\n    sports_events_set.push(getLfcVsBarcaEvent());\n    sports_events_set.push(getBayernVsMancityEvent());\n  }\n\n  function getSportsEventsCount() public view restricted returns (uint) {\n    return sports_events_set.length;\n  }\n\n  function getSportsEventById(uint8 _id)\n    public\n    view\n    restricted\n    returns (\n      uint8 id,\n      string memory team_1_name,\n      string memory team_2_name,\n      string memory team_1_logo,\n      string memory team_2_logo,\n      uint8 team_1_win_percent,\n      uint8 team_2_win_percent\n    )\n  {\n    for(uint i = 0; i < sports_events_set.length; i++) {\n      if (_id == sports_events_set[i].id) {\n        SportsEvent storage temp = sports_events_set[i]; // reference, no copy. just for brevity\n\n        return (\n          temp.id,\n          temp.team_1_name,\n          temp.team_2_name,\n          temp.team_1_logo,\n          temp.team_2_logo,\n          temp.team_1_win_percent,\n          temp.team_2_win_percent\n        );\n      }\n    }\n\n    revert(\"There is no event with this id\");\n  }\n\n  function betOnTeam1() public payable {\n    require(sports_event_in_progress, 'Current sports event is over');\n    require(msg.value >= min_bet, 'Minimal bet is 0.0003 ETH');\n    requireUserHasNoActiveBets();\n\n    team_1_bets[msg.sender] = msg.value;\n  }\n\n  function betOnDraw() public payable {\n    require(sports_event_in_progress, 'Current sports event is over');\n    require(msg.value >= min_bet, 'Minimal bet is 0.0003 ETH');\n    requireUserHasNoActiveBets();\n\n    draw_bets[msg.sender] = msg.value;\n  }\n\n  function betOnTeam2() public payable {\n    require(sports_event_in_progress, 'Current sports event is over');\n    require(msg.value >= min_bet, 'Minimal bet is 0.0003 ETH');\n    requireUserHasNoActiveBets();\n\n    team_2_bets[msg.sender] = msg.value;\n  }\n\n  function getUserBet() public view returns(uint bet, string memory outcome) {\n    require(sports_event_in_progress, 'Current sports event is over');\n    uint team_1_bet = team_1_bets[msg.sender];\n    uint draw_bet = draw_bets[msg.sender];\n    uint team_2_bet = team_2_bets[msg.sender];\n    uint _bet = 0;\n    string memory _outcome;\n\n    if (team_1_bet >= min_bet) {\n      _bet = team_1_bet;\n      _outcome = 'team_1';\n    }\n    else if (draw_bet >= min_bet) {\n      _bet = draw_bet;\n      _outcome = 'draw';\n    }\n    else if (team_2_bet >= min_bet) {\n      _bet = team_2_bet;\n      _outcome = 'team_2';\n    }\n\n    return (_bet, _outcome);\n  }\n\n  /*\n    PRIVATE functions\n  */\n\n  function getLfcVsBarcaEvent() private pure returns (SportsEvent memory) {\n    return SportsEvent({\n      id: 0,\n      team_1_name : 'FC Liverpool',\n      team_2_name : 'FC Barcelona',\n      team_1_logo: '//storage.mds.yandex.net/get-sport/10493/a1f72d2597a2184052676f7a8cbcd58c.png',\n      team_2_logo: '//storage.mds.yandex.net/get-sport/69603/9288c960498f253e15610e40d731e71f.png',\n      team_1_win_percent: 65,\n      team_2_win_percent: 10\n    });\n  }\n\n  function getBayernVsMancityEvent() private pure returns (SportsEvent memory) {\n    return SportsEvent({\n      id: 1,\n      team_1_name : 'FC Bayern',\n      team_2_name : 'FC Manchester City',\n      team_1_logo: '//storage.mds.yandex.net/get-sport/67389/dabd286313551986e4f9e794f501b72e.png',\n      team_2_logo: '//storage.mds.yandex.net/get-sport/67389/66e93ce4d1eb16643864f3f311d3ef83.png',\n      team_1_win_percent: 25,\n      team_2_win_percent: 35\n    });\n  }\n\n  function requireUserHasNoActiveBets() private view {\n    (uint bet,) = getUserBet();\n\n    require(bet == 0, 'This user has already make a bet');\n  }\n}\n",
  "sourcePath": "/home/ivannn/Projects/BookmakerDAPP/bookmaker-dapp/contracts/GGbet.sol",
  "compiler": {
    "name": "solc",
    "version": "0.8.4+commit.c7e474f2.Emscripten.clang"
  },
  "schemaVersion": "3.2.3",
  "updatedAt": "2022-01-21T10:27:56.086Z",
  "devdoc": {
    "kind": "dev",
    "methods": {},
    "version": 1
  },
  "userdoc": {
    "kind": "user",
    "methods": {},
    "version": 1
  }
}