{
  "contractName": "GGbet",
  "abi": [
    {
      "inputs": [],
      "stateMutability": "nonpayable",
      "type": "constructor"
    },
    {
      "inputs": [],
      "name": "current_sports_event",
      "outputs": [
        {
          "internalType": "uint8",
          "name": "id",
          "type": "uint8"
        },
        {
          "internalType": "string",
          "name": "team_1_name",
          "type": "string"
        },
        {
          "internalType": "string",
          "name": "team_2_name",
          "type": "string"
        },
        {
          "internalType": "uint8",
          "name": "team_1_win_percent",
          "type": "uint8"
        },
        {
          "internalType": "uint8",
          "name": "team_2_win_percent",
          "type": "uint8"
        }
      ],
      "stateMutability": "view",
      "type": "function",
      "constant": true
    },
    {
      "inputs": [],
      "name": "owner",
      "outputs": [
        {
          "internalType": "address",
          "name": "",
          "type": "address"
        }
      ],
      "stateMutability": "view",
      "type": "function",
      "constant": true
    },
    {
      "inputs": [],
      "name": "sports_event_in_progress",
      "outputs": [
        {
          "internalType": "bool",
          "name": "",
          "type": "bool"
        }
      ],
      "stateMutability": "view",
      "type": "function",
      "constant": true
    },
    {
      "inputs": [
        {
          "internalType": "uint8",
          "name": "_id",
          "type": "uint8"
        }
      ],
      "name": "setCurrentSportsEventById",
      "outputs": [],
      "stateMutability": "nonpayable",
      "type": "function"
    },
    {
      "inputs": [],
      "name": "getSportsEventsCount",
      "outputs": [
        {
          "internalType": "uint256",
          "name": "",
          "type": "uint256"
        }
      ],
      "stateMutability": "view",
      "type": "function",
      "constant": true
    },
    {
      "inputs": [
        {
          "internalType": "uint8",
          "name": "_id",
          "type": "uint8"
        }
      ],
      "name": "getSportsEventById",
      "outputs": [
        {
          "internalType": "uint8",
          "name": "id",
          "type": "uint8"
        },
        {
          "internalType": "string",
          "name": "team_1_name",
          "type": "string"
        },
        {
          "internalType": "string",
          "name": "team_2_name",
          "type": "string"
        },
        {
          "internalType": "uint8",
          "name": "team_1_win_percent",
          "type": "uint8"
        },
        {
          "internalType": "uint8",
          "name": "team_2_win_percent",
          "type": "uint8"
        }
      ],
      "stateMutability": "view",
      "type": "function",
      "constant": true
    }
  ],
  "bytecode": "0x6080604052336000806101000a81548173ffffffffffffffffffffffffffffffffffffffff021916908373ffffffffffffffffffffffffffffffffffffffff1602179055506000600660006101000a81548160ff0219169083151502179055503480156200006c57600080fd5b506200007d6200008360201b60201c565b620004e6565b6001620000956200024160201b60201c565b908060018154018082558091505060019003906000526020600020906004020160009091909190915060008201518160000160006101000a81548160ff021916908360ff1602179055506020820151816001019080519060200190620000fd92919062000399565b5060408201518160020190805190602001906200011c92919062000399565b5060608201518160030160006101000a81548160ff021916908360ff16021790555060808201518160030160016101000a81548160ff021916908360ff1602179055505050600162000173620002ed60201b60201c565b908060018154018082558091505060019003906000526020600020906004020160009091909190915060008201518160000160006101000a81548160ff021916908360ff1602179055506020820151816001019080519060200190620001db92919062000399565b506040820151816002019080519060200190620001fa92919062000399565b5060608201518160030160006101000a81548160ff021916908360ff16021790555060808201518160030160016101000a81548160ff021916908360ff1602179055505050565b6200024b6200042a565b6040518060a00160405280600060ff1681526020016040518060400160405280600c81526020017f4643204c69766572706f6f6c000000000000000000000000000000000000000081525081526020016040518060400160405280600c81526020017f46432042617263656c6f6e6100000000000000000000000000000000000000008152508152602001604160ff168152602001600a60ff16815250905090565b620002f76200042a565b6040518060a00160405280600160ff1681526020016040518060400160405280600981526020017f46432042617965726e000000000000000000000000000000000000000000000081525081526020016040518060400160405280601281526020017f4643204d616e63686573746572204369747900000000000000000000000000008152508152602001601960ff168152602001602360ff16815250905090565b828054620003a79062000481565b90600052602060002090601f016020900481019282620003cb576000855562000417565b82601f10620003e657805160ff191683800117855562000417565b8280016001018555821562000417579182015b8281111562000416578251825591602001919060010190620003f9565b5b50905062000426919062000462565b5090565b6040518060a00160405280600060ff1681526020016060815260200160608152602001600060ff168152602001600060ff1681525090565b5b808211156200047d57600081600090555060010162000463565b5090565b600060028204905060018216806200049a57607f821691505b60208210811415620004b157620004b0620004b7565b5b50919050565b7f4e487b7100000000000000000000000000000000000000000000000000000000600052602260045260246000fd5b610cf780620004f66000396000f3fe608060405234801561001057600080fd5b50600436106100625760003560e01c806329ddcac01461006757806377dcd0641461008557806379adae7a146100a35780638da5cb5b146100c5578063ac0cbc7e146100e3578063e723431d14610117575b600080fd5b61006f610133565b60405161007c9190610a28565b60405180910390f35b61008d6101cf565b60405161009a91906109cd565b60405180910390f35b6100ab6101e2565b6040516100bc959493929190610a43565b60405180910390f35b6100cd61033d565b6040516100da91906109b2565b60405180910390f35b6100fd60048036038101906100f891906108ce565b610361565b60405161010e959493929190610a43565b60405180910390f35b610131600480360381019061012c91906108ce565b610678565b005b60008060009054906101000a900473ffffffffffffffffffffffffffffffffffffffff1673ffffffffffffffffffffffffffffffffffffffff163373ffffffffffffffffffffffffffffffffffffffff16146101c4576040517f08c379a00000000000000000000000000000000000000000000000000000000081526004016101bb90610a08565b60405180910390fd5b600180549050905090565b600660009054906101000a900460ff1681565b60028060000160009054906101000a900460ff169080600101805461020690610b48565b80601f016020809104026020016040519081016040528092919081815260200182805461023290610b48565b801561027f5780601f106102545761010080835404028352916020019161027f565b820191906000526020600020905b81548152906001019060200180831161026257829003601f168201915b50505050509080600201805461029490610b48565b80601f01602080910402602001604051908101604052809291908181526020018280546102c090610b48565b801561030d5780601f106102e25761010080835404028352916020019161030d565b820191906000526020600020905b8154815290600101906020018083116102f057829003601f168201915b5050505050908060030160009054906101000a900460ff16908060030160019054906101000a900460ff16905085565b60008054906101000a900473ffffffffffffffffffffffffffffffffffffffff1681565b600060608060008060008054906101000a900473ffffffffffffffffffffffffffffffffffffffff1673ffffffffffffffffffffffffffffffffffffffff163373ffffffffffffffffffffffffffffffffffffffff16146103f7576040517f08c379a00000000000000000000000000000000000000000000000000000000081526004016103ee90610a08565b60405180910390fd5b60005b6001805490508110156106335760018181548110610441577f4e487b7100000000000000000000000000000000000000000000000000000000600052603260045260246000fd5b906000526020600020906004020160000160009054906101000a900460ff1660ff168760ff161415610620576000600182815481106104a9577f4e487b7100000000000000000000000000000000000000000000000000000000600052603260045260246000fd5b906000526020600020906004020190508060000160009054906101000a900460ff1681600101826002018360030160009054906101000a900460ff168460030160019054906101000a900460ff1683805461050390610b48565b80601f016020809104026020016040519081016040528092919081815260200182805461052f90610b48565b801561057c5780601f106105515761010080835404028352916020019161057c565b820191906000526020600020905b81548152906001019060200180831161055f57829003601f168201915b5050505050935082805461058f90610b48565b80601f01602080910402602001604051908101604052809291908181526020018280546105bb90610b48565b80156106085780601f106105dd57610100808354040283529160200191610608565b820191906000526020600020905b8154815290600101906020018083116105eb57829003601f168201915b5050505050925096509650965096509650505061066f565b808061062b90610b7a565b9150506103fa565b506040517f08c379a0000000000000000000000000000000000000000000000000000000008152600401610666906109e8565b60405180910390fd5b91939590929450565b60008054906101000a900473ffffffffffffffffffffffffffffffffffffffff1673ffffffffffffffffffffffffffffffffffffffff163373ffffffffffffffffffffffffffffffffffffffff1614610706576040517f08c379a00000000000000000000000000000000000000000000000000000000081526004016106fd90610a08565b60405180910390fd5b600080600080600061071786610361565b945094509450945094506040518060a001604052808660ff1681526020018581526020018481526020018360ff1681526020018260ff16815250600260008201518160000160006101000a81548160ff021916908360ff1602179055506020820151816001019080519060200190610790929190610816565b5060408201518160020190805190602001906107ad929190610816565b5060608201518160030160006101000a81548160ff021916908360ff16021790555060808201518160030160016101000a81548160ff021916908360ff1602179055509050506001600660006101000a81548160ff021916908315150217905550505050505050565b82805461082290610b48565b90600052602060002090601f016020900481019282610844576000855561088b565b82601f1061085d57805160ff191683800117855561088b565b8280016001018555821561088b579182015b8281111561088a57825182559160200191906001019061086f565b5b509050610898919061089c565b5090565b5b808211156108b557600081600090555060010161089d565b5090565b6000813590506108c881610caa565b92915050565b6000602082840312156108e057600080fd5b60006108ee848285016108b9565b91505092915050565b61090081610ac0565b82525050565b61090f81610ad2565b82525050565b600061092082610aa4565b61092a8185610aaf565b935061093a818560208601610b15565b61094381610c21565b840191505092915050565b600061095b601e83610aaf565b915061096682610c32565b602082019050919050565b600061097e603383610aaf565b915061098982610c5b565b604082019050919050565b61099d81610afe565b82525050565b6109ac81610b08565b82525050565b60006020820190506109c760008301846108f7565b92915050565b60006020820190506109e26000830184610906565b92915050565b60006020820190508181036000830152610a018161094e565b9050919050565b60006020820190508181036000830152610a2181610971565b9050919050565b6000602082019050610a3d6000830184610994565b92915050565b600060a082019050610a5860008301886109a3565b8181036020830152610a6a8187610915565b90508181036040830152610a7e8186610915565b9050610a8d60608301856109a3565b610a9a60808301846109a3565b9695505050505050565b600081519050919050565b600082825260208201905092915050565b6000610acb82610ade565b9050919050565b60008115159050919050565b600073ffffffffffffffffffffffffffffffffffffffff82169050919050565b6000819050919050565b600060ff82169050919050565b60005b83811015610b33578082015181840152602081019050610b18565b83811115610b42576000848401525b50505050565b60006002820490506001821680610b6057607f821691505b60208210811415610b7457610b73610bf2565b5b50919050565b6000610b8582610afe565b91507fffffffffffffffffffffffffffffffffffffffffffffffffffffffffffffffff821415610bb857610bb7610bc3565b5b600182019050919050565b7f4e487b7100000000000000000000000000000000000000000000000000000000600052601160045260246000fd5b7f4e487b7100000000000000000000000000000000000000000000000000000000600052602260045260246000fd5b6000601f19601f8301169050919050565b7f5468657265206973206e6f206576656e74207769746820746869732069640000600082015250565b7f546869732066756e6374696f6e206973207265737472696374656420746f207460008201527f686520636f6e74726163742773206f776e657200000000000000000000000000602082015250565b610cb381610b08565b8114610cbe57600080fd5b5056fea26469706673582212203bceadb3aeadabaf4aa4a021baecec6454b6e81f79da0301ca191465dee1adc964736f6c63430008040033",
  "immutableReferences": {},
  "source": "pragma solidity >=0.4.22 <0.9.0;\n\n\nstruct SportsEvent {\n  uint8 id;\n  string team_1_name;\n  string team_2_name;\n  uint8 team_1_win_percent;\n  uint8 team_2_win_percent;\n}\n\n\ncontract GGbet {\n  address public owner = msg.sender;\n\n  SportsEvent[] private sports_events_set;\n\n  SportsEvent public current_sports_event;\n  bool public sports_event_in_progress = false;\n\n  constructor() {\n    initializeSportsEvents();\n  }\n\n  modifier restricted() {\n    require(\n      msg.sender == owner,\n      \"This function is restricted to the contract's owner\"\n    );\n    _;\n  }\n\n  /*\n    PUBLIC functions\n  */\n\n  function setCurrentSportsEventById(uint8 _id) public restricted {\n    (\n      uint8 id,\n      string memory team_1_name,\n      string memory team_2_name,\n      uint8 team_1_win_percent,\n      uint8 team_2_win_percent\n    ) = getSportsEventById(_id);\n\n    current_sports_event = SportsEvent({\n      id: id,\n      team_1_name: team_1_name,\n      team_2_name: team_2_name,\n      team_1_win_percent: team_1_win_percent,\n      team_2_win_percent: team_2_win_percent\n    });\n    sports_event_in_progress = true;\n  }\n\n  function initializeSportsEvents() private {\n    sports_events_set.push(getLfcVsBarcaEvent());\n    sports_events_set.push(getBayernVsMancityEvent());\n  }\n\n  function getSportsEventsCount() public view restricted returns (uint) {\n    return sports_events_set.length;\n  }\n\n  function getSportsEventById(uint8 _id)\n    public\n    view\n    restricted\n    returns (\n      uint8 id,\n      string memory team_1_name,\n      string memory team_2_name,\n      uint8 team_1_win_percent,\n      uint8 team_2_win_percent\n    )\n  {\n    for(uint i = 0; i < sports_events_set.length; i++) {\n      if (_id == sports_events_set[i].id) {\n        SportsEvent storage temp = sports_events_set[i]; // reference, no copy. just for brevity\n\n        return (\n          temp.id,\n          temp.team_1_name,\n          temp.team_2_name,\n          temp.team_1_win_percent,\n          temp.team_2_win_percent\n        );\n      }\n    }\n\n    revert(\"There is no event with this id\");\n  }\n\n  /*\n    PRIVATE functions\n  */\n\n  function getLfcVsBarcaEvent() private pure returns (SportsEvent memory) {\n    return SportsEvent({\n      id: 0,\n      team_1_name : 'FC Liverpool',\n      team_2_name : 'FC Barcelona',\n      team_1_win_percent: 65,\n      team_2_win_percent: 10\n    });\n  }\n\n  function getBayernVsMancityEvent() private pure returns (SportsEvent memory) {\n    return SportsEvent({\n      id: 1,\n      team_1_name : 'FC Bayern',\n      team_2_name : 'FC Manchester City',\n      team_1_win_percent: 25,\n      team_2_win_percent: 35\n    });\n  }\n}\n",
  "sourcePath": "/home/ivannn/Projects/BookmakerDAPP/bookmaker-dapp/contracts/GGbet.sol",
  "compiler": {
    "name": "solc",
    "version": "0.8.4+commit.c7e474f2.Emscripten.clang"
  },
  "schemaVersion": "3.4.3",
  "updatedAt": "2022-01-11T11:59:39.036Z",
  "networkType": "ethereum",
  "devdoc": {
    "kind": "dev",
    "methods": {},
    "version": 1
  },
  "userdoc": {
    "kind": "user",
    "methods": {},
    "version": 1
  }
}