{
  "contractName": "GGbet",
  "abi": [
    {
      "inputs": [],
      "stateMutability": "nonpayable",
      "type": "constructor"
    },
    {
      "anonymous": false,
      "inputs": [
        {
          "indexed": true,
          "internalType": "address",
          "name": "_address",
          "type": "address"
        },
        {
          "indexed": false,
          "internalType": "uint256",
          "name": "_amount",
          "type": "uint256"
        },
        {
          "indexed": false,
          "internalType": "string",
          "name": "_outcome",
          "type": "string"
        }
      ],
      "name": "BetAccepted",
      "type": "event"
    },
    {
      "inputs": [],
      "name": "current_sports_event",
      "outputs": [
        {
          "internalType": "uint8",
          "name": "id",
          "type": "uint8"
        },
        {
          "internalType": "string",
          "name": "team_1_name",
          "type": "string"
        },
        {
          "internalType": "string",
          "name": "team_2_name",
          "type": "string"
        },
        {
          "internalType": "string",
          "name": "team_1_logo",
          "type": "string"
        },
        {
          "internalType": "string",
          "name": "team_2_logo",
          "type": "string"
        },
        {
          "internalType": "uint8",
          "name": "team_1_win_percent",
          "type": "uint8"
        },
        {
          "internalType": "uint8",
          "name": "team_2_win_percent",
          "type": "uint8"
        }
      ],
      "stateMutability": "view",
      "type": "function",
      "constant": true
    },
    {
      "inputs": [],
      "name": "min_bet",
      "outputs": [
        {
          "internalType": "uint256",
          "name": "",
          "type": "uint256"
        }
      ],
      "stateMutability": "view",
      "type": "function",
      "constant": true
    },
    {
      "inputs": [],
      "name": "owner",
      "outputs": [
        {
          "internalType": "address",
          "name": "",
          "type": "address"
        }
      ],
      "stateMutability": "view",
      "type": "function",
      "constant": true
    },
    {
      "inputs": [],
      "name": "sports_event_in_progress",
      "outputs": [
        {
          "internalType": "bool",
          "name": "",
          "type": "bool"
        }
      ],
      "stateMutability": "view",
      "type": "function",
      "constant": true
    },
    {
      "inputs": [
        {
          "internalType": "uint8",
          "name": "_id",
          "type": "uint8"
        }
      ],
      "name": "setCurrentSportsEventById",
      "outputs": [],
      "stateMutability": "nonpayable",
      "type": "function"
    },
    {
      "inputs": [],
      "name": "getSportsEventsCount",
      "outputs": [
        {
          "internalType": "uint256",
          "name": "",
          "type": "uint256"
        }
      ],
      "stateMutability": "view",
      "type": "function",
      "constant": true
    },
    {
      "inputs": [
        {
          "internalType": "uint8",
          "name": "_id",
          "type": "uint8"
        }
      ],
      "name": "getSportsEventById",
      "outputs": [
        {
          "internalType": "uint8",
          "name": "id",
          "type": "uint8"
        },
        {
          "internalType": "string",
          "name": "team_1_name",
          "type": "string"
        },
        {
          "internalType": "string",
          "name": "team_2_name",
          "type": "string"
        },
        {
          "internalType": "string",
          "name": "team_1_logo",
          "type": "string"
        },
        {
          "internalType": "string",
          "name": "team_2_logo",
          "type": "string"
        },
        {
          "internalType": "uint8",
          "name": "team_1_win_percent",
          "type": "uint8"
        },
        {
          "internalType": "uint8",
          "name": "team_2_win_percent",
          "type": "uint8"
        }
      ],
      "stateMutability": "view",
      "type": "function",
      "constant": true
    },
    {
      "inputs": [],
      "name": "betOnTeam1",
      "outputs": [],
      "stateMutability": "payable",
      "type": "function",
      "payable": true
    },
    {
      "inputs": [],
      "name": "betOnDraw",
      "outputs": [],
      "stateMutability": "payable",
      "type": "function",
      "payable": true
    },
    {
      "inputs": [],
      "name": "betOnTeam2",
      "outputs": [],
      "stateMutability": "payable",
      "type": "function",
      "payable": true
    },
    {
      "inputs": [],
      "name": "getUserBet",
      "outputs": [
        {
          "internalType": "uint256",
          "name": "bet",
          "type": "uint256"
        },
        {
          "internalType": "string",
          "name": "outcome",
          "type": "string"
        }
      ],
      "stateMutability": "view",
      "type": "function",
      "constant": true
    }
  ],
  "bytecode": "0x6080604052336000806101000a81548173ffffffffffffffffffffffffffffffffffffffff021916908373ffffffffffffffffffffffffffffffffffffffff1602179055506000600860006101000a81548160ff021916908315150217905550660110d9316ec0006009553480156200007757600080fd5b50620000886200008e60201b60201c565b620005f7565b6001620000a0620002c860201b60201c565b908060018154018082558091505060019003906000526020600020906006020160009091909190915060008201518160000160006101000a81548160ff021916908360ff1602179055506020820151816001019080519060200190620001089291906200049c565b506040820151816002019080519060200190620001279291906200049c565b506060820151816003019080519060200190620001469291906200049c565b506080820151816004019080519060200190620001659291906200049c565b5060a08201518160050160006101000a81548160ff021916908360ff16021790555060c08201518160050160016101000a81548160ff021916908360ff16021790555050506001620001bc620003b260201b60201c565b908060018154018082558091505060019003906000526020600020906006020160009091909190915060008201518160000160006101000a81548160ff021916908360ff1602179055506020820151816001019080519060200190620002249291906200049c565b506040820151816002019080519060200190620002439291906200049c565b506060820151816003019080519060200190620002629291906200049c565b506080820151816004019080519060200190620002819291906200049c565b5060a08201518160050160006101000a81548160ff021916908360ff16021790555060c08201518160050160016101000a81548160ff021916908360ff1602179055505050565b620002d26200052d565b6040518060e00160405280600060ff1681526020016040518060400160405280600c81526020017f4643204c69766572706f6f6c000000000000000000000000000000000000000081525081526020016040518060400160405280600c81526020017f46432042617263656c6f6e61000000000000000000000000000000000000000081525081526020016040518060800160405280604d815260200162001fc3604d913981526020016040518060800160405280604d815260200162001edc604d91398152602001604160ff168152602001600a60ff16815250905090565b620003bc6200052d565b6040518060e00160405280600160ff1681526020016040518060400160405280600981526020017f46432042617965726e000000000000000000000000000000000000000000000081525081526020016040518060400160405280601281526020017f4643204d616e636865737465722043697479000000000000000000000000000081525081526020016040518060800160405280604d815260200162001f29604d913981526020016040518060800160405280604d815260200162001f76604d91398152602001601960ff168152602001602360ff16815250905090565b828054620004aa9062000592565b90600052602060002090601f016020900481019282620004ce57600085556200051a565b82601f10620004e957805160ff19168380011785556200051a565b828001600101855582156200051a579182015b8281111562000519578251825591602001919060010190620004fc565b5b50905062000529919062000573565b5090565b6040518060e00160405280600060ff16815260200160608152602001606081526020016060815260200160608152602001600060ff168152602001600060ff1681525090565b5b808211156200058e57600081600090555060010162000574565b5090565b60006002820490506001821680620005ab57607f821691505b60208210811415620005c257620005c1620005c8565b5b50919050565b7f4e487b7100000000000000000000000000000000000000000000000000000000600052602260045260246000fd5b6118d580620006076000396000f3fe60806040526004361061009c5760003560e01c80638da5cb5b116100645780638da5cb5b1461015e578063ac0cbc7e14610189578063bf235858146101cc578063ca53135a146101d6578063d3f082e714610201578063e723431d1461020b5761009c565b80630ed3c55d146100a157806329ddcac0146100ab57806377dcd064146100d657806379adae7a1461010157806381a2824f14610132575b600080fd5b6100a9610234565b005b3480156100b757600080fd5b506100c06103a1565b6040516100cd9190611531565b60405180910390f35b3480156100e257600080fd5b506100eb61043d565b6040516100f89190611476565b60405180910390f35b34801561010d57600080fd5b50610116610450565b604051610129979695949392919061157c565b60405180910390f35b34801561013e57600080fd5b506101476106c7565b60405161015592919061154c565b60405180910390f35b34801561016a57600080fd5b506101736108d2565b604051610180919061145b565b60405180910390f35b34801561019557600080fd5b506101b060048036038101906101ab919061130e565b6108f6565b6040516101c3979695949392919061157c565b60405180910390f35b6101d4610d36565b005b3480156101e257600080fd5b506101eb610ea3565b6040516101f89190611531565b60405180910390f35b610209610ea9565b005b34801561021757600080fd5b50610232600480360381019061022d919061130e565b611016565b005b600860009054906101000a900460ff16610283576040517f08c379a000000000000000000000000000000000000000000000000000000000815260040161027a906114b1565b60405180910390fd5b6009543410156102c8576040517f08c379a00000000000000000000000000000000000000000000000000000000081526004016102bf906114d1565b60405180910390fd5b6102d0611203565b34600c60003373ffffffffffffffffffffffffffffffffffffffff1673ffffffffffffffffffffffffffffffffffffffff1681526020019081526020016000208190555060006040518060400160405280600681526020017f7465616d5f32000000000000000000000000000000000000000000000000000081525090503373ffffffffffffffffffffffffffffffffffffffff167f5d8f70e9152d0ef26d34521cebb7cb7355e74f248853d2ea29bd870fff35f522348360405161039692919061154c565b60405180910390a250565b60008060009054906101000a900473ffffffffffffffffffffffffffffffffffffffff1673ffffffffffffffffffffffffffffffffffffffff163373ffffffffffffffffffffffffffffffffffffffff1614610432576040517f08c379a000000000000000000000000000000000000000000000000000000000815260040161042990611511565b60405180910390fd5b600180549050905090565b600860009054906101000a900460ff1681565b60028060000160009054906101000a900460ff1690806001018054610474906116ab565b80601f01602080910402602001604051908101604052809291908181526020018280546104a0906116ab565b80156104ed5780601f106104c2576101008083540402835291602001916104ed565b820191906000526020600020905b8154815290600101906020018083116104d057829003601f168201915b505050505090806002018054610502906116ab565b80601f016020809104026020016040519081016040528092919081815260200182805461052e906116ab565b801561057b5780601f106105505761010080835404028352916020019161057b565b820191906000526020600020905b81548152906001019060200180831161055e57829003601f168201915b505050505090806003018054610590906116ab565b80601f01602080910402602001604051908101604052809291908181526020018280546105bc906116ab565b80156106095780601f106105de57610100808354040283529160200191610609565b820191906000526020600020905b8154815290600101906020018083116105ec57829003601f168201915b50505050509080600401805461061e906116ab565b80601f016020809104026020016040519081016040528092919081815260200182805461064a906116ab565b80156106975780601f1061066c57610100808354040283529160200191610697565b820191906000526020600020905b81548152906001019060200180831161067a57829003601f168201915b5050505050908060050160009054906101000a900460ff16908060050160019054906101000a900460ff16905087565b60006060600860009054906101000a900460ff1661071a576040517f08c379a0000000000000000000000000000000000000000000000000000000008152600401610711906114b1565b60405180910390fd5b6000600a60003373ffffffffffffffffffffffffffffffffffffffff1673ffffffffffffffffffffffffffffffffffffffff1681526020019081526020016000205490506000600b60003373ffffffffffffffffffffffffffffffffffffffff1673ffffffffffffffffffffffffffffffffffffffff1681526020019081526020016000205490506000600c60003373ffffffffffffffffffffffffffffffffffffffff1673ffffffffffffffffffffffffffffffffffffffff168152602001908152602001600020549050600060606009548510610833578491506040518060400160405280600681526020017f7465616d5f31000000000000000000000000000000000000000000000000000081525090506108c3565b600954841061087c578391506040518060400160405280600481526020017f647261770000000000000000000000000000000000000000000000000000000081525090506108c2565b60095483106108c1578291506040518060400160405280600681526020017f7465616d5f32000000000000000000000000000000000000000000000000000081525090505b5b5b81819650965050505050509091565b60008054906101000a900473ffffffffffffffffffffffffffffffffffffffff1681565b600060608060608060008060008054906101000a900473ffffffffffffffffffffffffffffffffffffffff1673ffffffffffffffffffffffffffffffffffffffff163373ffffffffffffffffffffffffffffffffffffffff161461098f576040517f08c379a000000000000000000000000000000000000000000000000000000000815260040161098690611511565b60405180910390fd5b60005b600180549050811015610cef57600181815481106109d9577f4e487b7100000000000000000000000000000000000000000000000000000000600052603260045260246000fd5b906000526020600020906006020160000160009054906101000a900460ff1660ff168960ff161415610cdc57600060018281548110610a41577f4e487b7100000000000000000000000000000000000000000000000000000000600052603260045260246000fd5b906000526020600020906006020190508060000160009054906101000a900460ff16816001018260020183600301846004018560050160009054906101000a900460ff168660050160019054906101000a900460ff16858054610aa3906116ab565b80601f0160208091040260200160405190810160405280929190818152602001828054610acf906116ab565b8015610b1c5780601f10610af157610100808354040283529160200191610b1c565b820191906000526020600020905b815481529060010190602001808311610aff57829003601f168201915b50505050509550848054610b2f906116ab565b80601f0160208091040260200160405190810160405280929190818152602001828054610b5b906116ab565b8015610ba85780601f10610b7d57610100808354040283529160200191610ba8565b820191906000526020600020905b815481529060010190602001808311610b8b57829003601f168201915b50505050509450838054610bbb906116ab565b80601f0160208091040260200160405190810160405280929190818152602001828054610be7906116ab565b8015610c345780601f10610c0957610100808354040283529160200191610c34565b820191906000526020600020905b815481529060010190602001808311610c1757829003601f168201915b50505050509350828054610c47906116ab565b80601f0160208091040260200160405190810160405280929190818152602001828054610c73906116ab565b8015610cc05780601f10610c9557610100808354040283529160200191610cc0565b820191906000526020600020905b815481529060010190602001808311610ca357829003601f168201915b5050505050925098509850985098509850985098505050610d2b565b8080610ce7906116dd565b915050610992565b506040517f08c379a0000000000000000000000000000000000000000000000000000000008152600401610d2290611491565b60405180910390fd5b919395979092949650565b600860009054906101000a900460ff16610d85576040517f08c379a0000000000000000000000000000000000000000000000000000000008152600401610d7c906114b1565b60405180910390fd5b600954341015610dca576040517f08c379a0000000000000000000000000000000000000000000000000000000008152600401610dc1906114d1565b60405180910390fd5b610dd2611203565b34600b60003373ffffffffffffffffffffffffffffffffffffffff1673ffffffffffffffffffffffffffffffffffffffff1681526020019081526020016000208190555060006040518060400160405280600481526020017f647261770000000000000000000000000000000000000000000000000000000081525090503373ffffffffffffffffffffffffffffffffffffffff167f5d8f70e9152d0ef26d34521cebb7cb7355e74f248853d2ea29bd870fff35f5223483604051610e9892919061154c565b60405180910390a250565b60095481565b600860009054906101000a900460ff16610ef8576040517f08c379a0000000000000000000000000000000000000000000000000000000008152600401610eef906114b1565b60405180910390fd5b600954341015610f3d576040517f08c379a0000000000000000000000000000000000000000000000000000000008152600401610f34906114d1565b60405180910390fd5b610f45611203565b34600a60003373ffffffffffffffffffffffffffffffffffffffff1673ffffffffffffffffffffffffffffffffffffffff1681526020019081526020016000208190555060006040518060400160405280600681526020017f7465616d5f31000000000000000000000000000000000000000000000000000081525090503373ffffffffffffffffffffffffffffffffffffffff167f5d8f70e9152d0ef26d34521cebb7cb7355e74f248853d2ea29bd870fff35f522348360405161100b92919061154c565b60405180910390a250565b60008054906101000a900473ffffffffffffffffffffffffffffffffffffffff1673ffffffffffffffffffffffffffffffffffffffff163373ffffffffffffffffffffffffffffffffffffffff16146110a4576040517f08c379a000000000000000000000000000000000000000000000000000000000815260040161109b90611511565b60405180910390fd5b60008060008060008060006110b8886108f6565b96509650965096509650965096506040518060e001604052808860ff1681526020018781526020018681526020018581526020018481526020018360ff1681526020018260ff16815250600260008201518160000160006101000a81548160ff021916908360ff1602179055506020820151816001019080519060200190611141929190611256565b50604082015181600201908051906020019061115e929190611256565b50606082015181600301908051906020019061117b929190611256565b506080820151816004019080519060200190611198929190611256565b5060a08201518160050160006101000a81548160ff021916908360ff16021790555060c08201518160050160016101000a81548160ff021916908360ff1602179055509050506001600860006101000a81548160ff0219169083151502179055505050505050505050565b600061120d6106c7565b50905060008114611253576040517f08c379a000000000000000000000000000000000000000000000000000000000815260040161124a906114f1565b60405180910390fd5b50565b828054611262906116ab565b90600052602060002090601f01602090048101928261128457600085556112cb565b82601f1061129d57805160ff19168380011785556112cb565b828001600101855582156112cb579182015b828111156112ca5782518255916020019190600101906112af565b5b5090506112d891906112dc565b5090565b5b808211156112f55760008160009055506001016112dd565b5090565b60008135905061130881611888565b92915050565b60006020828403121561132057600080fd5b600061132e848285016112f9565b91505092915050565b61134081611623565b82525050565b61134f81611635565b82525050565b600061136082611607565b61136a8185611612565b935061137a818560208601611678565b61138381611784565b840191505092915050565b600061139b601e83611612565b91506113a682611795565b602082019050919050565b60006113be601c83611612565b91506113c9826117be565b602082019050919050565b60006113e1601983611612565b91506113ec826117e7565b602082019050919050565b6000611404602083611612565b915061140f82611810565b602082019050919050565b6000611427603383611612565b915061143282611839565b604082019050919050565b61144681611661565b82525050565b6114558161166b565b82525050565b60006020820190506114706000830184611337565b92915050565b600060208201905061148b6000830184611346565b92915050565b600060208201905081810360008301526114aa8161138e565b9050919050565b600060208201905081810360008301526114ca816113b1565b9050919050565b600060208201905081810360008301526114ea816113d4565b9050919050565b6000602082019050818103600083015261150a816113f7565b9050919050565b6000602082019050818103600083015261152a8161141a565b9050919050565b6000602082019050611546600083018461143d565b92915050565b6000604082019050611561600083018561143d565b81810360208301526115738184611355565b90509392505050565b600060e082019050611591600083018a61144c565b81810360208301526115a38189611355565b905081810360408301526115b78188611355565b905081810360608301526115cb8187611355565b905081810360808301526115df8186611355565b90506115ee60a083018561144c565b6115fb60c083018461144c565b98975050505050505050565b600081519050919050565b600082825260208201905092915050565b600061162e82611641565b9050919050565b60008115159050919050565b600073ffffffffffffffffffffffffffffffffffffffff82169050919050565b6000819050919050565b600060ff82169050919050565b60005b8381101561169657808201518184015260208101905061167b565b838111156116a5576000848401525b50505050565b600060028204905060018216806116c357607f821691505b602082108114156116d7576116d6611755565b5b50919050565b60006116e882611661565b91507fffffffffffffffffffffffffffffffffffffffffffffffffffffffffffffffff82141561171b5761171a611726565b5b600182019050919050565b7f4e487b7100000000000000000000000000000000000000000000000000000000600052601160045260246000fd5b7f4e487b7100000000000000000000000000000000000000000000000000000000600052602260045260246000fd5b6000601f19601f8301169050919050565b7f5468657265206973206e6f206576656e74207769746820746869732069640000600082015250565b7f43757272656e742073706f727473206576656e74206973206f76657200000000600082015250565b7f4d696e696d616c2062657420697320302e303030332045544800000000000000600082015250565b7f5468697320757365722068617320616c7265616479206d616b65206120626574600082015250565b7f546869732066756e6374696f6e206973207265737472696374656420746f207460008201527f686520636f6e74726163742773206f776e657200000000000000000000000000602082015250565b6118918161166b565b811461189c57600080fd5b5056fea264697066735822122080759a44c7d08cfcd6721118eb5ff30d1f1b2bf8574e3cf98883956de10e3f0e64736f6c634300080400332f2f73746f726167652e6d64732e79616e6465782e6e65742f6765742d73706f72742f36393630332f39323838633936303439386632353365313536313065343064373331653731662e706e672f2f73746f726167652e6d64732e79616e6465782e6e65742f6765742d73706f72742f36373338392f64616264323836333133353531393836653466396537393466353031623732652e706e672f2f73746f726167652e6d64732e79616e6465782e6e65742f6765742d73706f72742f36373338392f36366539336365346431656231363634333836346633663331316433656638332e706e672f2f73746f726167652e6d64732e79616e6465782e6e65742f6765742d73706f72742f31303439332f61316637326432353937613231383430353236373666376138636263643538632e706e67",
  "immutableReferences": {},
  "source": "pragma solidity >=0.8.0 <0.9.0;\n\n\nstruct SportsEvent {\n  uint8 id;\n  string team_1_name;\n  string team_2_name;\n  string team_1_logo;\n  string team_2_logo;\n  uint8 team_1_win_percent;\n  uint8 team_2_win_percent;\n}\n\n\ncontract GGbet {\n  address public owner = msg.sender;\n\n  SportsEvent[] private sports_events_set;\n  SportsEvent public current_sports_event;\n  bool public sports_event_in_progress = false;\n\n  uint public min_bet = 300000000000000; // 0.0003 eth;\n  mapping(address => uint) private team_1_bets;\n  mapping(address => uint) private draw_bets;\n  mapping(address => uint) private team_2_bets;\n\n  constructor() {\n    initializeSportsEvents();\n  }\n\n  modifier restricted() {\n    require(\n      msg.sender == owner,\n      \"This function is restricted to the contract's owner\"\n    );\n    _;\n  }\n\n  event BetAccepted(address indexed _address, uint _amount, string _outcome);\n\n  /*\n    PUBLIC functions\n  */\n\n  function setCurrentSportsEventById(uint8 _id) public restricted {\n    (\n      uint8 id,\n      string memory team_1_name,\n      string memory team_2_name,\n      string memory team_1_logo,\n      string memory team_2_logo,\n      uint8 team_1_win_percent,\n      uint8 team_2_win_percent\n    ) = getSportsEventById(_id);\n\n    current_sports_event = SportsEvent({\n      id: id,\n      team_1_name: team_1_name,\n      team_2_name: team_2_name,\n      team_1_logo: team_1_logo,\n      team_2_logo: team_2_logo,\n      team_1_win_percent: team_1_win_percent,\n      team_2_win_percent: team_2_win_percent\n    });\n    sports_event_in_progress = true;\n  }\n\n  function initializeSportsEvents() private {\n    sports_events_set.push(getLfcVsBarcaEvent());\n    sports_events_set.push(getBayernVsMancityEvent());\n  }\n\n  function getSportsEventsCount() public view restricted returns (uint) {\n    return sports_events_set.length;\n  }\n\n  function getSportsEventById(uint8 _id)\n    public\n    view\n    restricted\n    returns (\n      uint8 id,\n      string memory team_1_name,\n      string memory team_2_name,\n      string memory team_1_logo,\n      string memory team_2_logo,\n      uint8 team_1_win_percent,\n      uint8 team_2_win_percent\n    )\n  {\n    for(uint i = 0; i < sports_events_set.length; i++) {\n      if (_id == sports_events_set[i].id) {\n        SportsEvent storage temp = sports_events_set[i]; // reference, no copy. just for brevity\n\n        return (\n          temp.id,\n          temp.team_1_name,\n          temp.team_2_name,\n          temp.team_1_logo,\n          temp.team_2_logo,\n          temp.team_1_win_percent,\n          temp.team_2_win_percent\n        );\n      }\n    }\n\n    revert(\"There is no event with this id\");\n  }\n\n  function betOnTeam1() public payable {\n    require(sports_event_in_progress, 'Current sports event is over');\n    require(msg.value >= min_bet, 'Minimal bet is 0.0003 ETH');\n    requireUserHasNoActiveBets();\n\n    team_1_bets[msg.sender] = msg.value;\n    string memory _outcome = 'team_1';\n    emit BetAccepted(msg.sender, msg.value, _outcome);\n  }\n\n  function betOnDraw() public payable {\n    require(sports_event_in_progress, 'Current sports event is over');\n    require(msg.value >= min_bet, 'Minimal bet is 0.0003 ETH');\n    requireUserHasNoActiveBets();\n\n    draw_bets[msg.sender] = msg.value;\n    string memory _outcome = 'draw';\n    emit BetAccepted(msg.sender, msg.value, _outcome);\n  }\n\n  function betOnTeam2() public payable {\n    require(sports_event_in_progress, 'Current sports event is over');\n    require(msg.value >= min_bet, 'Minimal bet is 0.0003 ETH');\n    requireUserHasNoActiveBets();\n\n    team_2_bets[msg.sender] = msg.value;\n    string memory _outcome = 'team_2';\n    emit BetAccepted(msg.sender, msg.value, _outcome);\n  }\n\n  function getUserBet() public view returns(uint bet, string memory outcome) {\n    require(sports_event_in_progress, 'Current sports event is over');\n    uint team_1_bet = team_1_bets[msg.sender];\n    uint draw_bet = draw_bets[msg.sender];\n    uint team_2_bet = team_2_bets[msg.sender];\n    uint _bet = 0;\n    string memory _outcome;\n\n    if (team_1_bet >= min_bet) {\n      _bet = team_1_bet;\n      _outcome = 'team_1';\n    }\n    else if (draw_bet >= min_bet) {\n      _bet = draw_bet;\n      _outcome = 'draw';\n    }\n    else if (team_2_bet >= min_bet) {\n      _bet = team_2_bet;\n      _outcome = 'team_2';\n    }\n\n    return (_bet, _outcome);\n  }\n\n  /*\n    PRIVATE functions\n  */\n\n  function getLfcVsBarcaEvent() private pure returns (SportsEvent memory) {\n    return SportsEvent({\n      id: 0,\n      team_1_name : 'FC Liverpool',\n      team_2_name : 'FC Barcelona',\n      team_1_logo: '//storage.mds.yandex.net/get-sport/10493/a1f72d2597a2184052676f7a8cbcd58c.png',\n      team_2_logo: '//storage.mds.yandex.net/get-sport/69603/9288c960498f253e15610e40d731e71f.png',\n      team_1_win_percent: 65,\n      team_2_win_percent: 10\n    });\n  }\n\n  function getBayernVsMancityEvent() private pure returns (SportsEvent memory) {\n    return SportsEvent({\n      id: 1,\n      team_1_name : 'FC Bayern',\n      team_2_name : 'FC Manchester City',\n      team_1_logo: '//storage.mds.yandex.net/get-sport/67389/dabd286313551986e4f9e794f501b72e.png',\n      team_2_logo: '//storage.mds.yandex.net/get-sport/67389/66e93ce4d1eb16643864f3f311d3ef83.png',\n      team_1_win_percent: 25,\n      team_2_win_percent: 35\n    });\n  }\n\n  function requireUserHasNoActiveBets() private view {\n    (uint bet,) = getUserBet();\n\n    require(bet == 0, 'This user has already make a bet');\n  }\n}\n",
  "sourcePath": "/home/ivannn/Projects/BookmakerDAPP/bookmaker-dapp/contracts/GGbet.sol",
  "compiler": {
    "name": "solc",
    "version": "0.8.4+commit.c7e474f2.Emscripten.clang"
  },
  "schemaVersion": "3.2.3",
  "updatedAt": "2022-02-07T13:51:22.022Z",
  "networkType": "ethereum",
  "devdoc": {
    "kind": "dev",
    "methods": {},
    "version": 1
  },
  "userdoc": {
    "kind": "user",
    "methods": {},
    "version": 1
  }
}