{
  "contractName": "GGbet",
  "abi": [
    {
      "inputs": [],
      "stateMutability": "nonpayable",
      "type": "constructor"
    },
    {
      "anonymous": false,
      "inputs": [
        {
          "indexed": true,
          "internalType": "address",
          "name": "_address",
          "type": "address"
        },
        {
          "indexed": false,
          "internalType": "uint256",
          "name": "_amount",
          "type": "uint256"
        },
        {
          "indexed": false,
          "internalType": "string",
          "name": "_outcome",
          "type": "string"
        }
      ],
      "name": "BetAccepted",
      "type": "event"
    },
    {
      "anonymous": false,
      "inputs": [
        {
          "indexed": false,
          "internalType": "string",
          "name": "_outcome",
          "type": "string"
        }
      ],
      "name": "BetsRefunded",
      "type": "event"
    },
    {
      "inputs": [],
      "name": "current_sports_event",
      "outputs": [
        {
          "internalType": "uint8",
          "name": "id",
          "type": "uint8"
        },
        {
          "internalType": "string",
          "name": "team_1_name",
          "type": "string"
        },
        {
          "internalType": "string",
          "name": "team_2_name",
          "type": "string"
        },
        {
          "internalType": "string",
          "name": "team_1_logo",
          "type": "string"
        },
        {
          "internalType": "string",
          "name": "team_2_logo",
          "type": "string"
        },
        {
          "internalType": "uint8",
          "name": "team_1_win_percent",
          "type": "uint8"
        },
        {
          "internalType": "uint8",
          "name": "team_2_win_percent",
          "type": "uint8"
        }
      ],
      "stateMutability": "view",
      "type": "function",
      "constant": true
    },
    {
      "inputs": [],
      "name": "min_bet",
      "outputs": [
        {
          "internalType": "uint256",
          "name": "",
          "type": "uint256"
        }
      ],
      "stateMutability": "view",
      "type": "function",
      "constant": true
    },
    {
      "inputs": [],
      "name": "owner",
      "outputs": [
        {
          "internalType": "address",
          "name": "",
          "type": "address"
        }
      ],
      "stateMutability": "view",
      "type": "function",
      "constant": true
    },
    {
      "inputs": [],
      "name": "sports_event_in_progress",
      "outputs": [
        {
          "internalType": "bool",
          "name": "",
          "type": "bool"
        }
      ],
      "stateMutability": "view",
      "type": "function",
      "constant": true
    },
    {
      "inputs": [
        {
          "internalType": "uint8",
          "name": "_id",
          "type": "uint8"
        }
      ],
      "name": "setCurrentSportsEventById",
      "outputs": [],
      "stateMutability": "nonpayable",
      "type": "function"
    },
    {
      "inputs": [],
      "name": "getSportsEventsCount",
      "outputs": [
        {
          "internalType": "uint256",
          "name": "",
          "type": "uint256"
        }
      ],
      "stateMutability": "view",
      "type": "function",
      "constant": true
    },
    {
      "inputs": [
        {
          "internalType": "uint8",
          "name": "_id",
          "type": "uint8"
        }
      ],
      "name": "getSportsEventById",
      "outputs": [
        {
          "internalType": "uint8",
          "name": "id",
          "type": "uint8"
        },
        {
          "internalType": "string",
          "name": "team_1_name",
          "type": "string"
        },
        {
          "internalType": "string",
          "name": "team_2_name",
          "type": "string"
        },
        {
          "internalType": "string",
          "name": "team_1_logo",
          "type": "string"
        },
        {
          "internalType": "string",
          "name": "team_2_logo",
          "type": "string"
        },
        {
          "internalType": "uint8",
          "name": "team_1_win_percent",
          "type": "uint8"
        },
        {
          "internalType": "uint8",
          "name": "team_2_win_percent",
          "type": "uint8"
        }
      ],
      "stateMutability": "view",
      "type": "function",
      "constant": true
    },
    {
      "inputs": [],
      "name": "betOnTeam1",
      "outputs": [],
      "stateMutability": "payable",
      "type": "function",
      "payable": true
    },
    {
      "inputs": [],
      "name": "betOnDraw",
      "outputs": [],
      "stateMutability": "payable",
      "type": "function",
      "payable": true
    },
    {
      "inputs": [],
      "name": "betOnTeam2",
      "outputs": [],
      "stateMutability": "payable",
      "type": "function",
      "payable": true
    },
    {
      "inputs": [],
      "name": "getUserBet",
      "outputs": [
        {
          "internalType": "uint256",
          "name": "bet",
          "type": "uint256"
        },
        {
          "internalType": "string",
          "name": "outcome",
          "type": "string"
        }
      ],
      "stateMutability": "view",
      "type": "function",
      "constant": true
    },
    {
      "inputs": [
        {
          "internalType": "string",
          "name": "_outcome",
          "type": "string"
        },
        {
          "internalType": "uint8",
          "name": "coef_int_part",
          "type": "uint8"
        },
        {
          "internalType": "uint8",
          "name": "coef_decimal_part",
          "type": "uint8"
        }
      ],
      "name": "endCurrentSportsEvent",
      "outputs": [],
      "stateMutability": "nonpayable",
      "type": "function"
    }
  ],
  "bytecode": "0x6080604052336000806101000a81548173ffffffffffffffffffffffffffffffffffffffff021916908373ffffffffffffffffffffffffffffffffffffffff1602179055506000600860006101000a81548160ff021916908315150217905550660110d9316ec0006009553480156200007757600080fd5b50620000886200008e60201b60201c565b620005f7565b6001620000a0620002c860201b60201c565b908060018154018082558091505060019003906000526020600020906006020160009091909190915060008201518160000160006101000a81548160ff021916908360ff1602179055506020820151816001019080519060200190620001089291906200049c565b506040820151816002019080519060200190620001279291906200049c565b506060820151816003019080519060200190620001469291906200049c565b506080820151816004019080519060200190620001659291906200049c565b5060a08201518160050160006101000a81548160ff021916908360ff16021790555060c08201518160050160016101000a81548160ff021916908360ff16021790555050506001620001bc620003b260201b60201c565b908060018154018082558091505060019003906000526020600020906006020160009091909190915060008201518160000160006101000a81548160ff021916908360ff1602179055506020820151816001019080519060200190620002249291906200049c565b506040820151816002019080519060200190620002439291906200049c565b506060820151816003019080519060200190620002629291906200049c565b506080820151816004019080519060200190620002819291906200049c565b5060a08201518160050160006101000a81548160ff021916908360ff16021790555060c08201518160050160016101000a81548160ff021916908360ff1602179055505050565b620002d26200052d565b6040518060e00160405280600060ff1681526020016040518060400160405280600c81526020017f4643204c69766572706f6f6c000000000000000000000000000000000000000081525081526020016040518060400160405280600c81526020017f46432042617263656c6f6e61000000000000000000000000000000000000000081525081526020016040518060800160405280604d815260200162002c1c604d913981526020016040518060800160405280604d815260200162002b35604d91398152602001604160ff168152602001600a60ff16815250905090565b620003bc6200052d565b6040518060e00160405280600160ff1681526020016040518060400160405280600981526020017f46432042617965726e000000000000000000000000000000000000000000000081525081526020016040518060400160405280601281526020017f4643204d616e636865737465722043697479000000000000000000000000000081525081526020016040518060800160405280604d815260200162002b82604d913981526020016040518060800160405280604d815260200162002bcf604d91398152602001601960ff168152602001602360ff16815250905090565b828054620004aa9062000592565b90600052602060002090601f016020900481019282620004ce57600085556200051a565b82601f10620004e957805160ff19168380011785556200051a565b828001600101855582156200051a579182015b8281111562000519578251825591602001919060010190620004fc565b5b50905062000529919062000573565b5090565b6040518060e00160405280600060ff16815260200160608152602001606081526020016060815260200160608152602001600060ff168152602001600060ff1681525090565b5b808211156200058e57600081600090555060010162000574565b5090565b60006002820490506001821680620005ab57607f821691505b60208210811415620005c257620005c1620005c8565b5b50919050565b7f4e487b7100000000000000000000000000000000000000000000000000000000600052602260045260246000fd5b61252e80620006076000396000f3fe6080604052600436106100a75760003560e01c8063ac0cbc7e11610064578063ac0cbc7e14610194578063bf235858146101d7578063ca53135a146101e1578063d3f082e71461020c578063e268703d14610216578063e723431d1461023f576100a7565b80630ed3c55d146100ac57806329ddcac0146100b657806377dcd064146100e157806379adae7a1461010c57806381a2824f1461013d5780638da5cb5b14610169575b600080fd5b6100b4610268565b005b3480156100c257600080fd5b506100cb610438565b6040516100d89190611eb7565b60405180910390f35b3480156100ed57600080fd5b506100f66104d4565b6040516101039190611d5c565b60405180910390f35b34801561011857600080fd5b506101216104e7565b6040516101349796959493929190611f02565b60405180910390f35b34801561014957600080fd5b5061015261075e565b604051610160929190611ed2565b60405180910390f35b34801561017557600080fd5b5061017e610969565b60405161018b9190611d41565b60405180910390f35b3480156101a057600080fd5b506101bb60048036038101906101b69190611afd565b61098d565b6040516101ce9796959493929190611f02565b60405180910390f35b6101df610dcd565b005b3480156101ed57600080fd5b506101f6610f9d565b6040516102039190611eb7565b60405180910390f35b610214610fa3565b005b34801561022257600080fd5b5061023d60048036038101906102389190611a96565b611173565b005b34801561024b57600080fd5b5061026660048036038101906102619190611afd565b611284565b005b600860009054906101000a900460ff166102b7576040517f08c379a00000000000000000000000000000000000000000000000000000000081526004016102ae90611e17565b60405180910390fd5b6009543410156102fc576040517f08c379a00000000000000000000000000000000000000000000000000000000081526004016102f390611e37565b60405180910390fd5b610304611471565b34600c60003373ffffffffffffffffffffffffffffffffffffffff1673ffffffffffffffffffffffffffffffffffffffff16815260200190815260200160002081905550600e339080600181540180825580915050600190039060005260206000200160009091909190916101000a81548173ffffffffffffffffffffffffffffffffffffffff021916908373ffffffffffffffffffffffffffffffffffffffff16021790555060006040518060400160405280600681526020017f7465616d5f32000000000000000000000000000000000000000000000000000081525090503373ffffffffffffffffffffffffffffffffffffffff167f5d8f70e9152d0ef26d34521cebb7cb7355e74f248853d2ea29bd870fff35f522348360405161042d929190611ed2565b60405180910390a250565b60008060009054906101000a900473ffffffffffffffffffffffffffffffffffffffff1673ffffffffffffffffffffffffffffffffffffffff163373ffffffffffffffffffffffffffffffffffffffff16146104c9576040517f08c379a00000000000000000000000000000000000000000000000000000000081526004016104c090611e97565b60405180910390fd5b600180549050905090565b600860009054906101000a900460ff1681565b60028060000160009054906101000a900460ff169080600101805461050b90612182565b80601f016020809104026020016040519081016040528092919081815260200182805461053790612182565b80156105845780601f1061055957610100808354040283529160200191610584565b820191906000526020600020905b81548152906001019060200180831161056757829003601f168201915b50505050509080600201805461059990612182565b80601f01602080910402602001604051908101604052809291908181526020018280546105c590612182565b80156106125780601f106105e757610100808354040283529160200191610612565b820191906000526020600020905b8154815290600101906020018083116105f557829003601f168201915b50505050509080600301805461062790612182565b80601f016020809104026020016040519081016040528092919081815260200182805461065390612182565b80156106a05780601f10610675576101008083540402835291602001916106a0565b820191906000526020600020905b81548152906001019060200180831161068357829003601f168201915b5050505050908060040180546106b590612182565b80601f01602080910402602001604051908101604052809291908181526020018280546106e190612182565b801561072e5780601f106107035761010080835404028352916020019161072e565b820191906000526020600020905b81548152906001019060200180831161071157829003601f168201915b5050505050908060050160009054906101000a900460ff16908060050160019054906101000a900460ff16905087565b60006060600860009054906101000a900460ff166107b1576040517f08c379a00000000000000000000000000000000000000000000000000000000081526004016107a890611e17565b60405180910390fd5b6000600a60003373ffffffffffffffffffffffffffffffffffffffff1673ffffffffffffffffffffffffffffffffffffffff1681526020019081526020016000205490506000600b60003373ffffffffffffffffffffffffffffffffffffffff1673ffffffffffffffffffffffffffffffffffffffff1681526020019081526020016000205490506000600c60003373ffffffffffffffffffffffffffffffffffffffff1673ffffffffffffffffffffffffffffffffffffffff1681526020019081526020016000205490506000606060095485106108ca578491506040518060400160405280600681526020017f7465616d5f310000000000000000000000000000000000000000000000000000815250905061095a565b6009548410610913578391506040518060400160405280600481526020017f64726177000000000000000000000000000000000000000000000000000000008152509050610959565b6009548310610958578291506040518060400160405280600681526020017f7465616d5f32000000000000000000000000000000000000000000000000000081525090505b5b5b81819650965050505050509091565b60008054906101000a900473ffffffffffffffffffffffffffffffffffffffff1681565b600060608060608060008060008054906101000a900473ffffffffffffffffffffffffffffffffffffffff1673ffffffffffffffffffffffffffffffffffffffff163373ffffffffffffffffffffffffffffffffffffffff1614610a26576040517f08c379a0000000000000000000000000000000000000000000000000000000008152600401610a1d90611e97565b60405180910390fd5b60005b600180549050811015610d865760018181548110610a70577f4e487b7100000000000000000000000000000000000000000000000000000000600052603260045260246000fd5b906000526020600020906006020160000160009054906101000a900460ff1660ff168960ff161415610d7357600060018281548110610ad8577f4e487b7100000000000000000000000000000000000000000000000000000000600052603260045260246000fd5b906000526020600020906006020190508060000160009054906101000a900460ff16816001018260020183600301846004018560050160009054906101000a900460ff168660050160019054906101000a900460ff16858054610b3a90612182565b80601f0160208091040260200160405190810160405280929190818152602001828054610b6690612182565b8015610bb35780601f10610b8857610100808354040283529160200191610bb3565b820191906000526020600020905b815481529060010190602001808311610b9657829003601f168201915b50505050509550848054610bc690612182565b80601f0160208091040260200160405190810160405280929190818152602001828054610bf290612182565b8015610c3f5780601f10610c1457610100808354040283529160200191610c3f565b820191906000526020600020905b815481529060010190602001808311610c2257829003601f168201915b50505050509450838054610c5290612182565b80601f0160208091040260200160405190810160405280929190818152602001828054610c7e90612182565b8015610ccb5780601f10610ca057610100808354040283529160200191610ccb565b820191906000526020600020905b815481529060010190602001808311610cae57829003601f168201915b50505050509350828054610cde90612182565b80601f0160208091040260200160405190810160405280929190818152602001828054610d0a90612182565b8015610d575780601f10610d2c57610100808354040283529160200191610d57565b820191906000526020600020905b815481529060010190602001808311610d3a57829003601f168201915b5050505050925098509850985098509850985098505050610dc2565b8080610d7e906121e5565b915050610a29565b506040517f08c379a0000000000000000000000000000000000000000000000000000000008152600401610db990611df7565b60405180910390fd5b919395979092949650565b600860009054906101000a900460ff16610e1c576040517f08c379a0000000000000000000000000000000000000000000000000000000008152600401610e1390611e17565b60405180910390fd5b600954341015610e61576040517f08c379a0000000000000000000000000000000000000000000000000000000008152600401610e5890611e37565b60405180910390fd5b610e69611471565b34600b60003373ffffffffffffffffffffffffffffffffffffffff1673ffffffffffffffffffffffffffffffffffffffff16815260200190815260200160002081905550600f339080600181540180825580915050600190039060005260206000200160009091909190916101000a81548173ffffffffffffffffffffffffffffffffffffffff021916908373ffffffffffffffffffffffffffffffffffffffff16021790555060006040518060400160405280600481526020017f647261770000000000000000000000000000000000000000000000000000000081525090503373ffffffffffffffffffffffffffffffffffffffff167f5d8f70e9152d0ef26d34521cebb7cb7355e74f248853d2ea29bd870fff35f5223483604051610f92929190611ed2565b60405180910390a250565b60095481565b600860009054906101000a900460ff16610ff2576040517f08c379a0000000000000000000000000000000000000000000000000000000008152600401610fe990611e17565b60405180910390fd5b600954341015611037576040517f08c379a000000000000000000000000000000000000000000000000000000000815260040161102e90611e37565b60405180910390fd5b61103f611471565b34600a60003373ffffffffffffffffffffffffffffffffffffffff1673ffffffffffffffffffffffffffffffffffffffff16815260200190815260200160002081905550600d339080600181540180825580915050600190039060005260206000200160009091909190916101000a81548173ffffffffffffffffffffffffffffffffffffffff021916908373ffffffffffffffffffffffffffffffffffffffff16021790555060006040518060400160405280600681526020017f7465616d5f31000000000000000000000000000000000000000000000000000081525090503373ffffffffffffffffffffffffffffffffffffffff167f5d8f70e9152d0ef26d34521cebb7cb7355e74f248853d2ea29bd870fff35f5223483604051611168929190611ed2565b60405180910390a250565b60008054906101000a900473ffffffffffffffffffffffffffffffffffffffff1673ffffffffffffffffffffffffffffffffffffffff163373ffffffffffffffffffffffffffffffffffffffff1614611201576040517f08c379a00000000000000000000000000000000000000000000000000000000081526004016111f890611e97565b60405180910390fd5b600860009054906101000a900460ff16611250576040517f08c379a000000000000000000000000000000000000000000000000000000000815260040161124790611d77565b60405180910390fd5b611259836114c4565b6000600860006101000a81548160ff02191690831515021790555061127f8383836115d1565b505050565b60008054906101000a900473ffffffffffffffffffffffffffffffffffffffff1673ffffffffffffffffffffffffffffffffffffffff163373ffffffffffffffffffffffffffffffffffffffff1614611312576040517f08c379a000000000000000000000000000000000000000000000000000000000815260040161130990611e97565b60405180910390fd5b60008060008060008060006113268861098d565b96509650965096509650965096506040518060e001604052808860ff1681526020018781526020018681526020018581526020018481526020018360ff1681526020018260ff16815250600260008201518160000160006101000a81548160ff021916908360ff16021790555060208201518160010190805190602001906113af929190611976565b5060408201518160020190805190602001906113cc929190611976565b5060608201518160030190805190602001906113e9929190611976565b506080820151816004019080519060200190611406929190611976565b5060a08201518160050160006101000a81548160ff021916908360ff16021790555060c08201518160050160016101000a81548160ff021916908360ff1602179055509050506001600860006101000a81548160ff0219169083151502179055505050505050505050565b600061147b61075e565b509050600081146114c1576040517f08c379a00000000000000000000000000000000000000000000000000000000081526004016114b890611d97565b60405180910390fd5b50565b611503816040518060400160405280600681526020017f7465616d5f3100000000000000000000000000000000000000000000000000008152506116cd565b806115495750611548816040518060400160405280600681526020017f7465616d5f3200000000000000000000000000000000000000000000000000008152506116cd565b5b8061158f575061158e816040518060400160405280600481526020017f64726177000000000000000000000000000000000000000000000000000000008152506116cd565b5b6115ce576040517f08c379a00000000000000000000000000000000000000000000000000000000081526004016115c590611db7565b60405180910390fd5b50565b611610836040518060400160405280600681526020017f7465616d5f3100000000000000000000000000000000000000000000000000008152506116cd565b156116245761161f8282611726565b6116c8565b611663836040518060400160405280600681526020017f7465616d5f3200000000000000000000000000000000000000000000000000008152506116cd565b156116775761167282826118cc565b6116c7565b6116b6836040518060400160405280600481526020017f64726177000000000000000000000000000000000000000000000000000000008152506116cd565b156116c6576116c582826118d0565b5b5b5b505050565b6000816040516020016116e09190611d2a565b60405160208183030381529060405280519060200120836040516020016117079190611d2a565b6040516020818303038152906040528051906020012014905092915050565b60005b600d80549050811015611892576000600d8281548110611772577f4e487b7100000000000000000000000000000000000000000000000000000000600052603260045260246000fd5b9060005260206000200160009054906101000a900473ffffffffffffffffffffffffffffffffffffffff1690506000600a60008373ffffffffffffffffffffffffffffffffffffffff1673ffffffffffffffffffffffffffffffffffffffff16815260200190815260200160002054905060006117f08287876118d4565b905047811115611835576040517f08c379a000000000000000000000000000000000000000000000000000000000815260040161182c90611e57565b60405180910390fd5b8273ffffffffffffffffffffffffffffffffffffffff166108fc829081150290604051600060405180830381858888f1935050505015801561187b573d6000803e3d6000fd5b50505050808061188a906121e5565b915050611729565b507f29c5b2d9b1697298532bbfb34a493188b165c1d910b90854c1de7027661cb7126040516118c090611e77565b60405180910390a15050565b5050565b5050565b60006118df8261191c565b8160ff166064856118f09190612060565b6118fa9190612091565b8360ff16856119099190612091565b611913919061200a565b90509392505050565b600a8160ff1610158015611934575060638160ff1611155b611973576040517f08c379a000000000000000000000000000000000000000000000000000000000815260040161196a90611dd7565b60405180910390fd5b50565b82805461198290612182565b90600052602060002090601f0160209004810192826119a457600085556119eb565b82601f106119bd57805160ff19168380011785556119eb565b828001600101855582156119eb579182015b828111156119ea5782518255916020019190600101906119cf565b5b5090506119f891906119fc565b5090565b5b80821115611a155760008160009055506001016119fd565b5090565b6000611a2c611a2784611fb2565b611f8d565b905082815260208101848484011115611a4457600080fd5b611a4f848285612140565b509392505050565b600082601f830112611a6857600080fd5b8135611a78848260208601611a19565b91505092915050565b600081359050611a90816124e1565b92915050565b600080600060608486031215611aab57600080fd5b600084013567ffffffffffffffff811115611ac557600080fd5b611ad186828701611a57565b9350506020611ae286828701611a81565b9250506040611af386828701611a81565b9150509250925092565b600060208284031215611b0f57600080fd5b6000611b1d84828501611a81565b91505092915050565b611b2f816120eb565b82525050565b611b3e816120fd565b82525050565b6000611b4f82611fe3565b611b598185611fee565b9350611b6981856020860161214f565b611b72816122ea565b840191505092915050565b6000611b8882611fe3565b611b928185611fff565b9350611ba281856020860161214f565b80840191505092915050565b6000611bbb602483611fee565b9150611bc6826122fb565b604082019050919050565b6000611bde602083611fee565b9150611be98261234a565b602082019050919050565b6000611c01601183611fee565b9150611c0c82612373565b602082019050919050565b6000611c24601e83611fee565b9150611c2f8261239c565b602082019050919050565b6000611c47601e83611fee565b9150611c52826123c5565b602082019050919050565b6000611c6a601c83611fee565b9150611c75826123ee565b602082019050919050565b6000611c8d601983611fee565b9150611c9882612417565b602082019050919050565b6000611cb0602083611fee565b9150611cbb82612440565b602082019050919050565b6000611cd3600683611fee565b9150611cde82612469565b602082019050919050565b6000611cf6603383611fee565b9150611d0182612492565b604082019050919050565b611d1581612129565b82525050565b611d2481612133565b82525050565b6000611d368284611b7d565b915081905092915050565b6000602082019050611d566000830184611b26565b92915050565b6000602082019050611d716000830184611b35565b92915050565b60006020820190508181036000830152611d9081611bae565b9050919050565b60006020820190508181036000830152611db081611bd1565b9050919050565b60006020820190508181036000830152611dd081611bf4565b9050919050565b60006020820190508181036000830152611df081611c17565b9050919050565b60006020820190508181036000830152611e1081611c3a565b9050919050565b60006020820190508181036000830152611e3081611c5d565b9050919050565b60006020820190508181036000830152611e5081611c80565b9050919050565b60006020820190508181036000830152611e7081611ca3565b9050919050565b60006020820190508181036000830152611e9081611cc6565b9050919050565b60006020820190508181036000830152611eb081611ce9565b9050919050565b6000602082019050611ecc6000830184611d0c565b92915050565b6000604082019050611ee76000830185611d0c565b8181036020830152611ef98184611b44565b90509392505050565b600060e082019050611f17600083018a611d1b565b8181036020830152611f298189611b44565b90508181036040830152611f3d8188611b44565b90508181036060830152611f518187611b44565b90508181036080830152611f658186611b44565b9050611f7460a0830185611d1b565b611f8160c0830184611d1b565b98975050505050505050565b6000611f97611fa8565b9050611fa382826121b4565b919050565b6000604051905090565b600067ffffffffffffffff821115611fcd57611fcc6122bb565b5b611fd6826122ea565b9050602081019050919050565b600081519050919050565b600082825260208201905092915050565b600081905092915050565b600061201582612129565b915061202083612129565b9250827fffffffffffffffffffffffffffffffffffffffffffffffffffffffffffffffff038211156120555761205461222e565b5b828201905092915050565b600061206b82612129565b915061207683612129565b9250826120865761208561225d565b5b828204905092915050565b600061209c82612129565b91506120a783612129565b9250817fffffffffffffffffffffffffffffffffffffffffffffffffffffffffffffffff04831182151516156120e0576120df61222e565b5b828202905092915050565b60006120f682612109565b9050919050565b60008115159050919050565b600073ffffffffffffffffffffffffffffffffffffffff82169050919050565b6000819050919050565b600060ff82169050919050565b82818337600083830152505050565b60005b8381101561216d578082015181840152602081019050612152565b8381111561217c576000848401525b50505050565b6000600282049050600182168061219a57607f821691505b602082108114156121ae576121ad61228c565b5b50919050565b6121bd826122ea565b810181811067ffffffffffffffff821117156121dc576121db6122bb565b5b80604052505050565b60006121f082612129565b91507fffffffffffffffffffffffffffffffffffffffffffffffffffffffffffffffff8214156122235761222261222e565b5b600182019050919050565b7f4e487b7100000000000000000000000000000000000000000000000000000000600052601160045260246000fd5b7f4e487b7100000000000000000000000000000000000000000000000000000000600052601260045260246000fd5b7f4e487b7100000000000000000000000000000000000000000000000000000000600052602260045260246000fd5b7f4e487b7100000000000000000000000000000000000000000000000000000000600052604160045260246000fd5b6000601f19601f8301169050919050565b7f43757272656e742073706f727473206576656e7420697320616c72656164792060008201527f646f6e6500000000000000000000000000000000000000000000000000000000602082015250565b7f5468697320757365722068617320616c7265616479206d616465206120626574600082015250565b7f496e636f7272656374206f7574636f6d65000000000000000000000000000000600082015250565b7f446563696d616c2070617274206d7573742062652074776f2d64696769740000600082015250565b7f5468657265206973206e6f206576656e74207769746820746869732069640000600082015250565b7f43757272656e742073706f727473206576656e74206973206f76657200000000600082015250565b7f4d696e696d616c2062657420697320302e303030332045544800000000000000600082015250565b7f4e6f7420656e6f75676820657468657220746f20726566756e64206120626574600082015250565b7f7465616d5f310000000000000000000000000000000000000000000000000000600082015250565b7f546869732066756e6374696f6e206973207265737472696374656420746f207460008201527f686520636f6e74726163742773206f776e657200000000000000000000000000602082015250565b6124ea81612133565b81146124f557600080fd5b5056fea26469706673582212203ef535e2fab7855f8446bd07b14907829753b91e002980587a584fdeb175936164736f6c634300080400332f2f73746f726167652e6d64732e79616e6465782e6e65742f6765742d73706f72742f36393630332f39323838633936303439386632353365313536313065343064373331653731662e706e672f2f73746f726167652e6d64732e79616e6465782e6e65742f6765742d73706f72742f36373338392f64616264323836333133353531393836653466396537393466353031623732652e706e672f2f73746f726167652e6d64732e79616e6465782e6e65742f6765742d73706f72742f36373338392f36366539336365346431656231363634333836346633663331316433656638332e706e672f2f73746f726167652e6d64732e79616e6465782e6e65742f6765742d73706f72742f31303439332f61316637326432353937613231383430353236373666376138636263643538632e706e67",
  "immutableReferences": {},
  "source": "// SPDX-License-Identifier: MIT\npragma solidity >=0.8.0 <0.9.0;\n\n\nstruct SportsEvent {\n  uint8 id;\n  string team_1_name;\n  string team_2_name;\n  string team_1_logo;\n  string team_2_logo;\n  uint8 team_1_win_percent;\n  uint8 team_2_win_percent;\n}\n\ncontract GGbet {\n  address public owner = msg.sender;\n\n  SportsEvent[] private sports_events_set;\n  SportsEvent public current_sports_event;\n  bool public sports_event_in_progress = false;\n\n  uint public min_bet = 300000000000000; // 0.0003 eth;\n  mapping(address => uint) private team_1_bets;\n  mapping(address => uint) private draw_bets;\n  mapping(address => uint) private team_2_bets;\n  address[] private team_1_bets_addresses;\n  address[] private team_2_bets_addresses;\n  address[] private draw_bets_addresses;\n\n  constructor() {\n    initializeSportsEvents();\n  }\n\n  modifier restricted() {\n    require(\n      msg.sender == owner,\n      \"This function is restricted to the contract's owner\"\n    );\n    _;\n  }\n\n  event BetAccepted(address indexed _address, uint _amount, string _outcome);\n  event BetsRefunded(string _outcome);\n\n  /*\n    PUBLIC functions\n  */\n\n  function setCurrentSportsEventById(uint8 _id) public restricted {\n    (\n      uint8 id,\n      string memory team_1_name,\n      string memory team_2_name,\n      string memory team_1_logo,\n      string memory team_2_logo,\n      uint8 team_1_win_percent,\n      uint8 team_2_win_percent\n    ) = getSportsEventById(_id);\n\n    current_sports_event = SportsEvent({\n      id: id,\n      team_1_name: team_1_name,\n      team_2_name: team_2_name,\n      team_1_logo: team_1_logo,\n      team_2_logo: team_2_logo,\n      team_1_win_percent: team_1_win_percent,\n      team_2_win_percent: team_2_win_percent\n    });\n    sports_event_in_progress = true;\n  }\n\n  function getSportsEventsCount() public view restricted returns (uint) {\n    return sports_events_set.length;\n  }\n\n  function getSportsEventById(uint8 _id)\n    public\n    view\n    restricted\n    returns (\n      uint8 id,\n      string memory team_1_name,\n      string memory team_2_name,\n      string memory team_1_logo,\n      string memory team_2_logo,\n      uint8 team_1_win_percent,\n      uint8 team_2_win_percent\n    )\n  {\n    for(uint i = 0; i < sports_events_set.length; i++) {\n      if (_id == sports_events_set[i].id) {\n        SportsEvent storage temp = sports_events_set[i]; // reference, no copy. just for brevity\n\n        return (\n          temp.id,\n          temp.team_1_name,\n          temp.team_2_name,\n          temp.team_1_logo,\n          temp.team_2_logo,\n          temp.team_1_win_percent,\n          temp.team_2_win_percent\n        );\n      }\n    }\n\n    revert(\"There is no event with this id\");\n  }\n\n  function betOnTeam1() public payable {\n    require(sports_event_in_progress, 'Current sports event is over');\n    require(msg.value >= min_bet, 'Minimal bet is 0.0003 ETH');\n    requireUserHasNoActiveBets();\n\n    team_1_bets[msg.sender] = msg.value;\n    team_1_bets_addresses.push(msg.sender);\n    string memory _outcome = 'team_1';\n    emit BetAccepted(msg.sender, msg.value, _outcome);\n  }\n\n  function betOnDraw() public payable {\n    require(sports_event_in_progress, 'Current sports event is over');\n    require(msg.value >= min_bet, 'Minimal bet is 0.0003 ETH');\n    requireUserHasNoActiveBets();\n\n    draw_bets[msg.sender] = msg.value;\n    draw_bets_addresses.push(msg.sender);\n    string memory _outcome = 'draw';\n    emit BetAccepted(msg.sender, msg.value, _outcome);\n  }\n\n  function betOnTeam2() public payable {\n    require(sports_event_in_progress, 'Current sports event is over');\n    require(msg.value >= min_bet, 'Minimal bet is 0.0003 ETH');\n    requireUserHasNoActiveBets();\n\n    team_2_bets[msg.sender] = msg.value;\n    team_2_bets_addresses.push(msg.sender);\n    string memory _outcome = 'team_2';\n    emit BetAccepted(msg.sender, msg.value, _outcome);\n  }\n\n  function getUserBet() public view returns(uint bet, string memory outcome) {\n    require(sports_event_in_progress, 'Current sports event is over');\n    uint team_1_bet = team_1_bets[msg.sender];\n    uint draw_bet = draw_bets[msg.sender];\n    uint team_2_bet = team_2_bets[msg.sender];\n    uint _bet = 0;\n    string memory _outcome;\n\n    if (team_1_bet >= min_bet) {\n      _bet = team_1_bet;\n      _outcome = 'team_1';\n    }\n    else if (draw_bet >= min_bet) {\n      _bet = draw_bet;\n      _outcome = 'draw';\n    }\n    else if (team_2_bet >= min_bet) {\n      _bet = team_2_bet;\n      _outcome = 'team_2';\n    }\n\n    return (_bet, _outcome);\n  }\n\n  function endCurrentSportsEvent(\n    string memory _outcome,\n    uint8 coef_int_part,\n    uint8 coef_decimal_part\n  )\n    public restricted\n  {\n    require(sports_event_in_progress, 'Current sports event is already done');\n    requireCorrectOutcome(_outcome);\n\n    sports_event_in_progress = false;\n    refundBets(_outcome, coef_int_part, coef_decimal_part);\n    //     \n  }\n\n  /*\n    PRIVATE functions\n  */\n\n  function refundBets(\n    string memory _outcome,\n    uint8 coef_int_part,\n    uint8 coef_decimal_part\n  )\n    private\n  {\n    if (stringsEqual(_outcome, 'team_1')) {\n      refundBetsOnTeam1(coef_int_part, coef_decimal_part);\n    }\n    else if (stringsEqual(_outcome, 'team_2')) {\n      refundBetsOnTeam2(coef_int_part, coef_decimal_part);\n    }\n    else if (stringsEqual(_outcome, 'draw')) {\n      refundBetsOnDraw(coef_int_part, coef_decimal_part);\n    }\n\n\n  }\n\n  function refundBetsOnTeam1(uint8 coef_int_part, uint8 coef_decimal_part) private {\n    for (uint i = 0; i < team_1_bets_addresses.length; i++) {\n      address payable user_address = payable(team_1_bets_addresses[i]);\n      uint bet_amount = team_1_bets[user_address];\n      uint refund_amount = calculateBetRefund(bet_amount, coef_int_part, coef_decimal_part);\n\n      require(refund_amount <= address(this).balance, 'Not enough ether to refund a bet');\n      user_address.transfer(refund_amount);\n    }\n\n    emit BetsRefunded('team_1');\n  }\n\n  function refundBetsOnTeam2(uint8 coef_int_part, uint8 coef_decimal_part) private {\n\n  }\n\n  function refundBetsOnDraw(uint8 coef_int_part, uint8 coef_decimal_part) private {\n\n  }\n\n  function calculateBetRefund(\n    uint bet_amount,\n    uint8 coef_int_part,\n    uint8 coef_decimal_part\n  )\n    private pure returns (uint refund_amount)\n  {\n    requireDecimalIsTwoDigit(coef_decimal_part);\n\n    return bet_amount * coef_int_part + bet_amount / 100 * coef_decimal_part;\n  }\n\n  function initializeSportsEvents() private {\n    sports_events_set.push(getLfcVsBarcaEvent());\n    sports_events_set.push(getBayernVsMancityEvent());\n  }\n\n  function getLfcVsBarcaEvent() private pure returns (SportsEvent memory) {\n    return SportsEvent({\n      id: 0,\n      team_1_name : 'FC Liverpool',\n      team_2_name : 'FC Barcelona',\n      team_1_logo: '//storage.mds.yandex.net/get-sport/10493/a1f72d2597a2184052676f7a8cbcd58c.png',\n      team_2_logo: '//storage.mds.yandex.net/get-sport/69603/9288c960498f253e15610e40d731e71f.png',\n      team_1_win_percent: 65,\n      team_2_win_percent: 10\n    });\n  }\n\n  function getBayernVsMancityEvent() private pure returns (SportsEvent memory) {\n    return SportsEvent({\n      id: 1,\n      team_1_name : 'FC Bayern',\n      team_2_name : 'FC Manchester City',\n      team_1_logo: '//storage.mds.yandex.net/get-sport/67389/dabd286313551986e4f9e794f501b72e.png',\n      team_2_logo: '//storage.mds.yandex.net/get-sport/67389/66e93ce4d1eb16643864f3f311d3ef83.png',\n      team_1_win_percent: 25,\n      team_2_win_percent: 35\n    });\n  }\n\n  function requireUserHasNoActiveBets() private view {\n    (uint bet,) = getUserBet();\n\n    require(bet == 0, 'This user has already made a bet');\n  }\n\n  function requireDecimalIsTwoDigit(uint8 decimal) private pure {\n    require(decimal >= 10 && decimal <= 99, 'Decimal part must be two-digit');\n  }\n\n  function requireCorrectOutcome(string memory _outcome) private pure {\n    require(\n      stringsEqual(_outcome, 'team_1') ||\n      stringsEqual(_outcome, 'team_2') ||\n      stringsEqual(_outcome, 'draw'),\n      \"Incorrect outcome\"\n    );\n  }\n\n  function stringsEqual(string memory a, string memory b) private pure returns (bool) {\n    return keccak256(abi.encodePacked(a)) == keccak256(abi.encodePacked(b));\n  }\n}\n",
  "sourcePath": "/home/ivannn/Projects/BookmakerDAPP/bookmaker-dapp/contracts/GGbet.sol",
  "compiler": {
    "name": "solc",
    "version": "0.8.4+commit.c7e474f2.Emscripten.clang"
  },
  "schemaVersion": "3.2.3",
  "updatedAt": "2022-02-19T14:48:46.638Z",
  "networkType": "ethereum",
  "devdoc": {
    "kind": "dev",
    "methods": {},
    "version": 1
  },
  "userdoc": {
    "kind": "user",
    "methods": {},
    "version": 1
  }
}