{
  "contractName": "GGbet",
  "abi": [
    {
      "inputs": [],
      "name": "current_sports_event",
      "outputs": [
        {
          "internalType": "uint8",
          "name": "id",
          "type": "uint8"
        },
        {
          "components": [
            {
              "components": [
                {
                  "internalType": "string",
                  "name": "name",
                  "type": "string"
                }
              ],
              "internalType": "struct Team",
              "name": "team_1",
              "type": "tuple"
            },
            {
              "components": [
                {
                  "internalType": "string",
                  "name": "name",
                  "type": "string"
                }
              ],
              "internalType": "struct Team",
              "name": "team_2",
              "type": "tuple"
            }
          ],
          "internalType": "struct Match",
          "name": "match_data",
          "type": "tuple"
        },
        {
          "internalType": "uint8",
          "name": "team_1_win_percent",
          "type": "uint8"
        },
        {
          "internalType": "uint8",
          "name": "team_2_win_percent",
          "type": "uint8"
        }
      ],
      "stateMutability": "view",
      "type": "function",
      "constant": true
    },
    {
      "inputs": [],
      "name": "owner",
      "outputs": [
        {
          "internalType": "address",
          "name": "",
          "type": "address"
        }
      ],
      "stateMutability": "view",
      "type": "function",
      "constant": true
    },
    {
      "inputs": [],
      "name": "sports_event_in_progress",
      "outputs": [
        {
          "internalType": "bool",
          "name": "",
          "type": "bool"
        }
      ],
      "stateMutability": "view",
      "type": "function",
      "constant": true
    },
    {
      "inputs": [
        {
          "internalType": "uint8",
          "name": "_id",
          "type": "uint8"
        }
      ],
      "name": "setCurrentSportsEventById",
      "outputs": [],
      "stateMutability": "nonpayable",
      "type": "function"
    },
    {
      "inputs": [],
      "name": "initializeSportsEvents",
      "outputs": [],
      "stateMutability": "nonpayable",
      "type": "function"
    },
    {
      "inputs": [],
      "name": "getSportsEventsSet",
      "outputs": [
        {
          "components": [
            {
              "internalType": "uint8",
              "name": "id",
              "type": "uint8"
            },
            {
              "components": [
                {
                  "components": [
                    {
                      "internalType": "string",
                      "name": "name",
                      "type": "string"
                    }
                  ],
                  "internalType": "struct Team",
                  "name": "team_1",
                  "type": "tuple"
                },
                {
                  "components": [
                    {
                      "internalType": "string",
                      "name": "name",
                      "type": "string"
                    }
                  ],
                  "internalType": "struct Team",
                  "name": "team_2",
                  "type": "tuple"
                }
              ],
              "internalType": "struct Match",
              "name": "match_data",
              "type": "tuple"
            },
            {
              "internalType": "uint8",
              "name": "team_1_win_percent",
              "type": "uint8"
            },
            {
              "internalType": "uint8",
              "name": "team_2_win_percent",
              "type": "uint8"
            }
          ],
          "internalType": "struct SportsEvent[]",
          "name": "",
          "type": "tuple[]"
        }
      ],
      "stateMutability": "view",
      "type": "function",
      "constant": true
    }
  ],
  "bytecode": "0x6080604052336000806101000a81548173ffffffffffffffffffffffffffffffffffffffff021916908373ffffffffffffffffffffffffffffffffffffffff1602179055506000600760006101000a81548160ff02191690831515021790555034801561006b57600080fd5b5061175e8061007b6000396000f3fe608060405234801561001057600080fd5b50600436106100625760003560e01c80630b2db8961461006757806377dcd0641461008557806379adae7a146100a35780638da5cb5b146100c4578063ca4eef37146100e2578063e723431d146100ec575b600080fd5b61006f610108565b60405161007c91906113f8565b60405180910390f35b61008d6103ac565b60405161009a919061141a565b60405180910390f35b6100ab6103bf565b6040516100bb9493929190611475565b60405180910390f35b6100cc61055a565b6040516100d991906113dd565b60405180910390f35b6100ea61057e565b005b6101066004803603810190610101919061115b565b6108df565b005b606060008054906101000a900473ffffffffffffffffffffffffffffffffffffffff1673ffffffffffffffffffffffffffffffffffffffff163373ffffffffffffffffffffffffffffffffffffffff1614610198576040517f08c379a000000000000000000000000000000000000000000000000000000000815260040161018f90611455565b60405180910390fd5b6002805480602002602001604051908101604052809291908181526020016000905b828210156103a357838290600052602060002090600402016040518060800160405290816000820160009054906101000a900460ff1660ff1660ff168152602001600182016040518060400160405290816000820160405180602001604052908160008201805461022a906115af565b80601f0160208091040260200160405190810160405280929190818152602001828054610256906115af565b80156102a35780601f10610278576101008083540402835291602001916102a3565b820191906000526020600020905b81548152906001019060200180831161028657829003601f168201915b5050505050815250508152602001600182016040518060200160405290816000820180546102d0906115af565b80601f01602080910402602001604051908101604052809291908181526020018280546102fc906115af565b80156103495780601f1061031e57610100808354040283529160200191610349565b820191906000526020600020905b81548152906001019060200180831161032c57829003601f168201915b5050505050815250508152505081526020016003820160009054906101000a900460ff1660ff1660ff1681526020016003820160019054906101000a900460ff1660ff1660ff1681525050815260200190600101906101ba565b50505050905090565b600760009054906101000a900460ff1681565b60038060000160009054906101000a900460ff16908060010160405180604001604052908160008201604051806020016040529081600082018054610403906115af565b80601f016020809104026020016040519081016040528092919081815260200182805461042f906115af565b801561047c5780601f106104515761010080835404028352916020019161047c565b820191906000526020600020905b81548152906001019060200180831161045f57829003601f168201915b5050505050815250508152602001600182016040518060200160405290816000820180546104a9906115af565b80601f01602080910402602001604051908101604052809291908181526020018280546104d5906115af565b80156105225780601f106104f757610100808354040283529160200191610522565b820191906000526020600020905b81548152906001019060200180831161050557829003601f168201915b50505050508152505081525050908060030160009054906101000a900460ff16908060030160019054906101000a900460ff16905084565b60008054906101000a900473ffffffffffffffffffffffffffffffffffffffff1681565b60008054906101000a900473ffffffffffffffffffffffffffffffffffffffff1673ffffffffffffffffffffffffffffffffffffffff163373ffffffffffffffffffffffffffffffffffffffff161461060c576040517f08c379a000000000000000000000000000000000000000000000000000000000815260040161060390611455565b60405180910390fd5b610614610a57565b6000600180549050905060005b818110156108db57600081905060006107d86001848154811061066d577f4e487b7100000000000000000000000000000000000000000000000000000000600052603260045260246000fd5b9060005260206000209060020201604051806040016040529081600082016040518060200160405290816000820180546106a6906115af565b80601f01602080910402602001604051908101604052809291908181526020018280546106d2906115af565b801561071f5780601f106106f45761010080835404028352916020019161071f565b820191906000526020600020905b81548152906001019060200180831161070257829003601f168201915b50505050508152505081526020016001820160405180602001604052908160008201805461074c906115af565b80601f0160208091040260200160405190810160405280929190818152602001828054610778906115af565b80156107c55780601f1061079a576101008083540402835291602001916107c5565b820191906000526020600020905b8154815290600101906020018083116107a857829003601f168201915b5050505050815250508152505083610b6f565b9050600281908060018154018082558091505060019003906000526020600020906004020160009091909190915060008201518160000160006101000a81548160ff021916908360ff1602179055506020820151816001016000820151816000016000820151816000019080519060200190610855929190611033565b505050602082015181600101600082015181600001908051906020019061087d929190611033565b505050505060408201518160030160006101000a81548160ff021916908360ff16021790555060608201518160030160016101000a81548160ff021916908360ff1602179055505050505080806108d3906115e1565b915050610621565b5050565b60008054906101000a900473ffffffffffffffffffffffffffffffffffffffff1673ffffffffffffffffffffffffffffffffffffffff163373ffffffffffffffffffffffffffffffffffffffff161461096d576040517f08c379a000000000000000000000000000000000000000000000000000000000815260040161096490611455565b60405180910390fd5b61097681610bab565b600360008201518160000160006101000a81548160ff021916908360ff16021790555060208201518160010160008201518160000160008201518160000190805190602001906109c7929190611033565b50505060208201518160010160008201518160000190805190602001906109ef929190611033565b505050505060408201518160030160006101000a81548160ff021916908360ff16021790555060608201518160030160016101000a81548160ff021916908360ff1602179055509050506001600760006101000a81548160ff02191690831515021790555050565b6000610a61610e8f565b90506000610a6d610ebf565b905060018290806001815401808255809150506001900390600052602060002090600202016000909190919091506000820151816000016000820151816000019080519060200190610ac0929190611033565b5050506020820151816001016000820151816000019080519060200190610ae8929190611033565b505050505060018190806001815401808255809150506001900390600052602060002090600202016000909190919091506000820151816000016000820151816000019080519060200190610b3e929190611033565b5050506020820151816001016000820151816000019080519060200190610b66929190611033565b50505050505050565b610b776110b9565b60405180608001604052808360ff168152602001848152602001604160ff168152602001600a60ff16815250905092915050565b610bb36110b9565b60005b600280549050811015610e4e5760028181548110610bfd577f4e487b7100000000000000000000000000000000000000000000000000000000600052603260045260246000fd5b906000526020600020906004020160000160009054906101000a900460ff1660ff168360ff161415610e3b5760028181548110610c63577f4e487b7100000000000000000000000000000000000000000000000000000000600052603260045260246000fd5b90600052602060002090600402016040518060800160405290816000820160009054906101000a900460ff1660ff1660ff1681526020016001820160405180604001604052908160008201604051806020016040529081600082018054610cc9906115af565b80601f0160208091040260200160405190810160405280929190818152602001828054610cf5906115af565b8015610d425780601f10610d1757610100808354040283529160200191610d42565b820191906000526020600020905b815481529060010190602001808311610d2557829003601f168201915b505050505081525050815260200160018201604051806020016040529081600082018054610d6f906115af565b80601f0160208091040260200160405190810160405280929190818152602001828054610d9b906115af565b8015610de85780601f10610dbd57610100808354040283529160200191610de8565b820191906000526020600020905b815481529060010190602001808311610dcb57829003601f168201915b5050505050815250508152505081526020016003820160009054906101000a900460ff1660ff1660ff1681526020016003820160019054906101000a900460ff1660ff1660ff1681525050915050610e8a565b8080610e46906115e1565b915050610bb6565b506040517f08c379a0000000000000000000000000000000000000000000000000000000008152600401610e8190611435565b60405180910390fd5b919050565b610e976110f0565b6040518060400160405280610eaa610eef565b8152602001610eb7610f40565b815250905090565b610ec76110f0565b6040518060400160405280610eda610f91565b8152602001610ee7610fe2565b815250905090565b610ef7611116565b60405180602001604052806040518060400160405280600c81526020017f4643204c69766572706f6f6c0000000000000000000000000000000000000000815250815250905090565b610f48611116565b60405180602001604052806040518060400160405280600c81526020017f46432042617263656c6f6e610000000000000000000000000000000000000000815250815250905090565b610f99611116565b60405180602001604052806040518060400160405280600981526020017f46432042617965726e0000000000000000000000000000000000000000000000815250815250905090565b610fea611116565b60405180602001604052806040518060400160405280601281526020017f4643204d616e6368657374657220436974790000000000000000000000000000815250815250905090565b82805461103f906115af565b90600052602060002090601f01602090048101928261106157600085556110a8565b82601f1061107a57805160ff19168380011785556110a8565b828001600101855582156110a8579182015b828111156110a757825182559160200191906001019061108c565b5b5090506110b59190611129565b5090565b6040518060800160405280600060ff1681526020016110d66110f0565b8152602001600060ff168152602001600060ff1681525090565b6040518060400160405280611103611116565b8152602001611110611116565b81525090565b6040518060200160405280606081525090565b5b8082111561114257600081600090555060010161112a565b5090565b60008135905061115581611711565b92915050565b60006020828403121561116d57600080fd5b600061117b84828501611146565b91505092915050565b60006111908383611332565b905092915050565b6111a181611527565b82525050565b60006111b2826114d1565b6111bc81856114f4565b9350836020820285016111ce856114c1565b8060005b8581101561120a57848403895281516111eb8582611184565b94506111f6836114e7565b925060208a019950506001810190506111d2565b50829750879550505050505092915050565b61122581611539565b82525050565b6000611236826114dc565b6112408185611505565b935061125081856020860161157c565b61125981611688565b840191505092915050565b6000611271601e83611516565b915061127c82611699565b602082019050919050565b6000611294603383611516565b915061129f826116c2565b604082019050919050565b600060408301600083015184820360008601526112c78282611395565b915050602083015184820360208601526112e18282611395565b9150508091505092915050565b6000604083016000830151848203600086015261130b8282611395565b915050602083015184820360208601526113258282611395565b9150508091505092915050565b600060808301600083015161134a60008601826113bf565b506020830151848203602086015261136282826112aa565b915050604083015161137760408601826113bf565b50606083015161138a60608601826113bf565b508091505092915050565b600060208301600083015184820360008601526113b2828261122b565b9150508091505092915050565b6113c88161156f565b82525050565b6113d78161156f565b82525050565b60006020820190506113f26000830184611198565b92915050565b6000602082019050818103600083015261141281846111a7565b905092915050565b600060208201905061142f600083018461121c565b92915050565b6000602082019050818103600083015261144e81611264565b9050919050565b6000602082019050818103600083015261146e81611287565b9050919050565b600060808201905061148a60008301876113ce565b818103602083015261149c81866112ee565b90506114ab60408301856113ce565b6114b860608301846113ce565b95945050505050565b6000819050602082019050919050565b600081519050919050565b600081519050919050565b6000602082019050919050565b600082825260208201905092915050565b600082825260208201905092915050565b600082825260208201905092915050565b600061153282611545565b9050919050565b60008115159050919050565b600073ffffffffffffffffffffffffffffffffffffffff82169050919050565b6000819050919050565b600060ff82169050919050565b60005b8381101561159a57808201518184015260208101905061157f565b838111156115a9576000848401525b50505050565b600060028204905060018216806115c757607f821691505b602082108114156115db576115da611659565b5b50919050565b60006115ec82611565565b91507fffffffffffffffffffffffffffffffffffffffffffffffffffffffffffffffff82141561161f5761161e61162a565b5b600182019050919050565b7f4e487b7100000000000000000000000000000000000000000000000000000000600052601160045260246000fd5b7f4e487b7100000000000000000000000000000000000000000000000000000000600052602260045260246000fd5b6000601f19601f8301169050919050565b7f5468657265206973206e6f206576656e74207769746820746869732069640000600082015250565b7f546869732066756e6374696f6e206973207265737472696374656420746f207460008201527f686520636f6e74726163742773206f776e657200000000000000000000000000602082015250565b61171a8161156f565b811461172557600080fd5b5056fea2646970667358221220349941c46a852ad5badc11d7fa3bf1e85fbab1523ebc8fb5841fb70e1caf66bf64736f6c63430008040033",
  "immutableReferences": {},
  "source": "pragma solidity >=0.4.22 <0.9.0;\n\n\nstruct Team {\n  string name;\n}\n\n\nstruct Match {\n  Team team_1;\n  Team team_2;\n}\n\n\nstruct SportsEvent {\n  uint8 id;\n  Match match_data;\n  uint8 team_1_win_percent;\n  uint8 team_2_win_percent;\n}\n\n\ncontract GGbet {\n  address public owner = msg.sender;\n\n  Match[] private matches_set; // storage, obviously - it is shared between function calls and transactions\n  SportsEvent[] private sports_events_set;\n\n  SportsEvent public current_sports_event;\n  bool public sports_event_in_progress = false;\n\n  modifier restricted() {\n    require(\n      msg.sender == owner,\n      \"This function is restricted to the contract's owner\"\n    );\n    _;\n  }\n\n  /*\n    PUBLIC functions\n  */\n\n  function setCurrentSportsEventById(uint8 _id) public restricted {\n    current_sports_event = getSportsEventById(_id);\n    sports_event_in_progress = true;\n  }\n\n  function initializeSportsEvents() public restricted {\n    initializeMatches();\n\n    uint matches_count = matches_set.length;\n\n    for (uint i = 0; i < matches_count; i++) {\n      uint8 id = uint8(i);\n      SportsEvent memory _event = generateSportsEventFromMatch(\n        matches_set[i],\n        id\n      );\n      sports_events_set.push(_event);\n    }\n  }\n\n  function getSportsEventsSet() public view restricted returns (SportsEvent[] memory) {\n    return sports_events_set;\n  }\n\n  /*\n    PRIVATE functions\n  */\n\n  function getSportsEventById(uint8 _id) private view returns (SportsEvent memory) {\n    for(uint i = 0; i < sports_events_set.length; i++) {\n      if (_id == sports_events_set[i].id) {\n        return sports_events_set[i];\n      }\n    }\n\n    revert(\"There is no event with this id\");\n  }\n\n  function initializeMatches() private {\n    Match memory lfc_vs_barca = getLfcVsBarcaMatch();\n    Match memory bayern_vs_mancity = getBayernVsMancityMatch();\n    matches_set.push(lfc_vs_barca);\n    matches_set.push(bayern_vs_mancity);\n  }\n\n  function generateSportsEventFromMatch(\n    Match memory _match,\n    uint8 _id\n  )\n    private\n    pure\n    returns (SportsEvent memory)\n  {\n    return SportsEvent({\n      id: _id,\n      match_data: _match,\n      team_1_win_percent: 65,\n      team_2_win_percent: 10\n    });\n  }\n\n  function getLfcVsBarcaMatch() private pure returns (Match memory) {\n    return Match({\n      team_1 : getLiverpoolTeam(),\n      team_2 : getBarcelonaTeam()\n    });\n  }\n\n  function getBayernVsMancityMatch() private pure returns (Match memory) {\n    return Match({\n      team_1 : getBayernTeam(),\n      team_2 : getMancityTeam()\n    });\n  }\n\n  function getLiverpoolTeam() private pure returns (Team memory) {\n    return Team({\n      name : 'FC Liverpool'\n    });\n  }\n\n  function getBarcelonaTeam() private pure returns (Team memory) {\n    return Team({\n      name : 'FC Barcelona'\n    });\n  }\n\n  function getBayernTeam() private pure returns (Team memory) {\n    return Team({\n      name : 'FC Bayern'\n    });\n  }\n\n  function getMancityTeam() private pure returns (Team memory) {\n    return Team({\n      name : 'FC Manchester City'\n    });\n  }\n}\n",
  "sourcePath": "/home/ivannn/Projects/BookmakerDAPP/bookmaker-dapp/contracts/GGbet.sol",
  "compiler": {
    "name": "solc",
    "version": "0.8.4+commit.c7e474f2.Emscripten.clang"
  },
  "schemaVersion": "3.2.3",
  "updatedAt": "2022-01-07T14:15:15.193Z",
  "networkType": "ethereum",
  "devdoc": {
    "kind": "dev",
    "methods": {},
    "version": 1
  },
  "userdoc": {
    "kind": "user",
    "methods": {},
    "version": 1
  }
}