{
  "contractName": "GGbet",
  "abi": [
    {
      "inputs": [],
      "stateMutability": "nonpayable",
      "type": "constructor"
    },
    {
      "inputs": [],
      "name": "current_sports_event",
      "outputs": [
        {
          "internalType": "uint8",
          "name": "id",
          "type": "uint8"
        },
        {
          "internalType": "string",
          "name": "team_1_name",
          "type": "string"
        },
        {
          "internalType": "string",
          "name": "team_2_name",
          "type": "string"
        },
        {
          "internalType": "string",
          "name": "team_1_logo",
          "type": "string"
        },
        {
          "internalType": "string",
          "name": "team_2_logo",
          "type": "string"
        },
        {
          "internalType": "uint8",
          "name": "team_1_win_percent",
          "type": "uint8"
        },
        {
          "internalType": "uint8",
          "name": "team_2_win_percent",
          "type": "uint8"
        }
      ],
      "stateMutability": "view",
      "type": "function",
      "constant": true
    },
    {
      "inputs": [],
      "name": "owner",
      "outputs": [
        {
          "internalType": "address",
          "name": "",
          "type": "address"
        }
      ],
      "stateMutability": "view",
      "type": "function",
      "constant": true
    },
    {
      "inputs": [],
      "name": "sports_event_in_progress",
      "outputs": [
        {
          "internalType": "bool",
          "name": "",
          "type": "bool"
        }
      ],
      "stateMutability": "view",
      "type": "function",
      "constant": true
    },
    {
      "inputs": [
        {
          "internalType": "uint8",
          "name": "_id",
          "type": "uint8"
        }
      ],
      "name": "setCurrentSportsEventById",
      "outputs": [],
      "stateMutability": "nonpayable",
      "type": "function"
    },
    {
      "inputs": [],
      "name": "getSportsEventsCount",
      "outputs": [
        {
          "internalType": "uint256",
          "name": "",
          "type": "uint256"
        }
      ],
      "stateMutability": "view",
      "type": "function",
      "constant": true
    },
    {
      "inputs": [
        {
          "internalType": "uint8",
          "name": "_id",
          "type": "uint8"
        }
      ],
      "name": "getSportsEventById",
      "outputs": [
        {
          "internalType": "uint8",
          "name": "id",
          "type": "uint8"
        },
        {
          "internalType": "string",
          "name": "team_1_name",
          "type": "string"
        },
        {
          "internalType": "string",
          "name": "team_2_name",
          "type": "string"
        },
        {
          "internalType": "string",
          "name": "team_1_logo",
          "type": "string"
        },
        {
          "internalType": "string",
          "name": "team_2_logo",
          "type": "string"
        },
        {
          "internalType": "uint8",
          "name": "team_1_win_percent",
          "type": "uint8"
        },
        {
          "internalType": "uint8",
          "name": "team_2_win_percent",
          "type": "uint8"
        }
      ],
      "stateMutability": "view",
      "type": "function",
      "constant": true
    }
  ],
  "bytecode": "0x6080604052336000806101000a81548173ffffffffffffffffffffffffffffffffffffffff021916908373ffffffffffffffffffffffffffffffffffffffff1602179055506000600860006101000a81548160ff0219169083151502179055503480156200006c57600080fd5b506200007d6200008360201b60201c565b620005ec565b600162000095620002bd60201b60201c565b908060018154018082558091505060019003906000526020600020906006020160009091909190915060008201518160000160006101000a81548160ff021916908360ff1602179055506020820151816001019080519060200190620000fd92919062000491565b5060408201518160020190805190602001906200011c92919062000491565b5060608201518160030190805190602001906200013b92919062000491565b5060808201518160040190805190602001906200015a92919062000491565b5060a08201518160050160006101000a81548160ff021916908360ff16021790555060c08201518160050160016101000a81548160ff021916908360ff16021790555050506001620001b1620003a760201b60201c565b908060018154018082558091505060019003906000526020600020906006020160009091909190915060008201518160000160006101000a81548160ff021916908360ff16021790555060208201518160010190805190602001906200021992919062000491565b5060408201518160020190805190602001906200023892919062000491565b5060608201518160030190805190602001906200025792919062000491565b5060808201518160040190805190602001906200027692919062000491565b5060a08201518160050160006101000a81548160ff021916908360ff16021790555060c08201518160050160016101000a81548160ff021916908360ff1602179055505050565b620002c762000522565b6040518060e00160405280600060ff1681526020016040518060400160405280600c81526020017f4643204c69766572706f6f6c000000000000000000000000000000000000000081525081526020016040518060400160405280600c81526020017f46432042617263656c6f6e61000000000000000000000000000000000000000081525081526020016040518060800160405280604d81526020016200169c604d913981526020016040518060800160405280604d8152602001620015b5604d91398152602001604160ff168152602001600a60ff16815250905090565b620003b162000522565b6040518060e00160405280600160ff1681526020016040518060400160405280600981526020017f46432042617965726e000000000000000000000000000000000000000000000081525081526020016040518060400160405280601281526020017f4643204d616e636865737465722043697479000000000000000000000000000081525081526020016040518060800160405280604d815260200162001602604d913981526020016040518060800160405280604d81526020016200164f604d91398152602001601960ff168152602001602360ff16815250905090565b8280546200049f9062000587565b90600052602060002090601f016020900481019282620004c357600085556200050f565b82601f10620004de57805160ff19168380011785556200050f565b828001600101855582156200050f579182015b828111156200050e578251825591602001919060010190620004f1565b5b5090506200051e919062000568565b5090565b6040518060e00160405280600060ff16815260200160608152602001606081526020016060815260200160608152602001600060ff168152602001600060ff1681525090565b5b808211156200058357600081600090555060010162000569565b5090565b60006002820490506001821680620005a057607f821691505b60208210811415620005b757620005b6620005bd565b5b50919050565b7f4e487b7100000000000000000000000000000000000000000000000000000000600052602260045260246000fd5b610fb980620005fc6000396000f3fe608060405234801561001057600080fd5b50600436106100625760003560e01c806329ddcac01461006757806377dcd0641461008557806379adae7a146100a35780638da5cb5b146100c7578063ac0cbc7e146100e5578063e723431d1461011b575b600080fd5b61006f610137565b60405161007c9190610cc0565b60405180910390f35b61008d6101d3565b60405161009a9190610c65565b60405180910390f35b6100ab6101e6565b6040516100be9796959493929190610cdb565b60405180910390f35b6100cf61045d565b6040516100dc9190610c4a565b60405180910390f35b6100ff60048036038101906100fa9190610b66565b610481565b6040516101129796959493929190610cdb565b60405180910390f35b61013560048036038101906101309190610b66565b6108c1565b005b60008060009054906101000a900473ffffffffffffffffffffffffffffffffffffffff1673ffffffffffffffffffffffffffffffffffffffff163373ffffffffffffffffffffffffffffffffffffffff16146101c8576040517f08c379a00000000000000000000000000000000000000000000000000000000081526004016101bf90610ca0565b60405180910390fd5b600180549050905090565b600860009054906101000a900460ff1681565b60028060000160009054906101000a900460ff169080600101805461020a90610e0a565b80601f016020809104026020016040519081016040528092919081815260200182805461023690610e0a565b80156102835780601f1061025857610100808354040283529160200191610283565b820191906000526020600020905b81548152906001019060200180831161026657829003601f168201915b50505050509080600201805461029890610e0a565b80601f01602080910402602001604051908101604052809291908181526020018280546102c490610e0a565b80156103115780601f106102e657610100808354040283529160200191610311565b820191906000526020600020905b8154815290600101906020018083116102f457829003601f168201915b50505050509080600301805461032690610e0a565b80601f016020809104026020016040519081016040528092919081815260200182805461035290610e0a565b801561039f5780601f106103745761010080835404028352916020019161039f565b820191906000526020600020905b81548152906001019060200180831161038257829003601f168201915b5050505050908060040180546103b490610e0a565b80601f01602080910402602001604051908101604052809291908181526020018280546103e090610e0a565b801561042d5780601f106104025761010080835404028352916020019161042d565b820191906000526020600020905b81548152906001019060200180831161041057829003601f168201915b5050505050908060050160009054906101000a900460ff16908060050160019054906101000a900460ff16905087565b60008054906101000a900473ffffffffffffffffffffffffffffffffffffffff1681565b600060608060608060008060008054906101000a900473ffffffffffffffffffffffffffffffffffffffff1673ffffffffffffffffffffffffffffffffffffffff163373ffffffffffffffffffffffffffffffffffffffff161461051a576040517f08c379a000000000000000000000000000000000000000000000000000000000815260040161051190610ca0565b60405180910390fd5b60005b60018054905081101561087a5760018181548110610564577f4e487b7100000000000000000000000000000000000000000000000000000000600052603260045260246000fd5b906000526020600020906006020160000160009054906101000a900460ff1660ff168960ff161415610867576000600182815481106105cc577f4e487b7100000000000000000000000000000000000000000000000000000000600052603260045260246000fd5b906000526020600020906006020190508060000160009054906101000a900460ff16816001018260020183600301846004018560050160009054906101000a900460ff168660050160019054906101000a900460ff1685805461062e90610e0a565b80601f016020809104026020016040519081016040528092919081815260200182805461065a90610e0a565b80156106a75780601f1061067c576101008083540402835291602001916106a7565b820191906000526020600020905b81548152906001019060200180831161068a57829003601f168201915b505050505095508480546106ba90610e0a565b80601f01602080910402602001604051908101604052809291908181526020018280546106e690610e0a565b80156107335780601f1061070857610100808354040283529160200191610733565b820191906000526020600020905b81548152906001019060200180831161071657829003601f168201915b5050505050945083805461074690610e0a565b80601f016020809104026020016040519081016040528092919081815260200182805461077290610e0a565b80156107bf5780601f10610794576101008083540402835291602001916107bf565b820191906000526020600020905b8154815290600101906020018083116107a257829003601f168201915b505050505093508280546107d290610e0a565b80601f01602080910402602001604051908101604052809291908181526020018280546107fe90610e0a565b801561084b5780601f106108205761010080835404028352916020019161084b565b820191906000526020600020905b81548152906001019060200180831161082e57829003601f168201915b50505050509250985098509850985098509850985050506108b6565b808061087290610e3c565b91505061051d565b506040517f08c379a00000000000000000000000000000000000000000000000000000000081526004016108ad90610c80565b60405180910390fd5b919395979092949650565b60008054906101000a900473ffffffffffffffffffffffffffffffffffffffff1673ffffffffffffffffffffffffffffffffffffffff163373ffffffffffffffffffffffffffffffffffffffff161461094f576040517f08c379a000000000000000000000000000000000000000000000000000000000815260040161094690610ca0565b60405180910390fd5b600080600080600080600061096388610481565b96509650965096509650965096506040518060e001604052808860ff1681526020018781526020018681526020018581526020018481526020018360ff1681526020018260ff16815250600260008201518160000160006101000a81548160ff021916908360ff16021790555060208201518160010190805190602001906109ec929190610aae565b506040820151816002019080519060200190610a09929190610aae565b506060820151816003019080519060200190610a26929190610aae565b506080820151816004019080519060200190610a43929190610aae565b5060a08201518160050160006101000a81548160ff021916908360ff16021790555060c08201518160050160016101000a81548160ff021916908360ff1602179055509050506001600860006101000a81548160ff0219169083151502179055505050505050505050565b828054610aba90610e0a565b90600052602060002090601f016020900481019282610adc5760008555610b23565b82601f10610af557805160ff1916838001178555610b23565b82800160010185558215610b23579182015b82811115610b22578251825591602001919060010190610b07565b5b509050610b309190610b34565b5090565b5b80821115610b4d576000816000905550600101610b35565b5090565b600081359050610b6081610f6c565b92915050565b600060208284031215610b7857600080fd5b6000610b8684828501610b51565b91505092915050565b610b9881610d82565b82525050565b610ba781610d94565b82525050565b6000610bb882610d66565b610bc28185610d71565b9350610bd2818560208601610dd7565b610bdb81610ee3565b840191505092915050565b6000610bf3601e83610d71565b9150610bfe82610ef4565b602082019050919050565b6000610c16603383610d71565b9150610c2182610f1d565b604082019050919050565b610c3581610dc0565b82525050565b610c4481610dca565b82525050565b6000602082019050610c5f6000830184610b8f565b92915050565b6000602082019050610c7a6000830184610b9e565b92915050565b60006020820190508181036000830152610c9981610be6565b9050919050565b60006020820190508181036000830152610cb981610c09565b9050919050565b6000602082019050610cd56000830184610c2c565b92915050565b600060e082019050610cf0600083018a610c3b565b8181036020830152610d028189610bad565b90508181036040830152610d168188610bad565b90508181036060830152610d2a8187610bad565b90508181036080830152610d3e8186610bad565b9050610d4d60a0830185610c3b565b610d5a60c0830184610c3b565b98975050505050505050565b600081519050919050565b600082825260208201905092915050565b6000610d8d82610da0565b9050919050565b60008115159050919050565b600073ffffffffffffffffffffffffffffffffffffffff82169050919050565b6000819050919050565b600060ff82169050919050565b60005b83811015610df5578082015181840152602081019050610dda565b83811115610e04576000848401525b50505050565b60006002820490506001821680610e2257607f821691505b60208210811415610e3657610e35610eb4565b5b50919050565b6000610e4782610dc0565b91507fffffffffffffffffffffffffffffffffffffffffffffffffffffffffffffffff821415610e7a57610e79610e85565b5b600182019050919050565b7f4e487b7100000000000000000000000000000000000000000000000000000000600052601160045260246000fd5b7f4e487b7100000000000000000000000000000000000000000000000000000000600052602260045260246000fd5b6000601f19601f8301169050919050565b7f5468657265206973206e6f206576656e74207769746820746869732069640000600082015250565b7f546869732066756e6374696f6e206973207265737472696374656420746f207460008201527f686520636f6e74726163742773206f776e657200000000000000000000000000602082015250565b610f7581610dca565b8114610f8057600080fd5b5056fea2646970667358221220b0b19c15f7fd1a7394ca77e0c36ec66ea3ab4e5615255527649806ff1674eca864736f6c634300080400332f2f73746f726167652e6d64732e79616e6465782e6e65742f6765742d73706f72742f36393630332f39323838633936303439386632353365313536313065343064373331653731662e706e672f2f73746f726167652e6d64732e79616e6465782e6e65742f6765742d73706f72742f36373338392f64616264323836333133353531393836653466396537393466353031623732652e706e672f2f73746f726167652e6d64732e79616e6465782e6e65742f6765742d73706f72742f36373338392f36366539336365346431656231363634333836346633663331316433656638332e706e672f2f73746f726167652e6d64732e79616e6465782e6e65742f6765742d73706f72742f31303439332f61316637326432353937613231383430353236373666376138636263643538632e706e67",
  "immutableReferences": {},
  "source": "pragma solidity >=0.4.22 <0.9.0;\n\n\nstruct SportsEvent {\n  uint8 id;\n  string team_1_name;\n  string team_2_name;\n  string team_1_logo;\n  string team_2_logo;\n  uint8 team_1_win_percent;\n  uint8 team_2_win_percent;\n}\n\n\ncontract GGbet {\n  address public owner = msg.sender;\n\n  SportsEvent[] private sports_events_set;\n\n  SportsEvent public current_sports_event;\n  bool public sports_event_in_progress = false;\n\n  constructor() {\n    initializeSportsEvents();\n  }\n\n  modifier restricted() {\n    require(\n      msg.sender == owner,\n      \"This function is restricted to the contract's owner\"\n    );\n    _;\n  }\n\n  /*\n    PUBLIC functions\n  */\n\n  function setCurrentSportsEventById(uint8 _id) public restricted {\n    (\n      uint8 id,\n      string memory team_1_name,\n      string memory team_2_name,\n      string memory team_1_logo,\n      string memory team_2_logo,\n      uint8 team_1_win_percent,\n      uint8 team_2_win_percent\n    ) = getSportsEventById(_id);\n\n    current_sports_event = SportsEvent({\n      id: id,\n      team_1_name: team_1_name,\n      team_2_name: team_2_name,\n      team_1_logo: team_1_logo,\n      team_2_logo: team_2_logo,\n      team_1_win_percent: team_1_win_percent,\n      team_2_win_percent: team_2_win_percent\n    });\n    sports_event_in_progress = true;\n  }\n\n  function initializeSportsEvents() private {\n    sports_events_set.push(getLfcVsBarcaEvent());\n    sports_events_set.push(getBayernVsMancityEvent());\n  }\n\n  function getSportsEventsCount() public view restricted returns (uint) {\n    return sports_events_set.length;\n  }\n\n  function getSportsEventById(uint8 _id)\n    public\n    view\n    restricted\n    returns (\n      uint8 id,\n      string memory team_1_name,\n      string memory team_2_name,\n      string memory team_1_logo,\n      string memory team_2_logo,\n      uint8 team_1_win_percent,\n      uint8 team_2_win_percent\n    )\n  {\n    for(uint i = 0; i < sports_events_set.length; i++) {\n      if (_id == sports_events_set[i].id) {\n        SportsEvent storage temp = sports_events_set[i]; // reference, no copy. just for brevity\n\n        return (\n          temp.id,\n          temp.team_1_name,\n          temp.team_2_name,\n          temp.team_1_logo,\n          temp.team_2_logo,\n          temp.team_1_win_percent,\n          temp.team_2_win_percent\n        );\n      }\n    }\n\n    revert(\"There is no event with this id\");\n  }\n\n  /*\n    PRIVATE functions\n  */\n\n  function getLfcVsBarcaEvent() private pure returns (SportsEvent memory) {\n    return SportsEvent({\n      id: 0,\n      team_1_name : 'FC Liverpool',\n      team_2_name : 'FC Barcelona',\n      team_1_logo: '//storage.mds.yandex.net/get-sport/10493/a1f72d2597a2184052676f7a8cbcd58c.png',\n      team_2_logo: '//storage.mds.yandex.net/get-sport/69603/9288c960498f253e15610e40d731e71f.png',\n      team_1_win_percent: 65,\n      team_2_win_percent: 10\n    });\n  }\n\n  function getBayernVsMancityEvent() private pure returns (SportsEvent memory) {\n    return SportsEvent({\n      id: 1,\n      team_1_name : 'FC Bayern',\n      team_2_name : 'FC Manchester City',\n      team_1_logo: '//storage.mds.yandex.net/get-sport/67389/dabd286313551986e4f9e794f501b72e.png',\n      team_2_logo: '//storage.mds.yandex.net/get-sport/67389/66e93ce4d1eb16643864f3f311d3ef83.png',\n      team_1_win_percent: 25,\n      team_2_win_percent: 35\n    });\n  }\n}\n",
  "sourcePath": "/home/ivannn/Projects/BookmakerDAPP/bookmaker-dapp/contracts/GGbet.sol",
  "compiler": {
    "name": "solc",
    "version": "0.8.4+commit.c7e474f2.Emscripten.clang"
  },
  "schemaVersion": "3.4.3",
  "updatedAt": "2022-01-12T06:13:03.147Z",
  "networkType": "ethereum",
  "devdoc": {
    "kind": "dev",
    "methods": {},
    "version": 1
  },
  "userdoc": {
    "kind": "user",
    "methods": {},
    "version": 1
  }
}