{
  "contractName": "GGbet",
  "abi": [
    {
      "inputs": [],
      "name": "current_event",
      "outputs": [
        {
          "internalType": "uint8",
          "name": "id",
          "type": "uint8"
        },
        {
          "components": [
            {
              "components": [
                {
                  "internalType": "string",
                  "name": "name",
                  "type": "string"
                }
              ],
              "internalType": "struct Team",
              "name": "team_1",
              "type": "tuple"
            },
            {
              "components": [
                {
                  "internalType": "string",
                  "name": "name",
                  "type": "string"
                }
              ],
              "internalType": "struct Team",
              "name": "team_2",
              "type": "tuple"
            }
          ],
          "internalType": "struct Match",
          "name": "match_data",
          "type": "tuple"
        },
        {
          "internalType": "uint8",
          "name": "team_1_win_percent",
          "type": "uint8"
        },
        {
          "internalType": "uint8",
          "name": "team_2_win_percent",
          "type": "uint8"
        }
      ],
      "stateMutability": "view",
      "type": "function",
      "constant": true
    },
    {
      "inputs": [],
      "name": "owner",
      "outputs": [
        {
          "internalType": "address",
          "name": "",
          "type": "address"
        }
      ],
      "stateMutability": "view",
      "type": "function",
      "constant": true
    },
    {
      "inputs": [
        {
          "internalType": "uint8",
          "name": "_id",
          "type": "uint8"
        }
      ],
      "name": "setCurrentEventById",
      "outputs": [],
      "stateMutability": "nonpayable",
      "type": "function"
    },
    {
      "inputs": [],
      "name": "setPredefinedSportsEvents",
      "outputs": [],
      "stateMutability": "nonpayable",
      "type": "function"
    },
    {
      "inputs": [],
      "name": "getSportsEventsSet",
      "outputs": [
        {
          "components": [
            {
              "internalType": "uint8",
              "name": "id",
              "type": "uint8"
            },
            {
              "components": [
                {
                  "components": [
                    {
                      "internalType": "string",
                      "name": "name",
                      "type": "string"
                    }
                  ],
                  "internalType": "struct Team",
                  "name": "team_1",
                  "type": "tuple"
                },
                {
                  "components": [
                    {
                      "internalType": "string",
                      "name": "name",
                      "type": "string"
                    }
                  ],
                  "internalType": "struct Team",
                  "name": "team_2",
                  "type": "tuple"
                }
              ],
              "internalType": "struct Match",
              "name": "match_data",
              "type": "tuple"
            },
            {
              "internalType": "uint8",
              "name": "team_1_win_percent",
              "type": "uint8"
            },
            {
              "internalType": "uint8",
              "name": "team_2_win_percent",
              "type": "uint8"
            }
          ],
          "internalType": "struct SportsEvent[]",
          "name": "",
          "type": "tuple[]"
        }
      ],
      "stateMutability": "view",
      "type": "function",
      "constant": true
    }
  ],
  "bytecode": "0x6080604052336000806101000a81548173ffffffffffffffffffffffffffffffffffffffff021916908373ffffffffffffffffffffffffffffffffffffffff16021790555034801561005057600080fd5b506116d7806100606000396000f3fe608060405234801561001057600080fd5b50600436106100575760003560e01c80630b2db8961461005c57806344e2052f1461007a578063477a1f911461009b5780635c7c2eee146100a55780638da5cb5b146100c1575b600080fd5b6100646100df565b6040516100719190611398565b60405180910390f35b610082610383565b60405161009294939291906113fa565b60405180910390f35b6100a361051e565b005b6100bf60048036038101906100ba919061110a565b61087f565b005b6100c96109dc565b6040516100d6919061137d565b60405180910390f35b606060008054906101000a900473ffffffffffffffffffffffffffffffffffffffff1673ffffffffffffffffffffffffffffffffffffffff163373ffffffffffffffffffffffffffffffffffffffff161461016f576040517f08c379a0000000000000000000000000000000000000000000000000000000008152600401610166906113da565b60405180910390fd5b6002805480602002602001604051908101604052809291908181526020016000905b8282101561037a57838290600052602060002090600402016040518060800160405290816000820160009054906101000a900460ff1660ff1660ff168152602001600182016040518060400160405290816000820160405180602001604052908160008201805461020190611528565b80601f016020809104026020016040519081016040528092919081815260200182805461022d90611528565b801561027a5780601f1061024f5761010080835404028352916020019161027a565b820191906000526020600020905b81548152906001019060200180831161025d57829003601f168201915b5050505050815250508152602001600182016040518060200160405290816000820180546102a790611528565b80601f01602080910402602001604051908101604052809291908181526020018280546102d390611528565b80156103205780601f106102f557610100808354040283529160200191610320565b820191906000526020600020905b81548152906001019060200180831161030357829003601f168201915b5050505050815250508152505081526020016003820160009054906101000a900460ff1660ff1660ff1681526020016003820160019054906101000a900460ff1660ff1660ff168152505081526020019060010190610191565b50505050905090565b60038060000160009054906101000a900460ff169080600101604051806040016040529081600082016040518060200160405290816000820180546103c790611528565b80601f01602080910402602001604051908101604052809291908181526020018280546103f390611528565b80156104405780601f1061041557610100808354040283529160200191610440565b820191906000526020600020905b81548152906001019060200180831161042357829003601f168201915b50505050508152505081526020016001820160405180602001604052908160008201805461046d90611528565b80601f016020809104026020016040519081016040528092919081815260200182805461049990611528565b80156104e65780601f106104bb576101008083540402835291602001916104e6565b820191906000526020600020905b8154815290600101906020018083116104c957829003601f168201915b50505050508152505081525050908060030160009054906101000a900460ff16908060030160019054906101000a900460ff16905084565b60008054906101000a900473ffffffffffffffffffffffffffffffffffffffff1673ffffffffffffffffffffffffffffffffffffffff163373ffffffffffffffffffffffffffffffffffffffff16146105ac576040517f08c379a00000000000000000000000000000000000000000000000000000000081526004016105a3906113da565b60405180910390fd5b6105b4610a00565b6000600180549050905060005b8181101561087b57600081905060006107786001848154811061060d577f4e487b7100000000000000000000000000000000000000000000000000000000600052603260045260246000fd5b90600052602060002090600202016040518060400160405290816000820160405180602001604052908160008201805461064690611528565b80601f016020809104026020016040519081016040528092919081815260200182805461067290611528565b80156106bf5780601f10610694576101008083540402835291602001916106bf565b820191906000526020600020905b8154815290600101906020018083116106a257829003601f168201915b5050505050815250508152602001600182016040518060200160405290816000820180546106ec90611528565b80601f016020809104026020016040519081016040528092919081815260200182805461071890611528565b80156107655780601f1061073a57610100808354040283529160200191610765565b820191906000526020600020905b81548152906001019060200180831161074857829003601f168201915b5050505050815250508152505083610b18565b9050600281908060018154018082558091505060019003906000526020600020906004020160009091909190915060008201518160000160006101000a81548160ff021916908360ff16021790555060208201518160010160008201518160000160008201518160000190805190602001906107f5929190610fe2565b505050602082015181600101600082015181600001908051906020019061081d929190610fe2565b505050505060408201518160030160006101000a81548160ff021916908360ff16021790555060608201518160030160016101000a81548160ff021916908360ff1602179055505050505080806108739061155a565b9150506105c1565b5050565b60008054906101000a900473ffffffffffffffffffffffffffffffffffffffff1673ffffffffffffffffffffffffffffffffffffffff163373ffffffffffffffffffffffffffffffffffffffff161461090d576040517f08c379a0000000000000000000000000000000000000000000000000000000008152600401610904906113da565b60405180910390fd5b61091681610b54565b600360008201518160000160006101000a81548160ff021916908360ff1602179055506020820151816001016000820151816000016000820151816000019080519060200190610967929190610fe2565b505050602082015181600101600082015181600001908051906020019061098f929190610fe2565b505050505060408201518160030160006101000a81548160ff021916908360ff16021790555060608201518160030160016101000a81548160ff021916908360ff16021790555090505050565b60008054906101000a900473ffffffffffffffffffffffffffffffffffffffff1681565b6000610a0a610e3e565b90506000610a16610e6e565b905060018290806001815401808255809150506001900390600052602060002090600202016000909190919091506000820151816000016000820151816000019080519060200190610a69929190610fe2565b5050506020820151816001016000820151816000019080519060200190610a91929190610fe2565b505050505060018190806001815401808255809150506001900390600052602060002090600202016000909190919091506000820151816000016000820151816000019080519060200190610ae7929190610fe2565b5050506020820151816001016000820151816000019080519060200190610b0f929190610fe2565b50505050505050565b610b20611068565b60405180608001604052808360ff168152602001848152602001604160ff168152602001600a60ff16815250905092915050565b610b5c611068565b6000600280549050905060005b81811015610dfd5760028181548110610bab577f4e487b7100000000000000000000000000000000000000000000000000000000600052603260045260246000fd5b906000526020600020906004020160000160009054906101000a900460ff1660ff168460ff161415610dea5760028181548110610c11577f4e487b7100000000000000000000000000000000000000000000000000000000600052603260045260246000fd5b90600052602060002090600402016040518060800160405290816000820160009054906101000a900460ff1660ff1660ff1681526020016001820160405180604001604052908160008201604051806020016040529081600082018054610c7790611528565b80601f0160208091040260200160405190810160405280929190818152602001828054610ca390611528565b8015610cf05780601f10610cc557610100808354040283529160200191610cf0565b820191906000526020600020905b815481529060010190602001808311610cd357829003601f168201915b505050505081525050815260200160018201604051806020016040529081600082018054610d1d90611528565b80601f0160208091040260200160405190810160405280929190818152602001828054610d4990611528565b8015610d965780601f10610d6b57610100808354040283529160200191610d96565b820191906000526020600020905b815481529060010190602001808311610d7957829003601f168201915b5050505050815250508152505081526020016003820160009054906101000a900460ff1660ff1660ff1681526020016003820160019054906101000a900460ff1660ff1660ff168152505092505050610e39565b8080610df59061155a565b915050610b69565b506040517f08c379a0000000000000000000000000000000000000000000000000000000008152600401610e30906113ba565b60405180910390fd5b919050565b610e4661109f565b6040518060400160405280610e59610e9e565b8152602001610e66610eef565b815250905090565b610e7661109f565b6040518060400160405280610e89610f40565b8152602001610e96610f91565b815250905090565b610ea66110c5565b60405180602001604052806040518060400160405280600c81526020017f4643204c69766572706f6f6c0000000000000000000000000000000000000000815250815250905090565b610ef76110c5565b60405180602001604052806040518060400160405280600c81526020017f46432042617263656c6f6e610000000000000000000000000000000000000000815250815250905090565b610f486110c5565b60405180602001604052806040518060400160405280600981526020017f46432042617965726e0000000000000000000000000000000000000000000000815250815250905090565b610f996110c5565b60405180602001604052806040518060400160405280601281526020017f4643204d616e6368657374657220436974790000000000000000000000000000815250815250905090565b828054610fee90611528565b90600052602060002090601f0160209004810192826110105760008555611057565b82601f1061102957805160ff1916838001178555611057565b82800160010185558215611057579182015b8281111561105657825182559160200191906001019061103b565b5b50905061106491906110d8565b5090565b6040518060800160405280600060ff16815260200161108561109f565b8152602001600060ff168152602001600060ff1681525090565b60405180604001604052806110b26110c5565b81526020016110bf6110c5565b81525090565b6040518060200160405280606081525090565b5b808211156110f15760008160009055506001016110d9565b5090565b6000813590506111048161168a565b92915050565b60006020828403121561111c57600080fd5b600061112a848285016110f5565b91505092915050565b600061113f83836112d2565b905092915050565b611150816114ac565b82525050565b600061116182611456565b61116b8185611479565b93508360208202850161117d85611446565b8060005b858110156111b9578484038952815161119a8582611133565b94506111a58361146c565b925060208a01995050600181019050611181565b50829750879550505050505092915050565b60006111d682611461565b6111e0818561148a565b93506111f08185602086016114f5565b6111f981611601565b840191505092915050565b6000611211601e8361149b565b915061121c82611612565b602082019050919050565b600061123460338361149b565b915061123f8261163b565b604082019050919050565b600060408301600083015184820360008601526112678282611335565b915050602083015184820360208601526112818282611335565b9150508091505092915050565b600060408301600083015184820360008601526112ab8282611335565b915050602083015184820360208601526112c58282611335565b9150508091505092915050565b60006080830160008301516112ea600086018261135f565b5060208301518482036020860152611302828261124a565b9150506040830151611317604086018261135f565b50606083015161132a606086018261135f565b508091505092915050565b6000602083016000830151848203600086015261135282826111cb565b9150508091505092915050565b611368816114e8565b82525050565b611377816114e8565b82525050565b60006020820190506113926000830184611147565b92915050565b600060208201905081810360008301526113b28184611156565b905092915050565b600060208201905081810360008301526113d381611204565b9050919050565b600060208201905081810360008301526113f381611227565b9050919050565b600060808201905061140f600083018761136e565b8181036020830152611421818661128e565b9050611430604083018561136e565b61143d606083018461136e565b95945050505050565b6000819050602082019050919050565b600081519050919050565b600081519050919050565b6000602082019050919050565b600082825260208201905092915050565b600082825260208201905092915050565b600082825260208201905092915050565b60006114b7826114be565b9050919050565b600073ffffffffffffffffffffffffffffffffffffffff82169050919050565b6000819050919050565b600060ff82169050919050565b60005b838110156115135780820151818401526020810190506114f8565b83811115611522576000848401525b50505050565b6000600282049050600182168061154057607f821691505b60208210811415611554576115536115d2565b5b50919050565b6000611565826114de565b91507fffffffffffffffffffffffffffffffffffffffffffffffffffffffffffffffff821415611598576115976115a3565b5b600182019050919050565b7f4e487b7100000000000000000000000000000000000000000000000000000000600052601160045260246000fd5b7f4e487b7100000000000000000000000000000000000000000000000000000000600052602260045260246000fd5b6000601f19601f8301169050919050565b7f5468657265206973206e6f206576656e74207769746820746869732069640000600082015250565b7f546869732066756e6374696f6e206973207265737472696374656420746f207460008201527f686520636f6e74726163742773206f776e657200000000000000000000000000602082015250565b611693816114e8565b811461169e57600080fd5b5056fea2646970667358221220708f68c195629ff3b581135134cea3598300a59015ea0d0d66334e3c8b20481364736f6c63430008040033",
  "immutableReferences": {},
  "source": "pragma solidity >=0.4.22 <0.9.0;\n\nstruct Team {\n  string name;\n}\n\nstruct Match {\n  Team team_1;\n  Team team_2;\n}\n\nstruct SportsEvent {\n  uint8 id;\n  Match match_data;\n  uint8 team_1_win_percent;\n  uint8 team_2_win_percent;\n}\n\ncontract GGbet {\n  address public owner = msg.sender;\n\n  Match[] private matches_set; // storage, obviously - it is shared between function calls and transactions\n  SportsEvent[] private sports_events_set;\n\n  SportsEvent public current_event;\n\n  modifier restricted() {\n    require(\n      msg.sender == owner,\n      \"This function is restricted to the contract's owner\"\n    );\n    _;\n  }\n\n  /*\n    PUBLIC functions\n  */\n\n  function setCurrentEventById(uint8 _id) restricted public {\n    current_event = getSportsEventById(_id);\n  }\n\n  function setPredefinedSportsEvents() public restricted {\n    setPredefinedMatches();\n\n    uint matches_count = matches_set.length;\n\n    for (uint i = 0; i < matches_count; i++) {\n      uint8 id = uint8(i);\n      SportsEvent memory _event = generateEventFromMatch(matches_set[i], id);\n      sports_events_set.push(_event);\n    }\n  }\n\n  function getSportsEventsSet() public view restricted returns (SportsEvent[] memory) {\n    return sports_events_set;\n  }\n\n  /*\n    PRIVATE functions\n  */\n\n  function getSportsEventById(uint8 _id) private view returns (SportsEvent memory) {\n    uint events_num = sports_events_set.length;\n\n    for(uint i = 0; i < events_num; i++) {\n      if (_id == sports_events_set[i].id) {\n        return sports_events_set[i];\n      }\n    }\n\n    revert(\"There is no event with this id\");\n  }\n\n  function setPredefinedMatches() private {\n    Match memory lfc_vs_barca = getLfcVsBarcaMatch();\n    Match memory bayern_vs_mancity = getBayernVsMancityMatch();\n    matches_set.push(lfc_vs_barca);\n    matches_set.push(bayern_vs_mancity);\n  }\n\n  function generateEventFromMatch(Match memory _match, uint8 _id) private pure returns (SportsEvent memory) {\n    return SportsEvent({\n      id: _id,\n      match_data: _match,\n      team_1_win_percent: 65,\n      team_2_win_percent: 10\n    });\n  }\n\n  function getLfcVsBarcaMatch() private pure returns (Match memory) {\n    return Match({\n      team_1 : getLiverpoolTeam(),\n      team_2 : getBarcelonaTeam()\n    });\n  }\n\n  function getBayernVsMancityMatch() private pure returns (Match memory) {\n    return Match({\n      team_1 : getBayernTeam(),\n      team_2 : getMancityTeam()\n    });\n  }\n\n  function getLiverpoolTeam() private pure returns (Team memory) {\n    return Team({\n      name : 'FC Liverpool'\n    });\n  }\n\n  function getBarcelonaTeam() private pure returns (Team memory) {\n    return Team({\n      name : 'FC Barcelona'\n    });\n  }\n\n  function getBayernTeam() private pure returns (Team memory) {\n    return Team({\n      name : 'FC Bayern'\n    });\n  }\n\n  function getMancityTeam() private pure returns (Team memory) {\n    return Team({\n      name : 'FC Manchester City'\n    });\n  }\n}\n",
  "sourcePath": "/home/ivannn/Projects/BookmakerDAPP/bookmaker-dapp/contracts/GGbet.sol",
  "compiler": {
    "name": "solc",
    "version": "0.8.4+commit.c7e474f2.Emscripten.clang"
  },
  "schemaVersion": "3.2.3",
  "updatedAt": "2022-01-06T09:09:34.800Z",
  "networkType": "ethereum",
  "devdoc": {
    "kind": "dev",
    "methods": {},
    "version": 1
  },
  "userdoc": {
    "kind": "user",
    "methods": {},
    "version": 1
  }
}